{"contracts/NodeStayMachineRegistry.sol":{"NodeStayMachineRegistry":{"abi":[{"inputs":[],"stateMutability":"nonpayable","type":"constructor"},{"inputs":[{"internalType":"address","name":"sender","type":"address"},{"internalType":"uint256","name":"tokenId","type":"uint256"},{"internalType":"address","name":"owner","type":"address"}],"name":"ERC721IncorrectOwner","type":"error"},{"inputs":[{"internalType":"address","name":"operator","type":"address"},{"internalType":"uint256","name":"tokenId","type":"uint256"}],"name":"ERC721InsufficientApproval","type":"error"},{"inputs":[{"internalType":"address","name":"approver","type":"address"}],"name":"ERC721InvalidApprover","type":"error"},{"inputs":[{"internalType":"address","name":"operator","type":"address"}],"name":"ERC721InvalidOperator","type":"error"},{"inputs":[{"internalType":"address","name":"owner","type":"address"}],"name":"ERC721InvalidOwner","type":"error"},{"inputs":[{"internalType":"address","name":"receiver","type":"address"}],"name":"ERC721InvalidReceiver","type":"error"},{"inputs":[{"internalType":"address","name":"sender","type":"address"}],"name":"ERC721InvalidSender","type":"error"},{"inputs":[{"internalType":"uint256","name":"tokenId","type":"uint256"}],"name":"ERC721NonexistentToken","type":"error"},{"inputs":[],"name":"MachineAlreadyExists","type":"error"},{"inputs":[],"name":"MachineNotFound","type":"error"},{"inputs":[],"name":"NotMachineOwner","type":"error"},{"inputs":[],"name":"NotOperator","type":"error"},{"inputs":[{"internalType":"address","name":"owner","type":"address"}],"name":"OwnableInvalidOwner","type":"error"},{"inputs":[{"internalType":"address","name":"account","type":"address"}],"name":"OwnableUnauthorizedAccount","type":"error"},{"inputs":[],"name":"ZeroAddress","type":"error"},{"anonymous":false,"inputs":[{"indexed":true,"internalType":"address","name":"owner","type":"address"},{"indexed":true,"internalType":"address","name":"approved","type":"address"},{"indexed":true,"internalType":"uint256","name":"tokenId","type":"uint256"}],"name":"Approval","type":"event"},{"anonymous":false,"inputs":[{"indexed":true,"internalType":"address","name":"owner","type":"address"},{"indexed":true,"internalType":"address","name":"operator","type":"address"},{"indexed":false,"internalType":"bool","name":"approved","type":"bool"}],"name":"ApprovalForAll","type":"event"},{"anonymous":false,"inputs":[{"indexed":true,"internalType":"bytes32","name":"machineId","type":"bytes32"},{"indexed":false,"internalType":"string","name":"metadataURI","type":"string"}],"name":"MachineMetadataUpdated","type":"event"},{"anonymous":false,"inputs":[{"indexed":true,"internalType":"bytes32","name":"machineId","type":"bytes32"},{"indexed":true,"internalType":"address","name":"newOwner","type":"address"}],"name":"MachineOwnerUpdated","type":"event"},{"anonymous":false,"inputs":[{"indexed":true,"internalType":"bytes32","name":"machineId","type":"bytes32"},{"indexed":true,"internalType":"address","name":"owner","type":"address"},{"indexed":true,"internalType":"uint256","name":"tokenId","type":"uint256"}],"name":"MachineRegistered","type":"event"},{"anonymous":false,"inputs":[{"indexed":true,"internalType":"bytes32","name":"machineId","type":"bytes32"},{"indexed":false,"internalType":"enum MachineStatus","name":"status","type":"uint8"}],"name":"MachineStatusUpdated","type":"event"},{"anonymous":false,"inputs":[{"indexed":true,"internalType":"address","name":"previousOwner","type":"address"},{"indexed":true,"internalType":"address","name":"newOwner","type":"address"}],"name":"OwnershipTransferred","type":"event"},{"anonymous":false,"inputs":[{"indexed":true,"internalType":"address","name":"from","type":"address"},{"indexed":true,"internalType":"address","name":"to","type":"address"},{"indexed":true,"internalType":"uint256","name":"tokenId","type":"uint256"}],"name":"Transfer","type":"event"},{"inputs":[{"internalType":"address","name":"to","type":"address"},{"internalType":"uint256","name":"tokenId","type":"uint256"}],"name":"approve","outputs":[],"stateMutability":"nonpayable","type":"function"},{"inputs":[{"internalType":"address","name":"owner","type":"address"}],"name":"balanceOf","outputs":[{"internalType":"uint256","name":"","type":"uint256"}],"stateMutability":"view","type":"function"},{"inputs":[{"internalType":"bytes32","name":"machineId","type":"bytes32"}],"name":"exists","outputs":[{"internalType":"bool","name":"","type":"bool"}],"stateMutability":"view","type":"function"},{"inputs":[{"internalType":"uint256","name":"tokenId","type":"uint256"}],"name":"getApproved","outputs":[{"internalType":"address","name":"","type":"address"}],"stateMutability":"view","type":"function"},{"inputs":[{"internalType":"bytes32","name":"machineId","type":"bytes32"}],"name":"getMachine","outputs":[{"components":[{"internalType":"bytes32","name":"machineId","type":"bytes32"},{"internalType":"bytes32","name":"venueIdHash","type":"bytes32"},{"internalType":"address","name":"owner","type":"address"},{"internalType":"uint8","name":"machineClass","type":"uint8"},{"internalType":"enum MachineStatus","name":"status","type":"uint8"},{"internalType":"bytes32","name":"specHash","type":"bytes32"},{"internalType":"string","name":"metadataURI","type":"string"}],"internalType":"struct INodeStayMachineRegistry.MachineData","name":"","type":"tuple"}],"stateMutability":"view","type":"function"},{"inputs":[{"internalType":"uint256","name":"tokenId","type":"uint256"}],"name":"getMachineIdByToken","outputs":[{"internalType":"bytes32","name":"","type":"bytes32"}],"stateMutability":"view","type":"function"},{"inputs":[{"internalType":"bytes32","name":"machineId","type":"bytes32"}],"name":"getTokenIdByMachine","outputs":[{"internalType":"uint256","name":"","type":"uint256"}],"stateMutability":"view","type":"function"},{"inputs":[{"internalType":"address","name":"owner","type":"address"},{"internalType":"address","name":"operator","type":"address"}],"name":"isApprovedForAll","outputs":[{"internalType":"bool","name":"","type":"bool"}],"stateMutability":"view","type":"function"},{"inputs":[],"name":"name","outputs":[{"internalType":"string","name":"","type":"string"}],"stateMutability":"view","type":"function"},{"inputs":[],"name":"nextTokenId","outputs":[{"internalType":"uint256","name":"","type":"uint256"}],"stateMutability":"view","type":"function"},{"inputs":[],"name":"operator","outputs":[{"internalType":"address","name":"","type":"address"}],"stateMutability":"view","type":"function"},{"inputs":[],"name":"owner","outputs":[{"internalType":"address","name":"","type":"address"}],"stateMutability":"view","type":"function"},{"inputs":[{"internalType":"uint256","name":"tokenId","type":"uint256"}],"name":"ownerOf","outputs":[{"internalType":"address","name":"","type":"address"}],"stateMutability":"view","type":"function"},{"inputs":[{"internalType":"bytes32","name":"venueIdHash","type":"bytes32"},{"internalType":"uint8","name":"machineClass","type":"uint8"},{"internalType":"bytes32","name":"specHash","type":"bytes32"},{"internalType":"string","name":"metadataURI","type":"string"}],"name":"registerMachine","outputs":[{"internalType":"bytes32","name":"machineId","type":"bytes32"}],"stateMutability":"nonpayable","type":"function"},{"inputs":[{"internalType":"address","name":"","type":"address"}],"name":"registrationNonce","outputs":[{"internalType":"uint256","name":"","type":"uint256"}],"stateMutability":"view","type":"function"},{"inputs":[],"name":"renounceOwnership","outputs":[],"stateMutability":"nonpayable","type":"function"},{"inputs":[{"internalType":"address","name":"from","type":"address"},{"internalType":"address","name":"to","type":"address"},{"internalType":"uint256","name":"tokenId","type":"uint256"}],"name":"safeTransferFrom","outputs":[],"stateMutability":"nonpayable","type":"function"},{"inputs":[{"internalType":"address","name":"from","type":"address"},{"internalType":"address","name":"to","type":"address"},{"internalType":"uint256","name":"tokenId","type":"uint256"},{"internalType":"bytes","name":"data","type":"bytes"}],"name":"safeTransferFrom","outputs":[],"stateMutability":"nonpayable","type":"function"},{"inputs":[{"internalType":"address","name":"operator","type":"address"},{"internalType":"bool","name":"approved","type":"bool"}],"name":"setApprovalForAll","outputs":[],"stateMutability":"nonpayable","type":"function"},{"inputs":[{"internalType":"address","name":"operator_","type":"address"}],"name":"setOperator","outputs":[],"stateMutability":"nonpayable","type":"function"},{"inputs":[{"internalType":"bytes4","name":"interfaceId","type":"bytes4"}],"name":"supportsInterface","outputs":[{"internalType":"bool","name":"","type":"bool"}],"stateMutability":"view","type":"function"},{"inputs":[],"name":"symbol","outputs":[{"internalType":"string","name":"","type":"string"}],"stateMutability":"view","type":"function"},{"inputs":[{"internalType":"uint256","name":"tokenId","type":"uint256"}],"name":"tokenURI","outputs":[{"internalType":"string","name":"","type":"string"}],"stateMutability":"view","type":"function"},{"inputs":[{"internalType":"address","name":"from","type":"address"},{"internalType":"address","name":"to","type":"address"},{"internalType":"uint256","name":"tokenId","type":"uint256"}],"name":"transferFrom","outputs":[],"stateMutability":"nonpayable","type":"function"},{"inputs":[{"internalType":"bytes32","name":"machineId","type":"bytes32"},{"internalType":"address","name":"newOwner","type":"address"}],"name":"transferMachineRoot","outputs":[],"stateMutability":"nonpayable","type":"function"},{"inputs":[{"internalType":"address","name":"newOwner","type":"address"}],"name":"transferOwnership","outputs":[],"stateMutability":"nonpayable","type":"function"},{"inputs":[{"internalType":"bytes32","name":"machineId","type":"bytes32"},{"internalType":"string","name":"metadataURI","type":"string"}],"name":"updateMachineMetadata","outputs":[],"stateMutability":"nonpayable","type":"function"},{"inputs":[{"internalType":"bytes32","name":"machineId","type":"bytes32"},{"internalType":"enum MachineStatus","name":"status","type":"uint8"}],"name":"updateMachineStatus","outputs":[],"stateMutability":"nonpayable","type":"function"}],"evm":{"bytecode":{"linkReferences":{},"object":"60806040526001600855348015610014575f80fd5b50336040518060400160405280601981526020017f4e6f646553746179204d616368696e6520526567697374727900000000000000815250604051806040016040528060038152602001624e534d60e81b815250815f908161007691906101ab565b50600161008382826101ab565b5050506001600160a01b0381166100b357604051631e4fbdf760e01b81525f600482015260240160405180910390fd5b6100bc816100c2565b50610265565b600680546001600160a01b038381166001600160a01b0319831681179093556040519116919082907f8be0079c531659141344cd1fd0a4f28419497f9722a3daafe3b4186f6b6457e0905f90a35050565b634e487b7160e01b5f52604160045260245ffd5b600181811c9082168061013b57607f821691505b60208210810361015957634e487b7160e01b5f52602260045260245ffd5b50919050565b601f8211156101a657805f5260205f20601f840160051c810160208510156101845750805b601f840160051c820191505b818110156101a3575f8155600101610190565b50505b505050565b81516001600160401b038111156101c4576101c4610113565b6101d8816101d28454610127565b8461015f565b6020601f82116001811461020a575f83156101f35750848201515b5f19600385901b1c1916600184901b1784556101a3565b5f84815260208120601f198516915b828110156102395787850151825560209485019460019092019101610219565b508482101561025657868401515f19600387901b60f8161c191681555b50505050600190811b01905550565b611de6806102725f395ff3fe608060405234801561000f575f80fd5b50600436106101bb575f3560e01c80637c360a1d116100f3578063a22cb46511610093578063c87b56dd1161006e578063c87b56dd146103e3578063ca418ffd146103f6578063e985e9c514610409578063f2fde38b1461041c575f80fd5b8063a22cb465146103aa578063b3ab15fb146103bd578063b88d4fde146103d0575f80fd5b806398b206f3116100ce57806398b206f3146103465780639cbec42d146103595780639cf1f5ca1461036c5780639dc8cad01461038b575f80fd5b80637c360a1d1461030e5780638da5cb5b1461032d57806395d89b411461033e575f80fd5b806342842e0e1161015e5780636352211e116101395780636352211e146102c957806370a08231146102dc578063715018a6146102fd57806375794a3c14610305575f80fd5b806342842e0e1461029057806343fe547a146102a3578063570ca735146102b6575f80fd5b8063095ea7b311610199578063095ea7b31461022757806323b872dd1461023c5780632abe120e1461024f57806338a699a41461026f575f80fd5b806301ffc9a7146101bf57806306fdde03146101e7578063081812fc146101fc575b5f80fd5b6101d26101cd36600461169d565b61042f565b60405190151581526020015b60405180910390f35b6101ef610480565b6040516101de91906116e6565b61020f61020a3660046116f8565b61050f565b6040516001600160a01b0390911681526020016101de565b61023a61023536600461172a565b610536565b005b61023a61024a366004611752565b610545565b61026261025d3660046116f8565b6105d3565b6040516101de91906117c0565b6101d261027d3660046116f8565b5f908152600b6020526040902054151590565b61023a61029e366004611752565b610738565b61023a6102b1366004611870565b610757565b60075461020f906001600160a01b031681565b61020f6102d73660046116f8565b61080b565b6102ef6102ea3660046118b8565b610815565b6040519081526020016101de565b61023a61085a565b6102ef60085481565b6102ef61031c3660046118b8565b60096020525f908152604090205481565b6006546001600160a01b031661020f565b6101ef61086d565b61023a6103543660046118d1565b61087c565b6102ef610367366004611902565b610949565b6102ef61037a3660046116f8565b5f908152600c602052604090205490565b6102ef6103993660046116f8565b5f908152600b602052604090205490565b61023a6103b836600461196c565b610bba565b61023a6103cb3660046118b8565b610bc5565b61023a6103de3660046119ae565b610c16565b6101ef6103f13660046116f8565b610c2e565b61023a610404366004611a8b565b610c9f565b6101d2610417366004611ab5565b610da3565b61023a61042a3660046118b8565b610dd0565b5f6001600160e01b031982166380ac58cd60e01b148061045f57506001600160e01b03198216635b5e139f60e01b145b8061047a57506301ffc9a760e01b6001600160e01b03198316145b92915050565b60605f805461048e90611add565b80601f01602080910402602001604051908101604052809291908181526020018280546104ba90611add565b80156105055780601f106104dc57610100808354040283529160200191610505565b820191905f5260205f20905b8154815290600101906020018083116104e857829003601f168201915b5050505050905090565b5f61051982610e0d565b505f828152600460205260409020546001600160a01b031661047a565b610541828233610e45565b5050565b6001600160a01b03821661057357604051633250574960e11b81525f60048201526024015b60405180910390fd5b5f61057f838333610e52565b9050836001600160a01b0316816001600160a01b0316146105cd576040516364283d7b60e01b81526001600160a01b038086166004830152602482018490528216604482015260640161056a565b50505050565b6106116040805160e0810182525f808252602082018190529181018290526060810182905290608082019081525f6020820152606060409091015290565b5f828152600a6020908152604091829020825160e0810184528154815260018201549281019290925260028101546001600160a01b0381169383019390935260ff600160a01b840481166060840152919290916080840191600160a81b90041660048111156106825761068261178c565b60048111156106935761069361178c565b8152602001600382015481526020016004820180546106b190611add565b80601f01602080910402602001604051908101604052809291908181526020018280546106dd90611add565b80156107285780601f106106ff57610100808354040283529160200191610728565b820191905f5260205f20905b81548152906001019060200180831161070b57829003601f168201915b5050505050815250509050919050565b61075283838360405180602001604052805f815250610c16565b505050565b6007546001600160a01b0316331461078257604051631f0853c160e21b815260040160405180910390fd5b5f838152600b602052604090205483906107af576040516303821b4360e51b815260040160405180910390fd5b5f848152600a602052604090206004016107ca838583611b59565b50837f4a9842e32a3df742e6c639db7981f154e80ea30b86751167522406bd4554048084846040516107fd929190611c13565b60405180910390a250505050565b5f61047a82610e0d565b5f6001600160a01b03821661083f576040516322718ad960e21b81525f600482015260240161056a565b506001600160a01b03165f9081526003602052604090205490565b610862610eb8565b61086b5f610ee5565b565b60606001805461048e90611add565b6007546001600160a01b031633146108a757604051631f0853c160e21b815260040160405180910390fd5b5f828152600b602052604090205482906108d4576040516303821b4360e51b815260040160405180910390fd5b5f838152600a60205260409020600201805483919060ff60a81b1916600160a81b8360048111156109075761090761178c565b0217905550827fae6ab14dba929c21c441122e793f394a37a66e40066c4663d81b40b60a31871d8360405161093c9190611c41565b60405180910390a2505050565b6007545f906001600160a01b0316331461097657604051631f0853c160e21b815260040160405180910390fd5b335f8181526009602052604081208054908261099183611c4f565b9091555060408051602081018b90526bffffffffffffffffffffffff19606086901b1691810191909152605481018890526074810182905290915060940160408051601f1981840301815291815281516020928301205f818152600b90935291205490935015610a14576040516305eda54760e31b815260040160405180910390fd5b600880545f9182610a2483611c4f565b919050559050610a348382610f36565b6040518060e001604052808581526020018a8152602001846001600160a01b031681526020018960ff1681526020015f6004811115610a7557610a7561178c565b815260200188815260200187878080601f0160208091040260200160405190810160405280939291908181526020018383808284375f920182905250939094525050868152600a60209081526040918290208451815590840151600182015590830151600282018054606086015160ff16600160a01b026001600160a81b03199091166001600160a01b039093169290921791909117808255608085015192935060ff60a81b1916600160a81b836004811115610b3457610b3461178c565b021790555060a0820151600382015560c08201516004820190610b579082611c73565b5050505f848152600b60209081526040808320849055838352600c9091528082208690555182916001600160a01b0386169187917f169427bf419d0660f1d2b73105f8badb90f0ba5d4f34089ed57a99bf2809578b91a450505095945050505050565b610541338383610f4f565b610bcd610eb8565b6001600160a01b038116610bf45760405163d92e233d60e01b815260040160405180910390fd5b600780546001600160a01b0319166001600160a01b0392909216919091179055565b610c21848484610545565b6105cd3385858585611016565b6060610c3982610e0d565b505f610c4f60408051602081019091525f815290565b90505f815111610c6d5760405180602001604052805f815250610c98565b80610c778461113e565b604051602001610c88929190611d45565b6040516020818303038152906040525b9392505050565b6007546001600160a01b03163314610cca57604051631f0853c160e21b815260040160405180910390fd5b5f828152600b60205260409020548290610cf7576040516303821b4360e51b815260040160405180910390fd5b6001600160a01b038216610d1e5760405163d92e233d60e01b815260040160405180910390fd5b5f838152600a602090815260408083206002810180546001600160a01b038881166001600160a01b0319831617909255600b9094529190932054911690610d668286836111ce565b6040516001600160a01b0386169087907f32c92d2ee23a760a67d5db8600380920f9e316540161a4b14ef4c78841a30af6905f90a3505050505050565b6001600160a01b039182165f90815260056020908152604080832093909416825291909152205460ff1690565b610dd8610eb8565b6001600160a01b038116610e0157604051631e4fbdf760e01b81525f600482015260240161056a565b610e0a81610ee5565b50565b5f818152600260205260408120546001600160a01b03168061047a57604051637e27328960e01b81526004810184905260240161056a565b610752838383600161127b565b5f828152600260205260408120546001600160a01b03168015801590610e8657506007546001600160a01b03848116911614155b15610ea457604051631f0853c160e21b815260040160405180910390fd5b610eaf85858561137f565b95945050505050565b6006546001600160a01b0316331461086b5760405163118cdaa760e01b815233600482015260240161056a565b600680546001600160a01b038381166001600160a01b0319831681179093556040519116919082907f8be0079c531659141344cd1fd0a4f28419497f9722a3daafe3b4186f6b6457e0905f90a35050565b610541828260405180602001604052805f815250611471565b6001600160a01b038316610f785760405163a9fbf51f60e01b81525f600482015260240161056a565b6001600160a01b038216610faa57604051630b61174360e31b81526001600160a01b038316600482015260240161056a565b6001600160a01b038381165f81815260056020908152604080832094871680845294825291829020805460ff191686151590811790915591519182527f17307eab39ab6107e8899845ad3d59bd9653f200f220920489ca2b5937696c31910160405180910390a3505050565b6001600160a01b0383163b1561113757604051630a85bd0160e11b81526001600160a01b0384169063150b7a0290611058908890889087908790600401611d59565b6020604051808303815f875af1925050508015611092575060408051601f3d908101601f1916820190925261108f91810190611d95565b60015b6110f9573d8080156110bf576040519150601f19603f3d011682016040523d82523d5f602084013e6110c4565b606091505b5080515f036110f157604051633250574960e11b81526001600160a01b038516600482015260240161056a565b805160208201fd5b6001600160e01b03198116630a85bd0160e11b1461113557604051633250574960e11b81526001600160a01b038516600482015260240161056a565b505b5050505050565b60605f61114a83611488565b60010190505f8167ffffffffffffffff8111156111695761116961199a565b6040519080825280601f01601f191660200182016040528015611193576020820181803683370190505b5090508181016020015b5f19016f181899199a1a9b1b9c1cb0b131b232b360811b600a86061a8153600a850494508461119d57509392505050565b6001600160a01b0382166111f757604051633250574960e11b81525f600482015260240161056a565b5f61120383835f610e52565b90506001600160a01b03811661122f57604051637e27328960e01b81526004810183905260240161056a565b836001600160a01b0316816001600160a01b0316146105cd576040516364283d7b60e01b81526001600160a01b038086166004830152602482018490528216604482015260640161056a565b808061128f57506001600160a01b03821615155b15611350575f61129e84610e0d565b90506001600160a01b038316158015906112ca5750826001600160a01b0316816001600160a01b031614155b80156112dd57506112db8184610da3565b155b156113065760405163a9fbf51f60e01b81526001600160a01b038416600482015260240161056a565b811561134e5783856001600160a01b0316826001600160a01b03167f8c5be1e5ebec7d5bd14f71427d1e84f3dd0314c0f7b2291e5b200ac8c7c3b92560405160405180910390a45b505b50505f90815260046020526040902080546001600160a01b0319166001600160a01b0392909216919091179055565b5f828152600260205260408120546001600160a01b03908116908316156113ab576113ab81848661155f565b6001600160a01b038116156113e5576113c65f855f8061127b565b6001600160a01b0381165f90815260036020526040902080545f190190555b6001600160a01b03851615611413576001600160a01b0385165f908152600360205260409020805460010190555b5f8481526002602052604080822080546001600160a01b0319166001600160a01b0389811691821790925591518793918516917fddf252ad1be2c89b69c2b068fc378daa952ba7f163c4a11628f55a4df523b3ef91a4949350505050565b61147b83836115c3565b610752335f858585611016565b5f8072184f03e93ff9f4daa797ed6e38ed64bf6a1f0160401b83106114c65772184f03e93ff9f4daa797ed6e38ed64bf6a1f0160401b830492506040015b6d04ee2d6d415b85acef810000000083106114f2576d04ee2d6d415b85acef8100000000830492506020015b662386f26fc10000831061151057662386f26fc10000830492506010015b6305f5e1008310611528576305f5e100830492506008015b612710831061153c57612710830492506004015b6064831061154e576064830492506002015b600a831061047a5760010192915050565b61156a838383611624565b610752576001600160a01b03831661159857604051637e27328960e01b81526004810182905260240161056a565b60405163177e802f60e01b81526001600160a01b03831660048201526024810182905260440161056a565b6001600160a01b0382166115ec57604051633250574960e11b81525f600482015260240161056a565b5f6115f883835f610e52565b90506001600160a01b03811615610752576040516339e3563760e11b81525f600482015260240161056a565b5f6001600160a01b038316158015906116805750826001600160a01b0316846001600160a01b0316148061165d575061165d8484610da3565b8061168057505f828152600460205260409020546001600160a01b038481169116145b949350505050565b6001600160e01b031981168114610e0a575f80fd5b5f602082840312156116ad575f80fd5b8135610c9881611688565b5f81518084528060208401602086015e5f602082860101526020601f19601f83011685010191505092915050565b602081525f610c9860208301846116b8565b5f60208284031215611708575f80fd5b5035919050565b80356001600160a01b0381168114611725575f80fd5b919050565b5f806040838503121561173b575f80fd5b6117448361170f565b946020939093013593505050565b5f805f60608486031215611764575f80fd5b61176d8461170f565b925061177b6020850161170f565b929592945050506040919091013590565b634e487b7160e01b5f52602160045260245ffd5b600581106117bc57634e487b7160e01b5f52602160045260245ffd5b9052565b60208152815160208201526020820151604082015260018060a01b03604083015116606082015260ff60608301511660808201525f608083015161180760a08401826117a0565b5060a083015160c083015260c083015160e0808401526116806101008401826116b8565b5f8083601f84011261183b575f80fd5b50813567ffffffffffffffff811115611852575f80fd5b602083019150836020828501011115611869575f80fd5b9250929050565b5f805f60408486031215611882575f80fd5b83359250602084013567ffffffffffffffff81111561189f575f80fd5b6118ab8682870161182b565b9497909650939450505050565b5f602082840312156118c8575f80fd5b610c988261170f565b5f80604083850312156118e2575f80fd5b823591506020830135600581106118f7575f80fd5b809150509250929050565b5f805f805f60808688031215611916575f80fd5b85359450602086013560ff8116811461192d575f80fd5b935060408601359250606086013567ffffffffffffffff81111561194f575f80fd5b61195b8882890161182b565b969995985093965092949392505050565b5f806040838503121561197d575f80fd5b6119868361170f565b9150602083013580151581146118f7575f80fd5b634e487b7160e01b5f52604160045260245ffd5b5f805f80608085870312156119c1575f80fd5b6119ca8561170f565b93506119d86020860161170f565b925060408501359150606085013567ffffffffffffffff8111156119fa575f80fd5b8501601f81018713611a0a575f80fd5b803567ffffffffffffffff811115611a2457611a2461199a565b604051601f8201601f19908116603f0116810167ffffffffffffffff81118282101715611a5357611a5361199a565b604052818152828201602001891015611a6a575f80fd5b816020840160208301375f6020838301015280935050505092959194509250565b5f8060408385031215611a9c575f80fd5b82359150611aac6020840161170f565b90509250929050565b5f8060408385031215611ac6575f80fd5b611acf8361170f565b9150611aac6020840161170f565b600181811c90821680611af157607f821691505b602082108103611b0f57634e487b7160e01b5f52602260045260245ffd5b50919050565b601f82111561075257805f5260205f20601f840160051c81016020851015611b3a5750805b601f840160051c820191505b81811015611137575f8155600101611b46565b67ffffffffffffffff831115611b7157611b7161199a565b611b8583611b7f8354611add565b83611b15565b5f601f841160018114611bb6575f8515611b9f5750838201355b5f19600387901b1c1916600186901b178355611137565b5f83815260208120601f198716915b82811015611be55786850135825560209485019460019092019101611bc5565b5086821015611c01575f1960f88860031b161c19848701351681555b505060018560011b0183555050505050565b60208152816020820152818360408301375f818301604090810191909152601f909201601f19160101919050565b6020810161047a82846117a0565b5f60018201611c6c57634e487b7160e01b5f52601160045260245ffd5b5060010190565b815167ffffffffffffffff811115611c8d57611c8d61199a565b611ca181611c9b8454611add565b84611b15565b6020601f821160018114611cd3575f8315611cbc5750848201515b5f19600385901b1c1916600184901b178455611137565b5f84815260208120601f198516915b82811015611d025787850151825560209485019460019092019101611ce2565b5084821015611d1f57868401515f19600387901b60f8161c191681555b50505050600190811b01905550565b5f81518060208401855e5f93019283525090919050565b5f611680611d538386611d2e565b84611d2e565b6001600160a01b03858116825284166020820152604081018390526080606082018190525f90611d8b908301846116b8565b9695505050505050565b5f60208284031215611da5575f80fd5b8151610c988161168856fea2646970667358221220ed3955ff3e02c75658525a2f2b8e1a195c9df5703ece43889b8aa4cc0827d0c164736f6c634300081a0033","opcodes":"PUSH1 0x80 PUSH1 0x40 MSTORE PUSH1 0x1 PUSH1 0x8 SSTORE CALLVALUE DUP1 ISZERO PUSH2 0x14 JUMPI PUSH0 DUP1 REVERT JUMPDEST POP CALLER PUSH1 0x40 MLOAD DUP1 PUSH1 0x40 ADD PUSH1 0x40 MSTORE DUP1 PUSH1 0x19 DUP2 MSTORE PUSH1 0x20 ADD PUSH32 0x4E6F646553746179204D616368696E6520526567697374727900000000000000 DUP2 MSTORE POP PUSH1 0x40 MLOAD DUP1 PUSH1 0x40 ADD PUSH1 0x40 MSTORE DUP1 PUSH1 0x3 DUP2 MSTORE PUSH1 0x20 ADD PUSH3 0x4E534D PUSH1 0xE8 SHL DUP2 MSTORE POP DUP2 PUSH0 SWAP1 DUP2 PUSH2 0x76 SWAP2 SWAP1 PUSH2 0x1AB JUMP JUMPDEST POP PUSH1 0x1 PUSH2 0x83 DUP3 DUP3 PUSH2 0x1AB JUMP JUMPDEST POP POP POP PUSH1 0x1 PUSH1 0x1 PUSH1 0xA0 SHL SUB DUP2 AND PUSH2 0xB3 JUMPI PUSH1 0x40 MLOAD PUSH4 0x1E4FBDF7 PUSH1 0xE0 SHL DUP2 MSTORE PUSH0 PUSH1 0x4 DUP3 ADD MSTORE PUSH1 0x24 ADD PUSH1 0x40 MLOAD DUP1 SWAP2 SUB SWAP1 REVERT JUMPDEST PUSH2 0xBC DUP2 PUSH2 0xC2 JUMP JUMPDEST POP PUSH2 0x265 JUMP JUMPDEST PUSH1 0x6 DUP1 SLOAD PUSH1 0x1 PUSH1 0x1 PUSH1 0xA0 SHL SUB DUP4 DUP2 AND PUSH1 0x1 PUSH1 0x1 PUSH1 0xA0 SHL SUB NOT DUP4 AND DUP2 OR SWAP1 SWAP4 SSTORE PUSH1 0x40 MLOAD SWAP2 AND SWAP2 SWAP1 DUP3 SWAP1 PUSH32 0x8BE0079C531659141344CD1FD0A4F28419497F9722A3DAAFE3B4186F6B6457E0 SWAP1 PUSH0 SWAP1 LOG3 POP POP JUMP JUMPDEST PUSH4 0x4E487B71 PUSH1 0xE0 SHL PUSH0 MSTORE PUSH1 0x41 PUSH1 0x4 MSTORE PUSH1 0x24 PUSH0 REVERT JUMPDEST PUSH1 0x1 DUP2 DUP2 SHR SWAP1 DUP3 AND DUP1 PUSH2 0x13B JUMPI PUSH1 0x7F DUP3 AND SWAP2 POP JUMPDEST PUSH1 0x20 DUP3 LT DUP2 SUB PUSH2 0x159 JUMPI PUSH4 0x4E487B71 PUSH1 0xE0 SHL PUSH0 MSTORE PUSH1 0x22 PUSH1 0x4 MSTORE PUSH1 0x24 PUSH0 REVERT JUMPDEST POP SWAP2 SWAP1 POP JUMP JUMPDEST PUSH1 0x1F DUP3 GT ISZERO PUSH2 0x1A6 JUMPI DUP1 PUSH0 MSTORE PUSH1 0x20 PUSH0 KECCAK256 PUSH1 0x1F DUP5 ADD PUSH1 0x5 SHR DUP2 ADD PUSH1 0x20 DUP6 LT ISZERO PUSH2 0x184 JUMPI POP DUP1 JUMPDEST PUSH1 0x1F DUP5 ADD PUSH1 0x5 SHR DUP3 ADD SWAP2 POP JUMPDEST DUP2 DUP2 LT ISZERO PUSH2 0x1A3 JUMPI PUSH0 DUP2 SSTORE PUSH1 0x1 ADD PUSH2 0x190 JUMP JUMPDEST POP POP JUMPDEST POP POP POP JUMP JUMPDEST DUP2 MLOAD PUSH1 0x1 PUSH1 0x1 PUSH1 0x40 SHL SUB DUP2 GT ISZERO PUSH2 0x1C4 JUMPI PUSH2 0x1C4 PUSH2 0x113 JUMP JUMPDEST PUSH2 0x1D8 DUP2 PUSH2 0x1D2 DUP5 SLOAD PUSH2 0x127 JUMP JUMPDEST DUP5 PUSH2 0x15F JUMP JUMPDEST PUSH1 0x20 PUSH1 0x1F DUP3 GT PUSH1 0x1 DUP2 EQ PUSH2 0x20A JUMPI PUSH0 DUP4 ISZERO PUSH2 0x1F3 JUMPI POP DUP5 DUP3 ADD MLOAD JUMPDEST PUSH0 NOT PUSH1 0x3 DUP6 SWAP1 SHL SHR NOT AND PUSH1 0x1 DUP5 SWAP1 SHL OR DUP5 SSTORE PUSH2 0x1A3 JUMP JUMPDEST PUSH0 DUP5 DUP2 MSTORE PUSH1 0x20 DUP2 KECCAK256 PUSH1 0x1F NOT DUP6 AND SWAP2 JUMPDEST DUP3 DUP2 LT ISZERO PUSH2 0x239 JUMPI DUP8 DUP6 ADD MLOAD DUP3 SSTORE PUSH1 0x20 SWAP5 DUP6 ADD SWAP5 PUSH1 0x1 SWAP1 SWAP3 ADD SWAP2 ADD PUSH2 0x219 JUMP JUMPDEST POP DUP5 DUP3 LT ISZERO PUSH2 0x256 JUMPI DUP7 DUP5 ADD MLOAD PUSH0 NOT PUSH1 0x3 DUP8 SWAP1 SHL PUSH1 0xF8 AND SHR NOT AND DUP2 SSTORE JUMPDEST POP POP POP POP PUSH1 0x1 SWAP1 DUP2 SHL ADD SWAP1 SSTORE POP JUMP JUMPDEST PUSH2 0x1DE6 DUP1 PUSH2 0x272 PUSH0 CODECOPY PUSH0 RETURN INVALID PUSH1 0x80 PUSH1 0x40 MSTORE CALLVALUE DUP1 ISZERO PUSH2 0xF JUMPI PUSH0 DUP1 REVERT JUMPDEST POP PUSH1 0x4 CALLDATASIZE LT PUSH2 0x1BB JUMPI PUSH0 CALLDATALOAD PUSH1 0xE0 SHR DUP1 PUSH4 0x7C360A1D GT PUSH2 0xF3 JUMPI DUP1 PUSH4 0xA22CB465 GT PUSH2 0x93 JUMPI DUP1 PUSH4 0xC87B56DD GT PUSH2 0x6E JUMPI DUP1 PUSH4 0xC87B56DD EQ PUSH2 0x3E3 JUMPI DUP1 PUSH4 0xCA418FFD EQ PUSH2 0x3F6 JUMPI DUP1 PUSH4 0xE985E9C5 EQ PUSH2 0x409 JUMPI DUP1 PUSH4 0xF2FDE38B EQ PUSH2 0x41C JUMPI PUSH0 DUP1 REVERT JUMPDEST DUP1 PUSH4 0xA22CB465 EQ PUSH2 0x3AA JUMPI DUP1 PUSH4 0xB3AB15FB EQ PUSH2 0x3BD JUMPI DUP1 PUSH4 0xB88D4FDE EQ PUSH2 0x3D0 JUMPI PUSH0 DUP1 REVERT JUMPDEST DUP1 PUSH4 0x98B206F3 GT PUSH2 0xCE JUMPI DUP1 PUSH4 0x98B206F3 EQ PUSH2 0x346 JUMPI DUP1 PUSH4 0x9CBEC42D EQ PUSH2 0x359 JUMPI DUP1 PUSH4 0x9CF1F5CA EQ PUSH2 0x36C JUMPI DUP1 PUSH4 0x9DC8CAD0 EQ PUSH2 0x38B JUMPI PUSH0 DUP1 REVERT JUMPDEST DUP1 PUSH4 0x7C360A1D EQ PUSH2 0x30E JUMPI DUP1 PUSH4 0x8DA5CB5B EQ PUSH2 0x32D JUMPI DUP1 PUSH4 0x95D89B41 EQ PUSH2 0x33E JUMPI PUSH0 DUP1 REVERT JUMPDEST DUP1 PUSH4 0x42842E0E GT PUSH2 0x15E JUMPI DUP1 PUSH4 0x6352211E GT PUSH2 0x139 JUMPI DUP1 PUSH4 0x6352211E EQ PUSH2 0x2C9 JUMPI DUP1 PUSH4 0x70A08231 EQ PUSH2 0x2DC JUMPI DUP1 PUSH4 0x715018A6 EQ PUSH2 0x2FD JUMPI DUP1 PUSH4 0x75794A3C EQ PUSH2 0x305 JUMPI PUSH0 DUP1 REVERT JUMPDEST DUP1 PUSH4 0x42842E0E EQ PUSH2 0x290 JUMPI DUP1 PUSH4 0x43FE547A EQ PUSH2 0x2A3 JUMPI DUP1 PUSH4 0x570CA735 EQ PUSH2 0x2B6 JUMPI PUSH0 DUP1 REVERT JUMPDEST DUP1 PUSH4 0x95EA7B3 GT PUSH2 0x199 JUMPI DUP1 PUSH4 0x95EA7B3 EQ PUSH2 0x227 JUMPI DUP1 PUSH4 0x23B872DD EQ PUSH2 0x23C JUMPI DUP1 PUSH4 0x2ABE120E EQ PUSH2 0x24F JUMPI DUP1 PUSH4 0x38A699A4 EQ PUSH2 0x26F JUMPI PUSH0 DUP1 REVERT JUMPDEST DUP1 PUSH4 0x1FFC9A7 EQ PUSH2 0x1BF JUMPI DUP1 PUSH4 0x6FDDE03 EQ PUSH2 0x1E7 JUMPI DUP1 PUSH4 0x81812FC EQ PUSH2 0x1FC JUMPI JUMPDEST PUSH0 DUP1 REVERT JUMPDEST PUSH2 0x1D2 PUSH2 0x1CD CALLDATASIZE PUSH1 0x4 PUSH2 0x169D JUMP JUMPDEST PUSH2 0x42F JUMP JUMPDEST PUSH1 0x40 MLOAD SWAP1 ISZERO ISZERO DUP2 MSTORE PUSH1 0x20 ADD JUMPDEST PUSH1 0x40 MLOAD DUP1 SWAP2 SUB SWAP1 RETURN JUMPDEST PUSH2 0x1EF PUSH2 0x480 JUMP JUMPDEST PUSH1 0x40 MLOAD PUSH2 0x1DE SWAP2 SWAP1 PUSH2 0x16E6 JUMP JUMPDEST PUSH2 0x20F PUSH2 0x20A CALLDATASIZE PUSH1 0x4 PUSH2 0x16F8 JUMP JUMPDEST PUSH2 0x50F JUMP JUMPDEST PUSH1 0x40 MLOAD PUSH1 0x1 PUSH1 0x1 PUSH1 0xA0 SHL SUB SWAP1 SWAP2 AND DUP2 MSTORE PUSH1 0x20 ADD PUSH2 0x1DE JUMP JUMPDEST PUSH2 0x23A PUSH2 0x235 CALLDATASIZE PUSH1 0x4 PUSH2 0x172A JUMP JUMPDEST PUSH2 0x536 JUMP JUMPDEST STOP JUMPDEST PUSH2 0x23A PUSH2 0x24A CALLDATASIZE PUSH1 0x4 PUSH2 0x1752 JUMP JUMPDEST PUSH2 0x545 JUMP JUMPDEST PUSH2 0x262 PUSH2 0x25D CALLDATASIZE PUSH1 0x4 PUSH2 0x16F8 JUMP JUMPDEST PUSH2 0x5D3 JUMP JUMPDEST PUSH1 0x40 MLOAD PUSH2 0x1DE SWAP2 SWAP1 PUSH2 0x17C0 JUMP JUMPDEST PUSH2 0x1D2 PUSH2 0x27D CALLDATASIZE PUSH1 0x4 PUSH2 0x16F8 JUMP JUMPDEST PUSH0 SWAP1 DUP2 MSTORE PUSH1 0xB PUSH1 0x20 MSTORE PUSH1 0x40 SWAP1 KECCAK256 SLOAD ISZERO ISZERO SWAP1 JUMP JUMPDEST PUSH2 0x23A PUSH2 0x29E CALLDATASIZE PUSH1 0x4 PUSH2 0x1752 JUMP JUMPDEST PUSH2 0x738 JUMP JUMPDEST PUSH2 0x23A PUSH2 0x2B1 CALLDATASIZE PUSH1 0x4 PUSH2 0x1870 JUMP JUMPDEST PUSH2 0x757 JUMP JUMPDEST PUSH1 0x7 SLOAD PUSH2 0x20F SWAP1 PUSH1 0x1 PUSH1 0x1 PUSH1 0xA0 SHL SUB AND DUP2 JUMP JUMPDEST PUSH2 0x20F PUSH2 0x2D7 CALLDATASIZE PUSH1 0x4 PUSH2 0x16F8 JUMP JUMPDEST PUSH2 0x80B JUMP JUMPDEST PUSH2 0x2EF PUSH2 0x2EA CALLDATASIZE PUSH1 0x4 PUSH2 0x18B8 JUMP JUMPDEST PUSH2 0x815 JUMP JUMPDEST PUSH1 0x40 MLOAD SWAP1 DUP2 MSTORE PUSH1 0x20 ADD PUSH2 0x1DE JUMP JUMPDEST PUSH2 0x23A PUSH2 0x85A JUMP JUMPDEST PUSH2 0x2EF PUSH1 0x8 SLOAD DUP2 JUMP JUMPDEST PUSH2 0x2EF PUSH2 0x31C CALLDATASIZE PUSH1 0x4 PUSH2 0x18B8 JUMP JUMPDEST PUSH1 0x9 PUSH1 0x20 MSTORE PUSH0 SWAP1 DUP2 MSTORE PUSH1 0x40 SWAP1 KECCAK256 SLOAD DUP2 JUMP JUMPDEST PUSH1 0x6 SLOAD PUSH1 0x1 PUSH1 0x1 PUSH1 0xA0 SHL SUB AND PUSH2 0x20F JUMP JUMPDEST PUSH2 0x1EF PUSH2 0x86D JUMP JUMPDEST PUSH2 0x23A PUSH2 0x354 CALLDATASIZE PUSH1 0x4 PUSH2 0x18D1 JUMP JUMPDEST PUSH2 0x87C JUMP JUMPDEST PUSH2 0x2EF PUSH2 0x367 CALLDATASIZE PUSH1 0x4 PUSH2 0x1902 JUMP JUMPDEST PUSH2 0x949 JUMP JUMPDEST PUSH2 0x2EF PUSH2 0x37A CALLDATASIZE PUSH1 0x4 PUSH2 0x16F8 JUMP JUMPDEST PUSH0 SWAP1 DUP2 MSTORE PUSH1 0xC PUSH1 0x20 MSTORE PUSH1 0x40 SWAP1 KECCAK256 SLOAD SWAP1 JUMP JUMPDEST PUSH2 0x2EF PUSH2 0x399 CALLDATASIZE PUSH1 0x4 PUSH2 0x16F8 JUMP JUMPDEST PUSH0 SWAP1 DUP2 MSTORE PUSH1 0xB PUSH1 0x20 MSTORE PUSH1 0x40 SWAP1 KECCAK256 SLOAD SWAP1 JUMP JUMPDEST PUSH2 0x23A PUSH2 0x3B8 CALLDATASIZE PUSH1 0x4 PUSH2 0x196C JUMP JUMPDEST PUSH2 0xBBA JUMP JUMPDEST PUSH2 0x23A PUSH2 0x3CB CALLDATASIZE PUSH1 0x4 PUSH2 0x18B8 JUMP JUMPDEST PUSH2 0xBC5 JUMP JUMPDEST PUSH2 0x23A PUSH2 0x3DE CALLDATASIZE PUSH1 0x4 PUSH2 0x19AE JUMP JUMPDEST PUSH2 0xC16 JUMP JUMPDEST PUSH2 0x1EF PUSH2 0x3F1 CALLDATASIZE PUSH1 0x4 PUSH2 0x16F8 JUMP JUMPDEST PUSH2 0xC2E JUMP JUMPDEST PUSH2 0x23A PUSH2 0x404 CALLDATASIZE PUSH1 0x4 PUSH2 0x1A8B JUMP JUMPDEST PUSH2 0xC9F JUMP JUMPDEST PUSH2 0x1D2 PUSH2 0x417 CALLDATASIZE PUSH1 0x4 PUSH2 0x1AB5 JUMP JUMPDEST PUSH2 0xDA3 JUMP JUMPDEST PUSH2 0x23A PUSH2 0x42A CALLDATASIZE PUSH1 0x4 PUSH2 0x18B8 JUMP JUMPDEST PUSH2 0xDD0 JUMP JUMPDEST PUSH0 PUSH1 0x1 PUSH1 0x1 PUSH1 0xE0 SHL SUB NOT DUP3 AND PUSH4 0x80AC58CD PUSH1 0xE0 SHL EQ DUP1 PUSH2 0x45F JUMPI POP PUSH1 0x1 PUSH1 0x1 PUSH1 0xE0 SHL SUB NOT DUP3 AND PUSH4 0x5B5E139F PUSH1 0xE0 SHL EQ JUMPDEST DUP1 PUSH2 0x47A JUMPI POP PUSH4 0x1FFC9A7 PUSH1 0xE0 SHL PUSH1 0x1 PUSH1 0x1 PUSH1 0xE0 SHL SUB NOT DUP4 AND EQ JUMPDEST SWAP3 SWAP2 POP POP JUMP JUMPDEST PUSH1 0x60 PUSH0 DUP1 SLOAD PUSH2 0x48E SWAP1 PUSH2 0x1ADD JUMP JUMPDEST DUP1 PUSH1 0x1F ADD PUSH1 0x20 DUP1 SWAP2 DIV MUL PUSH1 0x20 ADD PUSH1 0x40 MLOAD SWAP1 DUP2 ADD PUSH1 0x40 MSTORE DUP1 SWAP3 SWAP2 SWAP1 DUP2 DUP2 MSTORE PUSH1 0x20 ADD DUP3 DUP1 SLOAD PUSH2 0x4BA SWAP1 PUSH2 0x1ADD JUMP JUMPDEST DUP1 ISZERO PUSH2 0x505 JUMPI DUP1 PUSH1 0x1F LT PUSH2 0x4DC JUMPI PUSH2 0x100 DUP1 DUP4 SLOAD DIV MUL DUP4 MSTORE SWAP2 PUSH1 0x20 ADD SWAP2 PUSH2 0x505 JUMP JUMPDEST DUP3 ADD SWAP2 SWAP1 PUSH0 MSTORE PUSH1 0x20 PUSH0 KECCAK256 SWAP1 JUMPDEST DUP2 SLOAD DUP2 MSTORE SWAP1 PUSH1 0x1 ADD SWAP1 PUSH1 0x20 ADD DUP1 DUP4 GT PUSH2 0x4E8 JUMPI DUP3 SWAP1 SUB PUSH1 0x1F AND DUP3 ADD SWAP2 JUMPDEST POP POP POP POP POP SWAP1 POP SWAP1 JUMP JUMPDEST PUSH0 PUSH2 0x519 DUP3 PUSH2 0xE0D JUMP JUMPDEST POP PUSH0 DUP3 DUP2 MSTORE PUSH1 0x4 PUSH1 0x20 MSTORE PUSH1 0x40 SWAP1 KECCAK256 SLOAD PUSH1 0x1 PUSH1 0x1 PUSH1 0xA0 SHL SUB AND PUSH2 0x47A JUMP JUMPDEST PUSH2 0x541 DUP3 DUP3 CALLER PUSH2 0xE45 JUMP JUMPDEST POP POP JUMP JUMPDEST PUSH1 0x1 PUSH1 0x1 PUSH1 0xA0 SHL SUB DUP3 AND PUSH2 0x573 JUMPI PUSH1 0x40 MLOAD PUSH4 0x32505749 PUSH1 0xE1 SHL DUP2 MSTORE PUSH0 PUSH1 0x4 DUP3 ADD MSTORE PUSH1 0x24 ADD JUMPDEST PUSH1 0x40 MLOAD DUP1 SWAP2 SUB SWAP1 REVERT JUMPDEST PUSH0 PUSH2 0x57F DUP4 DUP4 CALLER PUSH2 0xE52 JUMP JUMPDEST SWAP1 POP DUP4 PUSH1 0x1 PUSH1 0x1 PUSH1 0xA0 SHL SUB AND DUP2 PUSH1 0x1 PUSH1 0x1 PUSH1 0xA0 SHL SUB AND EQ PUSH2 0x5CD JUMPI PUSH1 0x40 MLOAD PUSH4 0x64283D7B PUSH1 0xE0 SHL DUP2 MSTORE PUSH1 0x1 PUSH1 0x1 PUSH1 0xA0 SHL SUB DUP1 DUP7 AND PUSH1 0x4 DUP4 ADD MSTORE PUSH1 0x24 DUP3 ADD DUP5 SWAP1 MSTORE DUP3 AND PUSH1 0x44 DUP3 ADD MSTORE PUSH1 0x64 ADD PUSH2 0x56A JUMP JUMPDEST POP POP POP POP JUMP JUMPDEST PUSH2 0x611 PUSH1 0x40 DUP1 MLOAD PUSH1 0xE0 DUP2 ADD DUP3 MSTORE PUSH0 DUP1 DUP3 MSTORE PUSH1 0x20 DUP3 ADD DUP2 SWAP1 MSTORE SWAP2 DUP2 ADD DUP3 SWAP1 MSTORE PUSH1 0x60 DUP2 ADD DUP3 SWAP1 MSTORE SWAP1 PUSH1 0x80 DUP3 ADD SWAP1 DUP2 MSTORE PUSH0 PUSH1 0x20 DUP3 ADD MSTORE PUSH1 0x60 PUSH1 0x40 SWAP1 SWAP2 ADD MSTORE SWAP1 JUMP JUMPDEST PUSH0 DUP3 DUP2 MSTORE PUSH1 0xA PUSH1 0x20 SWAP1 DUP2 MSTORE PUSH1 0x40 SWAP2 DUP3 SWAP1 KECCAK256 DUP3 MLOAD PUSH1 0xE0 DUP2 ADD DUP5 MSTORE DUP2 SLOAD DUP2 MSTORE PUSH1 0x1 DUP3 ADD SLOAD SWAP3 DUP2 ADD SWAP3 SWAP1 SWAP3 MSTORE PUSH1 0x2 DUP2 ADD SLOAD PUSH1 0x1 PUSH1 0x1 PUSH1 0xA0 SHL SUB DUP2 AND SWAP4 DUP4 ADD SWAP4 SWAP1 SWAP4 MSTORE PUSH1 0xFF PUSH1 0x1 PUSH1 0xA0 SHL DUP5 DIV DUP2 AND PUSH1 0x60 DUP5 ADD MSTORE SWAP2 SWAP3 SWAP1 SWAP2 PUSH1 0x80 DUP5 ADD SWAP2 PUSH1 0x1 PUSH1 0xA8 SHL SWAP1 DIV AND PUSH1 0x4 DUP2 GT ISZERO PUSH2 0x682 JUMPI PUSH2 0x682 PUSH2 0x178C JUMP JUMPDEST PUSH1 0x4 DUP2 GT ISZERO PUSH2 0x693 JUMPI PUSH2 0x693 PUSH2 0x178C JUMP JUMPDEST DUP2 MSTORE PUSH1 0x20 ADD PUSH1 0x3 DUP3 ADD SLOAD DUP2 MSTORE PUSH1 0x20 ADD PUSH1 0x4 DUP3 ADD DUP1 SLOAD PUSH2 0x6B1 SWAP1 PUSH2 0x1ADD JUMP JUMPDEST DUP1 PUSH1 0x1F ADD PUSH1 0x20 DUP1 SWAP2 DIV MUL PUSH1 0x20 ADD PUSH1 0x40 MLOAD SWAP1 DUP2 ADD PUSH1 0x40 MSTORE DUP1 SWAP3 SWAP2 SWAP1 DUP2 DUP2 MSTORE PUSH1 0x20 ADD DUP3 DUP1 SLOAD PUSH2 0x6DD SWAP1 PUSH2 0x1ADD JUMP JUMPDEST DUP1 ISZERO PUSH2 0x728 JUMPI DUP1 PUSH1 0x1F LT PUSH2 0x6FF JUMPI PUSH2 0x100 DUP1 DUP4 SLOAD DIV MUL DUP4 MSTORE SWAP2 PUSH1 0x20 ADD SWAP2 PUSH2 0x728 JUMP JUMPDEST DUP3 ADD SWAP2 SWAP1 PUSH0 MSTORE PUSH1 0x20 PUSH0 KECCAK256 SWAP1 JUMPDEST DUP2 SLOAD DUP2 MSTORE SWAP1 PUSH1 0x1 ADD SWAP1 PUSH1 0x20 ADD DUP1 DUP4 GT PUSH2 0x70B JUMPI DUP3 SWAP1 SUB PUSH1 0x1F AND DUP3 ADD SWAP2 JUMPDEST POP POP POP POP POP DUP2 MSTORE POP POP SWAP1 POP SWAP2 SWAP1 POP JUMP JUMPDEST PUSH2 0x752 DUP4 DUP4 DUP4 PUSH1 0x40 MLOAD DUP1 PUSH1 0x20 ADD PUSH1 0x40 MSTORE DUP1 PUSH0 DUP2 MSTORE POP PUSH2 0xC16 JUMP JUMPDEST POP POP POP JUMP JUMPDEST PUSH1 0x7 SLOAD PUSH1 0x1 PUSH1 0x1 PUSH1 0xA0 SHL SUB AND CALLER EQ PUSH2 0x782 JUMPI PUSH1 0x40 MLOAD PUSH4 0x1F0853C1 PUSH1 0xE2 SHL DUP2 MSTORE PUSH1 0x4 ADD PUSH1 0x40 MLOAD DUP1 SWAP2 SUB SWAP1 REVERT JUMPDEST PUSH0 DUP4 DUP2 MSTORE PUSH1 0xB PUSH1 0x20 MSTORE PUSH1 0x40 SWAP1 KECCAK256 SLOAD DUP4 SWAP1 PUSH2 0x7AF JUMPI PUSH1 0x40 MLOAD PUSH4 0x3821B43 PUSH1 0xE5 SHL DUP2 MSTORE PUSH1 0x4 ADD PUSH1 0x40 MLOAD DUP1 SWAP2 SUB SWAP1 REVERT JUMPDEST PUSH0 DUP5 DUP2 MSTORE PUSH1 0xA PUSH1 0x20 MSTORE PUSH1 0x40 SWAP1 KECCAK256 PUSH1 0x4 ADD PUSH2 0x7CA DUP4 DUP6 DUP4 PUSH2 0x1B59 JUMP JUMPDEST POP DUP4 PUSH32 0x4A9842E32A3DF742E6C639DB7981F154E80EA30B86751167522406BD45540480 DUP5 DUP5 PUSH1 0x40 MLOAD PUSH2 0x7FD SWAP3 SWAP2 SWAP1 PUSH2 0x1C13 JUMP JUMPDEST PUSH1 0x40 MLOAD DUP1 SWAP2 SUB SWAP1 LOG2 POP POP POP POP JUMP JUMPDEST PUSH0 PUSH2 0x47A DUP3 PUSH2 0xE0D JUMP JUMPDEST PUSH0 PUSH1 0x1 PUSH1 0x1 PUSH1 0xA0 SHL SUB DUP3 AND PUSH2 0x83F JUMPI PUSH1 0x40 MLOAD PUSH4 0x22718AD9 PUSH1 0xE2 SHL DUP2 MSTORE PUSH0 PUSH1 0x4 DUP3 ADD MSTORE PUSH1 0x24 ADD PUSH2 0x56A JUMP JUMPDEST POP PUSH1 0x1 PUSH1 0x1 PUSH1 0xA0 SHL SUB AND PUSH0 SWAP1 DUP2 MSTORE PUSH1 0x3 PUSH1 0x20 MSTORE PUSH1 0x40 SWAP1 KECCAK256 SLOAD SWAP1 JUMP JUMPDEST PUSH2 0x862 PUSH2 0xEB8 JUMP JUMPDEST PUSH2 0x86B PUSH0 PUSH2 0xEE5 JUMP JUMPDEST JUMP JUMPDEST PUSH1 0x60 PUSH1 0x1 DUP1 SLOAD PUSH2 0x48E SWAP1 PUSH2 0x1ADD JUMP JUMPDEST PUSH1 0x7 SLOAD PUSH1 0x1 PUSH1 0x1 PUSH1 0xA0 SHL SUB AND CALLER EQ PUSH2 0x8A7 JUMPI PUSH1 0x40 MLOAD PUSH4 0x1F0853C1 PUSH1 0xE2 SHL DUP2 MSTORE PUSH1 0x4 ADD PUSH1 0x40 MLOAD DUP1 SWAP2 SUB SWAP1 REVERT JUMPDEST PUSH0 DUP3 DUP2 MSTORE PUSH1 0xB PUSH1 0x20 MSTORE PUSH1 0x40 SWAP1 KECCAK256 SLOAD DUP3 SWAP1 PUSH2 0x8D4 JUMPI PUSH1 0x40 MLOAD PUSH4 0x3821B43 PUSH1 0xE5 SHL DUP2 MSTORE PUSH1 0x4 ADD PUSH1 0x40 MLOAD DUP1 SWAP2 SUB SWAP1 REVERT JUMPDEST PUSH0 DUP4 DUP2 MSTORE PUSH1 0xA PUSH1 0x20 MSTORE PUSH1 0x40 SWAP1 KECCAK256 PUSH1 0x2 ADD DUP1 SLOAD DUP4 SWAP2 SWAP1 PUSH1 0xFF PUSH1 0xA8 SHL NOT AND PUSH1 0x1 PUSH1 0xA8 SHL DUP4 PUSH1 0x4 DUP2 GT ISZERO PUSH2 0x907 JUMPI PUSH2 0x907 PUSH2 0x178C JUMP JUMPDEST MUL OR SWAP1 SSTORE POP DUP3 PUSH32 0xAE6AB14DBA929C21C441122E793F394A37A66E40066C4663D81B40B60A31871D DUP4 PUSH1 0x40 MLOAD PUSH2 0x93C SWAP2 SWAP1 PUSH2 0x1C41 JUMP JUMPDEST PUSH1 0x40 MLOAD DUP1 SWAP2 SUB SWAP1 LOG2 POP POP POP JUMP JUMPDEST PUSH1 0x7 SLOAD PUSH0 SWAP1 PUSH1 0x1 PUSH1 0x1 PUSH1 0xA0 SHL SUB AND CALLER EQ PUSH2 0x976 JUMPI PUSH1 0x40 MLOAD PUSH4 0x1F0853C1 PUSH1 0xE2 SHL DUP2 MSTORE PUSH1 0x4 ADD PUSH1 0x40 MLOAD DUP1 SWAP2 SUB SWAP1 REVERT JUMPDEST CALLER PUSH0 DUP2 DUP2 MSTORE PUSH1 0x9 PUSH1 0x20 MSTORE PUSH1 0x40 DUP2 KECCAK256 DUP1 SLOAD SWAP1 DUP3 PUSH2 0x991 DUP4 PUSH2 0x1C4F JUMP JUMPDEST SWAP1 SWAP2 SSTORE POP PUSH1 0x40 DUP1 MLOAD PUSH1 0x20 DUP2 ADD DUP12 SWAP1 MSTORE PUSH12 0xFFFFFFFFFFFFFFFFFFFFFFFF NOT PUSH1 0x60 DUP7 SWAP1 SHL AND SWAP2 DUP2 ADD SWAP2 SWAP1 SWAP2 MSTORE PUSH1 0x54 DUP2 ADD DUP9 SWAP1 MSTORE PUSH1 0x74 DUP2 ADD DUP3 SWAP1 MSTORE SWAP1 SWAP2 POP PUSH1 0x94 ADD PUSH1 0x40 DUP1 MLOAD PUSH1 0x1F NOT DUP2 DUP5 SUB ADD DUP2 MSTORE SWAP2 DUP2 MSTORE DUP2 MLOAD PUSH1 0x20 SWAP3 DUP4 ADD KECCAK256 PUSH0 DUP2 DUP2 MSTORE PUSH1 0xB SWAP1 SWAP4 MSTORE SWAP2 KECCAK256 SLOAD SWAP1 SWAP4 POP ISZERO PUSH2 0xA14 JUMPI PUSH1 0x40 MLOAD PUSH4 0x5EDA547 PUSH1 0xE3 SHL DUP2 MSTORE PUSH1 0x4 ADD PUSH1 0x40 MLOAD DUP1 SWAP2 SUB SWAP1 REVERT JUMPDEST PUSH1 0x8 DUP1 SLOAD PUSH0 SWAP2 DUP3 PUSH2 0xA24 DUP4 PUSH2 0x1C4F JUMP JUMPDEST SWAP2 SWAP1 POP SSTORE SWAP1 POP PUSH2 0xA34 DUP4 DUP3 PUSH2 0xF36 JUMP JUMPDEST PUSH1 0x40 MLOAD DUP1 PUSH1 0xE0 ADD PUSH1 0x40 MSTORE DUP1 DUP6 DUP2 MSTORE PUSH1 0x20 ADD DUP11 DUP2 MSTORE PUSH1 0x20 ADD DUP5 PUSH1 0x1 PUSH1 0x1 PUSH1 0xA0 SHL SUB AND DUP2 MSTORE PUSH1 0x20 ADD DUP10 PUSH1 0xFF AND DUP2 MSTORE PUSH1 0x20 ADD PUSH0 PUSH1 0x4 DUP2 GT ISZERO PUSH2 0xA75 JUMPI PUSH2 0xA75 PUSH2 0x178C JUMP JUMPDEST DUP2 MSTORE PUSH1 0x20 ADD DUP9 DUP2 MSTORE PUSH1 0x20 ADD DUP8 DUP8 DUP1 DUP1 PUSH1 0x1F ADD PUSH1 0x20 DUP1 SWAP2 DIV MUL PUSH1 0x20 ADD PUSH1 0x40 MLOAD SWAP1 DUP2 ADD PUSH1 0x40 MSTORE DUP1 SWAP4 SWAP3 SWAP2 SWAP1 DUP2 DUP2 MSTORE PUSH1 0x20 ADD DUP4 DUP4 DUP1 DUP3 DUP5 CALLDATACOPY PUSH0 SWAP3 ADD DUP3 SWAP1 MSTORE POP SWAP4 SWAP1 SWAP5 MSTORE POP POP DUP7 DUP2 MSTORE PUSH1 0xA PUSH1 0x20 SWAP1 DUP2 MSTORE PUSH1 0x40 SWAP2 DUP3 SWAP1 KECCAK256 DUP5 MLOAD DUP2 SSTORE SWAP1 DUP5 ADD MLOAD PUSH1 0x1 DUP3 ADD SSTORE SWAP1 DUP4 ADD MLOAD PUSH1 0x2 DUP3 ADD DUP1 SLOAD PUSH1 0x60 DUP7 ADD MLOAD PUSH1 0xFF AND PUSH1 0x1 PUSH1 0xA0 SHL MUL PUSH1 0x1 PUSH1 0x1 PUSH1 0xA8 SHL SUB NOT SWAP1 SWAP2 AND PUSH1 0x1 PUSH1 0x1 PUSH1 0xA0 SHL SUB SWAP1 SWAP4 AND SWAP3 SWAP1 SWAP3 OR SWAP2 SWAP1 SWAP2 OR DUP1 DUP3 SSTORE PUSH1 0x80 DUP6 ADD MLOAD SWAP3 SWAP4 POP PUSH1 0xFF PUSH1 0xA8 SHL NOT AND PUSH1 0x1 PUSH1 0xA8 SHL DUP4 PUSH1 0x4 DUP2 GT ISZERO PUSH2 0xB34 JUMPI PUSH2 0xB34 PUSH2 0x178C JUMP JUMPDEST MUL OR SWAP1 SSTORE POP PUSH1 0xA0 DUP3 ADD MLOAD PUSH1 0x3 DUP3 ADD SSTORE PUSH1 0xC0 DUP3 ADD MLOAD PUSH1 0x4 DUP3 ADD SWAP1 PUSH2 0xB57 SWAP1 DUP3 PUSH2 0x1C73 JUMP JUMPDEST POP POP POP PUSH0 DUP5 DUP2 MSTORE PUSH1 0xB PUSH1 0x20 SWAP1 DUP2 MSTORE PUSH1 0x40 DUP1 DUP4 KECCAK256 DUP5 SWAP1 SSTORE DUP4 DUP4 MSTORE PUSH1 0xC SWAP1 SWAP2 MSTORE DUP1 DUP3 KECCAK256 DUP7 SWAP1 SSTORE MLOAD DUP3 SWAP2 PUSH1 0x1 PUSH1 0x1 PUSH1 0xA0 SHL SUB DUP7 AND SWAP2 DUP8 SWAP2 PUSH32 0x169427BF419D0660F1D2B73105F8BADB90F0BA5D4F34089ED57A99BF2809578B SWAP2 LOG4 POP POP POP SWAP6 SWAP5 POP POP POP POP POP JUMP JUMPDEST PUSH2 0x541 CALLER DUP4 DUP4 PUSH2 0xF4F JUMP JUMPDEST PUSH2 0xBCD PUSH2 0xEB8 JUMP JUMPDEST PUSH1 0x1 PUSH1 0x1 PUSH1 0xA0 SHL SUB DUP2 AND PUSH2 0xBF4 JUMPI PUSH1 0x40 MLOAD PUSH4 0xD92E233D PUSH1 0xE0 SHL DUP2 MSTORE PUSH1 0x4 ADD PUSH1 0x40 MLOAD DUP1 SWAP2 SUB SWAP1 REVERT JUMPDEST PUSH1 0x7 DUP1 SLOAD PUSH1 0x1 PUSH1 0x1 PUSH1 0xA0 SHL SUB NOT AND PUSH1 0x1 PUSH1 0x1 PUSH1 0xA0 SHL SUB SWAP3 SWAP1 SWAP3 AND SWAP2 SWAP1 SWAP2 OR SWAP1 SSTORE JUMP JUMPDEST PUSH2 0xC21 DUP5 DUP5 DUP5 PUSH2 0x545 JUMP JUMPDEST PUSH2 0x5CD CALLER DUP6 DUP6 DUP6 DUP6 PUSH2 0x1016 JUMP JUMPDEST PUSH1 0x60 PUSH2 0xC39 DUP3 PUSH2 0xE0D JUMP JUMPDEST POP PUSH0 PUSH2 0xC4F PUSH1 0x40 DUP1 MLOAD PUSH1 0x20 DUP2 ADD SWAP1 SWAP2 MSTORE PUSH0 DUP2 MSTORE SWAP1 JUMP JUMPDEST SWAP1 POP PUSH0 DUP2 MLOAD GT PUSH2 0xC6D JUMPI PUSH1 0x40 MLOAD DUP1 PUSH1 0x20 ADD PUSH1 0x40 MSTORE DUP1 PUSH0 DUP2 MSTORE POP PUSH2 0xC98 JUMP JUMPDEST DUP1 PUSH2 0xC77 DUP5 PUSH2 0x113E JUMP JUMPDEST PUSH1 0x40 MLOAD PUSH1 0x20 ADD PUSH2 0xC88 SWAP3 SWAP2 SWAP1 PUSH2 0x1D45 JUMP JUMPDEST PUSH1 0x40 MLOAD PUSH1 0x20 DUP2 DUP4 SUB SUB DUP2 MSTORE SWAP1 PUSH1 0x40 MSTORE JUMPDEST SWAP4 SWAP3 POP POP POP JUMP JUMPDEST PUSH1 0x7 SLOAD PUSH1 0x1 PUSH1 0x1 PUSH1 0xA0 SHL SUB AND CALLER EQ PUSH2 0xCCA JUMPI PUSH1 0x40 MLOAD PUSH4 0x1F0853C1 PUSH1 0xE2 SHL DUP2 MSTORE PUSH1 0x4 ADD PUSH1 0x40 MLOAD DUP1 SWAP2 SUB SWAP1 REVERT JUMPDEST PUSH0 DUP3 DUP2 MSTORE PUSH1 0xB PUSH1 0x20 MSTORE PUSH1 0x40 SWAP1 KECCAK256 SLOAD DUP3 SWAP1 PUSH2 0xCF7 JUMPI PUSH1 0x40 MLOAD PUSH4 0x3821B43 PUSH1 0xE5 SHL DUP2 MSTORE PUSH1 0x4 ADD PUSH1 0x40 MLOAD DUP1 SWAP2 SUB SWAP1 REVERT JUMPDEST PUSH1 0x1 PUSH1 0x1 PUSH1 0xA0 SHL SUB DUP3 AND PUSH2 0xD1E JUMPI PUSH1 0x40 MLOAD PUSH4 0xD92E233D PUSH1 0xE0 SHL DUP2 MSTORE PUSH1 0x4 ADD PUSH1 0x40 MLOAD DUP1 SWAP2 SUB SWAP1 REVERT JUMPDEST PUSH0 DUP4 DUP2 MSTORE PUSH1 0xA PUSH1 0x20 SWAP1 DUP2 MSTORE PUSH1 0x40 DUP1 DUP4 KECCAK256 PUSH1 0x2 DUP2 ADD DUP1 SLOAD PUSH1 0x1 PUSH1 0x1 PUSH1 0xA0 SHL SUB DUP9 DUP2 AND PUSH1 0x1 PUSH1 0x1 PUSH1 0xA0 SHL SUB NOT DUP4 AND OR SWAP1 SWAP3 SSTORE PUSH1 0xB SWAP1 SWAP5 MSTORE SWAP2 SWAP1 SWAP4 KECCAK256 SLOAD SWAP2 AND SWAP1 PUSH2 0xD66 DUP3 DUP7 DUP4 PUSH2 0x11CE JUMP JUMPDEST PUSH1 0x40 MLOAD PUSH1 0x1 PUSH1 0x1 PUSH1 0xA0 SHL SUB DUP7 AND SWAP1 DUP8 SWAP1 PUSH32 0x32C92D2EE23A760A67D5DB8600380920F9E316540161A4B14EF4C78841A30AF6 SWAP1 PUSH0 SWAP1 LOG3 POP POP POP POP POP POP JUMP JUMPDEST PUSH1 0x1 PUSH1 0x1 PUSH1 0xA0 SHL SUB SWAP2 DUP3 AND PUSH0 SWAP1 DUP2 MSTORE PUSH1 0x5 PUSH1 0x20 SWAP1 DUP2 MSTORE PUSH1 0x40 DUP1 DUP4 KECCAK256 SWAP4 SWAP1 SWAP5 AND DUP3 MSTORE SWAP2 SWAP1 SWAP2 MSTORE KECCAK256 SLOAD PUSH1 0xFF AND SWAP1 JUMP JUMPDEST PUSH2 0xDD8 PUSH2 0xEB8 JUMP JUMPDEST PUSH1 0x1 PUSH1 0x1 PUSH1 0xA0 SHL SUB DUP2 AND PUSH2 0xE01 JUMPI PUSH1 0x40 MLOAD PUSH4 0x1E4FBDF7 PUSH1 0xE0 SHL DUP2 MSTORE PUSH0 PUSH1 0x4 DUP3 ADD MSTORE PUSH1 0x24 ADD PUSH2 0x56A JUMP JUMPDEST PUSH2 0xE0A DUP2 PUSH2 0xEE5 JUMP JUMPDEST POP JUMP JUMPDEST PUSH0 DUP2 DUP2 MSTORE PUSH1 0x2 PUSH1 0x20 MSTORE PUSH1 0x40 DUP2 KECCAK256 SLOAD PUSH1 0x1 PUSH1 0x1 PUSH1 0xA0 SHL SUB AND DUP1 PUSH2 0x47A JUMPI PUSH1 0x40 MLOAD PUSH4 0x7E273289 PUSH1 0xE0 SHL DUP2 MSTORE PUSH1 0x4 DUP2 ADD DUP5 SWAP1 MSTORE PUSH1 0x24 ADD PUSH2 0x56A JUMP JUMPDEST PUSH2 0x752 DUP4 DUP4 DUP4 PUSH1 0x1 PUSH2 0x127B JUMP JUMPDEST PUSH0 DUP3 DUP2 MSTORE PUSH1 0x2 PUSH1 0x20 MSTORE PUSH1 0x40 DUP2 KECCAK256 SLOAD PUSH1 0x1 PUSH1 0x1 PUSH1 0xA0 SHL SUB AND DUP1 ISZERO DUP1 ISZERO SWAP1 PUSH2 0xE86 JUMPI POP PUSH1 0x7 SLOAD PUSH1 0x1 PUSH1 0x1 PUSH1 0xA0 SHL SUB DUP5 DUP2 AND SWAP2 AND EQ ISZERO JUMPDEST ISZERO PUSH2 0xEA4 JUMPI PUSH1 0x40 MLOAD PUSH4 0x1F0853C1 PUSH1 0xE2 SHL DUP2 MSTORE PUSH1 0x4 ADD PUSH1 0x40 MLOAD DUP1 SWAP2 SUB SWAP1 REVERT JUMPDEST PUSH2 0xEAF DUP6 DUP6 DUP6 PUSH2 0x137F JUMP JUMPDEST SWAP6 SWAP5 POP POP POP POP POP JUMP JUMPDEST PUSH1 0x6 SLOAD PUSH1 0x1 PUSH1 0x1 PUSH1 0xA0 SHL SUB AND CALLER EQ PUSH2 0x86B JUMPI PUSH1 0x40 MLOAD PUSH4 0x118CDAA7 PUSH1 0xE0 SHL DUP2 MSTORE CALLER PUSH1 0x4 DUP3 ADD MSTORE PUSH1 0x24 ADD PUSH2 0x56A JUMP JUMPDEST PUSH1 0x6 DUP1 SLOAD PUSH1 0x1 PUSH1 0x1 PUSH1 0xA0 SHL SUB DUP4 DUP2 AND PUSH1 0x1 PUSH1 0x1 PUSH1 0xA0 SHL SUB NOT DUP4 AND DUP2 OR SWAP1 SWAP4 SSTORE PUSH1 0x40 MLOAD SWAP2 AND SWAP2 SWAP1 DUP3 SWAP1 PUSH32 0x8BE0079C531659141344CD1FD0A4F28419497F9722A3DAAFE3B4186F6B6457E0 SWAP1 PUSH0 SWAP1 LOG3 POP POP JUMP JUMPDEST PUSH2 0x541 DUP3 DUP3 PUSH1 0x40 MLOAD DUP1 PUSH1 0x20 ADD PUSH1 0x40 MSTORE DUP1 PUSH0 DUP2 MSTORE POP PUSH2 0x1471 JUMP JUMPDEST PUSH1 0x1 PUSH1 0x1 PUSH1 0xA0 SHL SUB DUP4 AND PUSH2 0xF78 JUMPI PUSH1 0x40 MLOAD PUSH4 0xA9FBF51F PUSH1 0xE0 SHL DUP2 MSTORE PUSH0 PUSH1 0x4 DUP3 ADD MSTORE PUSH1 0x24 ADD PUSH2 0x56A JUMP JUMPDEST PUSH1 0x1 PUSH1 0x1 PUSH1 0xA0 SHL SUB DUP3 AND PUSH2 0xFAA JUMPI PUSH1 0x40 MLOAD PUSH4 0xB611743 PUSH1 0xE3 SHL DUP2 MSTORE PUSH1 0x1 PUSH1 0x1 PUSH1 0xA0 SHL SUB DUP4 AND PUSH1 0x4 DUP3 ADD MSTORE PUSH1 0x24 ADD PUSH2 0x56A JUMP JUMPDEST PUSH1 0x1 PUSH1 0x1 PUSH1 0xA0 SHL SUB DUP4 DUP2 AND PUSH0 DUP2 DUP2 MSTORE PUSH1 0x5 PUSH1 0x20 SWAP1 DUP2 MSTORE PUSH1 0x40 DUP1 DUP4 KECCAK256 SWAP5 DUP8 AND DUP1 DUP5 MSTORE SWAP5 DUP3 MSTORE SWAP2 DUP3 SWAP1 KECCAK256 DUP1 SLOAD PUSH1 0xFF NOT AND DUP7 ISZERO ISZERO SWAP1 DUP2 OR SWAP1 SWAP2 SSTORE SWAP2 MLOAD SWAP2 DUP3 MSTORE PUSH32 0x17307EAB39AB6107E8899845AD3D59BD9653F200F220920489CA2B5937696C31 SWAP2 ADD PUSH1 0x40 MLOAD DUP1 SWAP2 SUB SWAP1 LOG3 POP POP POP JUMP JUMPDEST PUSH1 0x1 PUSH1 0x1 PUSH1 0xA0 SHL SUB DUP4 AND EXTCODESIZE ISZERO PUSH2 0x1137 JUMPI PUSH1 0x40 MLOAD PUSH4 0xA85BD01 PUSH1 0xE1 SHL DUP2 MSTORE PUSH1 0x1 PUSH1 0x1 PUSH1 0xA0 SHL SUB DUP5 AND SWAP1 PUSH4 0x150B7A02 SWAP1 PUSH2 0x1058 SWAP1 DUP9 SWAP1 DUP9 SWAP1 DUP8 SWAP1 DUP8 SWAP1 PUSH1 0x4 ADD PUSH2 0x1D59 JUMP JUMPDEST PUSH1 0x20 PUSH1 0x40 MLOAD DUP1 DUP4 SUB DUP2 PUSH0 DUP8 GAS CALL SWAP3 POP POP POP DUP1 ISZERO PUSH2 0x1092 JUMPI POP PUSH1 0x40 DUP1 MLOAD PUSH1 0x1F RETURNDATASIZE SWAP1 DUP2 ADD PUSH1 0x1F NOT AND DUP3 ADD SWAP1 SWAP3 MSTORE PUSH2 0x108F SWAP2 DUP2 ADD SWAP1 PUSH2 0x1D95 JUMP JUMPDEST PUSH1 0x1 JUMPDEST PUSH2 0x10F9 JUMPI RETURNDATASIZE DUP1 DUP1 ISZERO PUSH2 0x10BF JUMPI PUSH1 0x40 MLOAD SWAP2 POP PUSH1 0x1F NOT PUSH1 0x3F RETURNDATASIZE ADD AND DUP3 ADD PUSH1 0x40 MSTORE RETURNDATASIZE DUP3 MSTORE RETURNDATASIZE PUSH0 PUSH1 0x20 DUP5 ADD RETURNDATACOPY PUSH2 0x10C4 JUMP JUMPDEST PUSH1 0x60 SWAP2 POP JUMPDEST POP DUP1 MLOAD PUSH0 SUB PUSH2 0x10F1 JUMPI PUSH1 0x40 MLOAD PUSH4 0x32505749 PUSH1 0xE1 SHL DUP2 MSTORE PUSH1 0x1 PUSH1 0x1 PUSH1 0xA0 SHL SUB DUP6 AND PUSH1 0x4 DUP3 ADD MSTORE PUSH1 0x24 ADD PUSH2 0x56A JUMP JUMPDEST DUP1 MLOAD PUSH1 0x20 DUP3 ADD REVERT JUMPDEST PUSH1 0x1 PUSH1 0x1 PUSH1 0xE0 SHL SUB NOT DUP2 AND PUSH4 0xA85BD01 PUSH1 0xE1 SHL EQ PUSH2 0x1135 JUMPI PUSH1 0x40 MLOAD PUSH4 0x32505749 PUSH1 0xE1 SHL DUP2 MSTORE PUSH1 0x1 PUSH1 0x1 PUSH1 0xA0 SHL SUB DUP6 AND PUSH1 0x4 DUP3 ADD MSTORE PUSH1 0x24 ADD PUSH2 0x56A JUMP JUMPDEST POP JUMPDEST POP POP POP POP POP JUMP JUMPDEST PUSH1 0x60 PUSH0 PUSH2 0x114A DUP4 PUSH2 0x1488 JUMP JUMPDEST PUSH1 0x1 ADD SWAP1 POP PUSH0 DUP2 PUSH8 0xFFFFFFFFFFFFFFFF DUP2 GT ISZERO PUSH2 0x1169 JUMPI PUSH2 0x1169 PUSH2 0x199A JUMP JUMPDEST PUSH1 0x40 MLOAD SWAP1 DUP1 DUP3 MSTORE DUP1 PUSH1 0x1F ADD PUSH1 0x1F NOT AND PUSH1 0x20 ADD DUP3 ADD PUSH1 0x40 MSTORE DUP1 ISZERO PUSH2 0x1193 JUMPI PUSH1 0x20 DUP3 ADD DUP2 DUP1 CALLDATASIZE DUP4 CALLDATACOPY ADD SWAP1 POP JUMPDEST POP SWAP1 POP DUP2 DUP2 ADD PUSH1 0x20 ADD JUMPDEST PUSH0 NOT ADD PUSH16 0x181899199A1A9B1B9C1CB0B131B232B3 PUSH1 0x81 SHL PUSH1 0xA DUP7 MOD BYTE DUP2 MSTORE8 PUSH1 0xA DUP6 DIV SWAP5 POP DUP5 PUSH2 0x119D JUMPI POP SWAP4 SWAP3 POP POP POP JUMP JUMPDEST PUSH1 0x1 PUSH1 0x1 PUSH1 0xA0 SHL SUB DUP3 AND PUSH2 0x11F7 JUMPI PUSH1 0x40 MLOAD PUSH4 0x32505749 PUSH1 0xE1 SHL DUP2 MSTORE PUSH0 PUSH1 0x4 DUP3 ADD MSTORE PUSH1 0x24 ADD PUSH2 0x56A JUMP JUMPDEST PUSH0 PUSH2 0x1203 DUP4 DUP4 PUSH0 PUSH2 0xE52 JUMP JUMPDEST SWAP1 POP PUSH1 0x1 PUSH1 0x1 PUSH1 0xA0 SHL SUB DUP2 AND PUSH2 0x122F JUMPI PUSH1 0x40 MLOAD PUSH4 0x7E273289 PUSH1 0xE0 SHL DUP2 MSTORE PUSH1 0x4 DUP2 ADD DUP4 SWAP1 MSTORE PUSH1 0x24 ADD PUSH2 0x56A JUMP JUMPDEST DUP4 PUSH1 0x1 PUSH1 0x1 PUSH1 0xA0 SHL SUB AND DUP2 PUSH1 0x1 PUSH1 0x1 PUSH1 0xA0 SHL SUB AND EQ PUSH2 0x5CD JUMPI PUSH1 0x40 MLOAD PUSH4 0x64283D7B PUSH1 0xE0 SHL DUP2 MSTORE PUSH1 0x1 PUSH1 0x1 PUSH1 0xA0 SHL SUB DUP1 DUP7 AND PUSH1 0x4 DUP4 ADD MSTORE PUSH1 0x24 DUP3 ADD DUP5 SWAP1 MSTORE DUP3 AND PUSH1 0x44 DUP3 ADD MSTORE PUSH1 0x64 ADD PUSH2 0x56A JUMP JUMPDEST DUP1 DUP1 PUSH2 0x128F JUMPI POP PUSH1 0x1 PUSH1 0x1 PUSH1 0xA0 SHL SUB DUP3 AND ISZERO ISZERO JUMPDEST ISZERO PUSH2 0x1350 JUMPI PUSH0 PUSH2 0x129E DUP5 PUSH2 0xE0D JUMP JUMPDEST SWAP1 POP PUSH1 0x1 PUSH1 0x1 PUSH1 0xA0 SHL SUB DUP4 AND ISZERO DUP1 ISZERO SWAP1 PUSH2 0x12CA JUMPI POP DUP3 PUSH1 0x1 PUSH1 0x1 PUSH1 0xA0 SHL SUB AND DUP2 PUSH1 0x1 PUSH1 0x1 PUSH1 0xA0 SHL SUB AND EQ ISZERO JUMPDEST DUP1 ISZERO PUSH2 0x12DD JUMPI POP PUSH2 0x12DB DUP2 DUP5 PUSH2 0xDA3 JUMP JUMPDEST ISZERO JUMPDEST ISZERO PUSH2 0x1306 JUMPI PUSH1 0x40 MLOAD PUSH4 0xA9FBF51F PUSH1 0xE0 SHL DUP2 MSTORE PUSH1 0x1 PUSH1 0x1 PUSH1 0xA0 SHL SUB DUP5 AND PUSH1 0x4 DUP3 ADD MSTORE PUSH1 0x24 ADD PUSH2 0x56A JUMP JUMPDEST DUP2 ISZERO PUSH2 0x134E JUMPI DUP4 DUP6 PUSH1 0x1 PUSH1 0x1 PUSH1 0xA0 SHL SUB AND DUP3 PUSH1 0x1 PUSH1 0x1 PUSH1 0xA0 SHL SUB AND PUSH32 0x8C5BE1E5EBEC7D5BD14F71427D1E84F3DD0314C0F7B2291E5B200AC8C7C3B925 PUSH1 0x40 MLOAD PUSH1 0x40 MLOAD DUP1 SWAP2 SUB SWAP1 LOG4 JUMPDEST POP JUMPDEST POP POP PUSH0 SWAP1 DUP2 MSTORE PUSH1 0x4 PUSH1 0x20 MSTORE PUSH1 0x40 SWAP1 KECCAK256 DUP1 SLOAD PUSH1 0x1 PUSH1 0x1 PUSH1 0xA0 SHL SUB NOT AND PUSH1 0x1 PUSH1 0x1 PUSH1 0xA0 SHL SUB SWAP3 SWAP1 SWAP3 AND SWAP2 SWAP1 SWAP2 OR SWAP1 SSTORE JUMP JUMPDEST PUSH0 DUP3 DUP2 MSTORE PUSH1 0x2 PUSH1 0x20 MSTORE PUSH1 0x40 DUP2 KECCAK256 SLOAD PUSH1 0x1 PUSH1 0x1 PUSH1 0xA0 SHL SUB SWAP1 DUP2 AND SWAP1 DUP4 AND ISZERO PUSH2 0x13AB JUMPI PUSH2 0x13AB DUP2 DUP5 DUP7 PUSH2 0x155F JUMP JUMPDEST PUSH1 0x1 PUSH1 0x1 PUSH1 0xA0 SHL SUB DUP2 AND ISZERO PUSH2 0x13E5 JUMPI PUSH2 0x13C6 PUSH0 DUP6 PUSH0 DUP1 PUSH2 0x127B JUMP JUMPDEST PUSH1 0x1 PUSH1 0x1 PUSH1 0xA0 SHL SUB DUP2 AND PUSH0 SWAP1 DUP2 MSTORE PUSH1 0x3 PUSH1 0x20 MSTORE PUSH1 0x40 SWAP1 KECCAK256 DUP1 SLOAD PUSH0 NOT ADD SWAP1 SSTORE JUMPDEST PUSH1 0x1 PUSH1 0x1 PUSH1 0xA0 SHL SUB DUP6 AND ISZERO PUSH2 0x1413 JUMPI PUSH1 0x1 PUSH1 0x1 PUSH1 0xA0 SHL SUB DUP6 AND PUSH0 SWAP1 DUP2 MSTORE PUSH1 0x3 PUSH1 0x20 MSTORE PUSH1 0x40 SWAP1 KECCAK256 DUP1 SLOAD PUSH1 0x1 ADD SWAP1 SSTORE JUMPDEST PUSH0 DUP5 DUP2 MSTORE PUSH1 0x2 PUSH1 0x20 MSTORE PUSH1 0x40 DUP1 DUP3 KECCAK256 DUP1 SLOAD PUSH1 0x1 PUSH1 0x1 PUSH1 0xA0 SHL SUB NOT AND PUSH1 0x1 PUSH1 0x1 PUSH1 0xA0 SHL SUB DUP10 DUP2 AND SWAP2 DUP3 OR SWAP1 SWAP3 SSTORE SWAP2 MLOAD DUP8 SWAP4 SWAP2 DUP6 AND SWAP2 PUSH32 0xDDF252AD1BE2C89B69C2B068FC378DAA952BA7F163C4A11628F55A4DF523B3EF SWAP2 LOG4 SWAP5 SWAP4 POP POP POP POP JUMP JUMPDEST PUSH2 0x147B DUP4 DUP4 PUSH2 0x15C3 JUMP JUMPDEST PUSH2 0x752 CALLER PUSH0 DUP6 DUP6 DUP6 PUSH2 0x1016 JUMP JUMPDEST PUSH0 DUP1 PUSH19 0x184F03E93FF9F4DAA797ED6E38ED64BF6A1F01 PUSH1 0x40 SHL DUP4 LT PUSH2 0x14C6 JUMPI PUSH19 0x184F03E93FF9F4DAA797ED6E38ED64BF6A1F01 PUSH1 0x40 SHL DUP4 DIV SWAP3 POP PUSH1 0x40 ADD JUMPDEST PUSH14 0x4EE2D6D415B85ACEF8100000000 DUP4 LT PUSH2 0x14F2 JUMPI PUSH14 0x4EE2D6D415B85ACEF8100000000 DUP4 DIV SWAP3 POP PUSH1 0x20 ADD JUMPDEST PUSH7 0x2386F26FC10000 DUP4 LT PUSH2 0x1510 JUMPI PUSH7 0x2386F26FC10000 DUP4 DIV SWAP3 POP PUSH1 0x10 ADD JUMPDEST PUSH4 0x5F5E100 DUP4 LT PUSH2 0x1528 JUMPI PUSH4 0x5F5E100 DUP4 DIV SWAP3 POP PUSH1 0x8 ADD JUMPDEST PUSH2 0x2710 DUP4 LT PUSH2 0x153C JUMPI PUSH2 0x2710 DUP4 DIV SWAP3 POP PUSH1 0x4 ADD JUMPDEST PUSH1 0x64 DUP4 LT PUSH2 0x154E JUMPI PUSH1 0x64 DUP4 DIV SWAP3 POP PUSH1 0x2 ADD JUMPDEST PUSH1 0xA DUP4 LT PUSH2 0x47A JUMPI PUSH1 0x1 ADD SWAP3 SWAP2 POP POP JUMP JUMPDEST PUSH2 0x156A DUP4 DUP4 DUP4 PUSH2 0x1624 JUMP JUMPDEST PUSH2 0x752 JUMPI PUSH1 0x1 PUSH1 0x1 PUSH1 0xA0 SHL SUB DUP4 AND PUSH2 0x1598 JUMPI PUSH1 0x40 MLOAD PUSH4 0x7E273289 PUSH1 0xE0 SHL DUP2 MSTORE PUSH1 0x4 DUP2 ADD DUP3 SWAP1 MSTORE PUSH1 0x24 ADD PUSH2 0x56A JUMP JUMPDEST PUSH1 0x40 MLOAD PUSH4 0x177E802F PUSH1 0xE0 SHL DUP2 MSTORE PUSH1 0x1 PUSH1 0x1 PUSH1 0xA0 SHL SUB DUP4 AND PUSH1 0x4 DUP3 ADD MSTORE PUSH1 0x24 DUP2 ADD DUP3 SWAP1 MSTORE PUSH1 0x44 ADD PUSH2 0x56A JUMP JUMPDEST PUSH1 0x1 PUSH1 0x1 PUSH1 0xA0 SHL SUB DUP3 AND PUSH2 0x15EC JUMPI PUSH1 0x40 MLOAD PUSH4 0x32505749 PUSH1 0xE1 SHL DUP2 MSTORE PUSH0 PUSH1 0x4 DUP3 ADD MSTORE PUSH1 0x24 ADD PUSH2 0x56A JUMP JUMPDEST PUSH0 PUSH2 0x15F8 DUP4 DUP4 PUSH0 PUSH2 0xE52 JUMP JUMPDEST SWAP1 POP PUSH1 0x1 PUSH1 0x1 PUSH1 0xA0 SHL SUB DUP2 AND ISZERO PUSH2 0x752 JUMPI PUSH1 0x40 MLOAD PUSH4 0x39E35637 PUSH1 0xE1 SHL DUP2 MSTORE PUSH0 PUSH1 0x4 DUP3 ADD MSTORE PUSH1 0x24 ADD PUSH2 0x56A JUMP JUMPDEST PUSH0 PUSH1 0x1 PUSH1 0x1 PUSH1 0xA0 SHL SUB DUP4 AND ISZERO DUP1 ISZERO SWAP1 PUSH2 0x1680 JUMPI POP DUP3 PUSH1 0x1 PUSH1 0x1 PUSH1 0xA0 SHL SUB AND DUP5 PUSH1 0x1 PUSH1 0x1 PUSH1 0xA0 SHL SUB AND EQ DUP1 PUSH2 0x165D JUMPI POP PUSH2 0x165D DUP5 DUP5 PUSH2 0xDA3 JUMP JUMPDEST DUP1 PUSH2 0x1680 JUMPI POP PUSH0 DUP3 DUP2 MSTORE PUSH1 0x4 PUSH1 0x20 MSTORE PUSH1 0x40 SWAP1 KECCAK256 SLOAD PUSH1 0x1 PUSH1 0x1 PUSH1 0xA0 SHL SUB DUP5 DUP2 AND SWAP2 AND EQ JUMPDEST SWAP5 SWAP4 POP POP POP POP JUMP JUMPDEST PUSH1 0x1 PUSH1 0x1 PUSH1 0xE0 SHL SUB NOT DUP2 AND DUP2 EQ PUSH2 0xE0A JUMPI PUSH0 DUP1 REVERT JUMPDEST PUSH0 PUSH1 0x20 DUP3 DUP5 SUB SLT ISZERO PUSH2 0x16AD JUMPI PUSH0 DUP1 REVERT JUMPDEST DUP2 CALLDATALOAD PUSH2 0xC98 DUP2 PUSH2 0x1688 JUMP JUMPDEST PUSH0 DUP2 MLOAD DUP1 DUP5 MSTORE DUP1 PUSH1 0x20 DUP5 ADD PUSH1 0x20 DUP7 ADD MCOPY PUSH0 PUSH1 0x20 DUP3 DUP7 ADD ADD MSTORE PUSH1 0x20 PUSH1 0x1F NOT PUSH1 0x1F DUP4 ADD AND DUP6 ADD ADD SWAP2 POP POP SWAP3 SWAP2 POP POP JUMP JUMPDEST PUSH1 0x20 DUP2 MSTORE PUSH0 PUSH2 0xC98 PUSH1 0x20 DUP4 ADD DUP5 PUSH2 0x16B8 JUMP JUMPDEST PUSH0 PUSH1 0x20 DUP3 DUP5 SUB SLT ISZERO PUSH2 0x1708 JUMPI PUSH0 DUP1 REVERT JUMPDEST POP CALLDATALOAD SWAP2 SWAP1 POP JUMP JUMPDEST DUP1 CALLDATALOAD PUSH1 0x1 PUSH1 0x1 PUSH1 0xA0 SHL SUB DUP2 AND DUP2 EQ PUSH2 0x1725 JUMPI PUSH0 DUP1 REVERT JUMPDEST SWAP2 SWAP1 POP JUMP JUMPDEST PUSH0 DUP1 PUSH1 0x40 DUP4 DUP6 SUB SLT ISZERO PUSH2 0x173B JUMPI PUSH0 DUP1 REVERT JUMPDEST PUSH2 0x1744 DUP4 PUSH2 0x170F JUMP JUMPDEST SWAP5 PUSH1 0x20 SWAP4 SWAP1 SWAP4 ADD CALLDATALOAD SWAP4 POP POP POP JUMP JUMPDEST PUSH0 DUP1 PUSH0 PUSH1 0x60 DUP5 DUP7 SUB SLT ISZERO PUSH2 0x1764 JUMPI PUSH0 DUP1 REVERT JUMPDEST PUSH2 0x176D DUP5 PUSH2 0x170F JUMP JUMPDEST SWAP3 POP PUSH2 0x177B PUSH1 0x20 DUP6 ADD PUSH2 0x170F JUMP JUMPDEST SWAP3 SWAP6 SWAP3 SWAP5 POP POP POP PUSH1 0x40 SWAP2 SWAP1 SWAP2 ADD CALLDATALOAD SWAP1 JUMP JUMPDEST PUSH4 0x4E487B71 PUSH1 0xE0 SHL PUSH0 MSTORE PUSH1 0x21 PUSH1 0x4 MSTORE PUSH1 0x24 PUSH0 REVERT JUMPDEST PUSH1 0x5 DUP2 LT PUSH2 0x17BC JUMPI PUSH4 0x4E487B71 PUSH1 0xE0 SHL PUSH0 MSTORE PUSH1 0x21 PUSH1 0x4 MSTORE PUSH1 0x24 PUSH0 REVERT JUMPDEST SWAP1 MSTORE JUMP JUMPDEST PUSH1 0x20 DUP2 MSTORE DUP2 MLOAD PUSH1 0x20 DUP3 ADD MSTORE PUSH1 0x20 DUP3 ADD MLOAD PUSH1 0x40 DUP3 ADD MSTORE PUSH1 0x1 DUP1 PUSH1 0xA0 SHL SUB PUSH1 0x40 DUP4 ADD MLOAD AND PUSH1 0x60 DUP3 ADD MSTORE PUSH1 0xFF PUSH1 0x60 DUP4 ADD MLOAD AND PUSH1 0x80 DUP3 ADD MSTORE PUSH0 PUSH1 0x80 DUP4 ADD MLOAD PUSH2 0x1807 PUSH1 0xA0 DUP5 ADD DUP3 PUSH2 0x17A0 JUMP JUMPDEST POP PUSH1 0xA0 DUP4 ADD MLOAD PUSH1 0xC0 DUP4 ADD MSTORE PUSH1 0xC0 DUP4 ADD MLOAD PUSH1 0xE0 DUP1 DUP5 ADD MSTORE PUSH2 0x1680 PUSH2 0x100 DUP5 ADD DUP3 PUSH2 0x16B8 JUMP JUMPDEST PUSH0 DUP1 DUP4 PUSH1 0x1F DUP5 ADD SLT PUSH2 0x183B JUMPI PUSH0 DUP1 REVERT JUMPDEST POP DUP2 CALLDATALOAD PUSH8 0xFFFFFFFFFFFFFFFF DUP2 GT ISZERO PUSH2 0x1852 JUMPI PUSH0 DUP1 REVERT JUMPDEST PUSH1 0x20 DUP4 ADD SWAP2 POP DUP4 PUSH1 0x20 DUP3 DUP6 ADD ADD GT ISZERO PUSH2 0x1869 JUMPI PUSH0 DUP1 REVERT JUMPDEST SWAP3 POP SWAP3 SWAP1 POP JUMP JUMPDEST PUSH0 DUP1 PUSH0 PUSH1 0x40 DUP5 DUP7 SUB SLT ISZERO PUSH2 0x1882 JUMPI PUSH0 DUP1 REVERT JUMPDEST DUP4 CALLDATALOAD SWAP3 POP PUSH1 0x20 DUP5 ADD CALLDATALOAD PUSH8 0xFFFFFFFFFFFFFFFF DUP2 GT ISZERO PUSH2 0x189F JUMPI PUSH0 DUP1 REVERT JUMPDEST PUSH2 0x18AB DUP7 DUP3 DUP8 ADD PUSH2 0x182B JUMP JUMPDEST SWAP5 SWAP8 SWAP1 SWAP7 POP SWAP4 SWAP5 POP POP POP POP JUMP JUMPDEST PUSH0 PUSH1 0x20 DUP3 DUP5 SUB SLT ISZERO PUSH2 0x18C8 JUMPI PUSH0 DUP1 REVERT JUMPDEST PUSH2 0xC98 DUP3 PUSH2 0x170F JUMP JUMPDEST PUSH0 DUP1 PUSH1 0x40 DUP4 DUP6 SUB SLT ISZERO PUSH2 0x18E2 JUMPI PUSH0 DUP1 REVERT JUMPDEST DUP3 CALLDATALOAD SWAP2 POP PUSH1 0x20 DUP4 ADD CALLDATALOAD PUSH1 0x5 DUP2 LT PUSH2 0x18F7 JUMPI PUSH0 DUP1 REVERT JUMPDEST DUP1 SWAP2 POP POP SWAP3 POP SWAP3 SWAP1 POP JUMP JUMPDEST PUSH0 DUP1 PUSH0 DUP1 PUSH0 PUSH1 0x80 DUP7 DUP9 SUB SLT ISZERO PUSH2 0x1916 JUMPI PUSH0 DUP1 REVERT JUMPDEST DUP6 CALLDATALOAD SWAP5 POP PUSH1 0x20 DUP7 ADD CALLDATALOAD PUSH1 0xFF DUP2 AND DUP2 EQ PUSH2 0x192D JUMPI PUSH0 DUP1 REVERT JUMPDEST SWAP4 POP PUSH1 0x40 DUP7 ADD CALLDATALOAD SWAP3 POP PUSH1 0x60 DUP7 ADD CALLDATALOAD PUSH8 0xFFFFFFFFFFFFFFFF DUP2 GT ISZERO PUSH2 0x194F JUMPI PUSH0 DUP1 REVERT JUMPDEST PUSH2 0x195B DUP9 DUP3 DUP10 ADD PUSH2 0x182B JUMP JUMPDEST SWAP7 SWAP10 SWAP6 SWAP9 POP SWAP4 SWAP7 POP SWAP3 SWAP5 SWAP4 SWAP3 POP POP POP JUMP JUMPDEST PUSH0 DUP1 PUSH1 0x40 DUP4 DUP6 SUB SLT ISZERO PUSH2 0x197D JUMPI PUSH0 DUP1 REVERT JUMPDEST PUSH2 0x1986 DUP4 PUSH2 0x170F JUMP JUMPDEST SWAP2 POP PUSH1 0x20 DUP4 ADD CALLDATALOAD DUP1 ISZERO ISZERO DUP2 EQ PUSH2 0x18F7 JUMPI PUSH0 DUP1 REVERT JUMPDEST PUSH4 0x4E487B71 PUSH1 0xE0 SHL PUSH0 MSTORE PUSH1 0x41 PUSH1 0x4 MSTORE PUSH1 0x24 PUSH0 REVERT JUMPDEST PUSH0 DUP1 PUSH0 DUP1 PUSH1 0x80 DUP6 DUP8 SUB SLT ISZERO PUSH2 0x19C1 JUMPI PUSH0 DUP1 REVERT JUMPDEST PUSH2 0x19CA DUP6 PUSH2 0x170F JUMP JUMPDEST SWAP4 POP PUSH2 0x19D8 PUSH1 0x20 DUP7 ADD PUSH2 0x170F JUMP JUMPDEST SWAP3 POP PUSH1 0x40 DUP6 ADD CALLDATALOAD SWAP2 POP PUSH1 0x60 DUP6 ADD CALLDATALOAD PUSH8 0xFFFFFFFFFFFFFFFF DUP2 GT ISZERO PUSH2 0x19FA JUMPI PUSH0 DUP1 REVERT JUMPDEST DUP6 ADD PUSH1 0x1F DUP2 ADD DUP8 SGT PUSH2 0x1A0A JUMPI PUSH0 DUP1 REVERT JUMPDEST DUP1 CALLDATALOAD PUSH8 0xFFFFFFFFFFFFFFFF DUP2 GT ISZERO PUSH2 0x1A24 JUMPI PUSH2 0x1A24 PUSH2 0x199A JUMP JUMPDEST PUSH1 0x40 MLOAD PUSH1 0x1F DUP3 ADD PUSH1 0x1F NOT SWAP1 DUP2 AND PUSH1 0x3F ADD AND DUP2 ADD PUSH8 0xFFFFFFFFFFFFFFFF DUP2 GT DUP3 DUP3 LT OR ISZERO PUSH2 0x1A53 JUMPI PUSH2 0x1A53 PUSH2 0x199A JUMP JUMPDEST PUSH1 0x40 MSTORE DUP2 DUP2 MSTORE DUP3 DUP3 ADD PUSH1 0x20 ADD DUP10 LT ISZERO PUSH2 0x1A6A JUMPI PUSH0 DUP1 REVERT JUMPDEST DUP2 PUSH1 0x20 DUP5 ADD PUSH1 0x20 DUP4 ADD CALLDATACOPY PUSH0 PUSH1 0x20 DUP4 DUP4 ADD ADD MSTORE DUP1 SWAP4 POP POP POP POP SWAP3 SWAP6 SWAP2 SWAP5 POP SWAP3 POP JUMP JUMPDEST PUSH0 DUP1 PUSH1 0x40 DUP4 DUP6 SUB SLT ISZERO PUSH2 0x1A9C JUMPI PUSH0 DUP1 REVERT JUMPDEST DUP3 CALLDATALOAD SWAP2 POP PUSH2 0x1AAC PUSH1 0x20 DUP5 ADD PUSH2 0x170F JUMP JUMPDEST SWAP1 POP SWAP3 POP SWAP3 SWAP1 POP JUMP JUMPDEST PUSH0 DUP1 PUSH1 0x40 DUP4 DUP6 SUB SLT ISZERO PUSH2 0x1AC6 JUMPI PUSH0 DUP1 REVERT JUMPDEST PUSH2 0x1ACF DUP4 PUSH2 0x170F JUMP JUMPDEST SWAP2 POP PUSH2 0x1AAC PUSH1 0x20 DUP5 ADD PUSH2 0x170F JUMP JUMPDEST PUSH1 0x1 DUP2 DUP2 SHR SWAP1 DUP3 AND DUP1 PUSH2 0x1AF1 JUMPI PUSH1 0x7F DUP3 AND SWAP2 POP JUMPDEST PUSH1 0x20 DUP3 LT DUP2 SUB PUSH2 0x1B0F JUMPI PUSH4 0x4E487B71 PUSH1 0xE0 SHL PUSH0 MSTORE PUSH1 0x22 PUSH1 0x4 MSTORE PUSH1 0x24 PUSH0 REVERT JUMPDEST POP SWAP2 SWAP1 POP JUMP JUMPDEST PUSH1 0x1F DUP3 GT ISZERO PUSH2 0x752 JUMPI DUP1 PUSH0 MSTORE PUSH1 0x20 PUSH0 KECCAK256 PUSH1 0x1F DUP5 ADD PUSH1 0x5 SHR DUP2 ADD PUSH1 0x20 DUP6 LT ISZERO PUSH2 0x1B3A JUMPI POP DUP1 JUMPDEST PUSH1 0x1F DUP5 ADD PUSH1 0x5 SHR DUP3 ADD SWAP2 POP JUMPDEST DUP2 DUP2 LT ISZERO PUSH2 0x1137 JUMPI PUSH0 DUP2 SSTORE PUSH1 0x1 ADD PUSH2 0x1B46 JUMP JUMPDEST PUSH8 0xFFFFFFFFFFFFFFFF DUP4 GT ISZERO PUSH2 0x1B71 JUMPI PUSH2 0x1B71 PUSH2 0x199A JUMP JUMPDEST PUSH2 0x1B85 DUP4 PUSH2 0x1B7F DUP4 SLOAD PUSH2 0x1ADD JUMP JUMPDEST DUP4 PUSH2 0x1B15 JUMP JUMPDEST PUSH0 PUSH1 0x1F DUP5 GT PUSH1 0x1 DUP2 EQ PUSH2 0x1BB6 JUMPI PUSH0 DUP6 ISZERO PUSH2 0x1B9F JUMPI POP DUP4 DUP3 ADD CALLDATALOAD JUMPDEST PUSH0 NOT PUSH1 0x3 DUP8 SWAP1 SHL SHR NOT AND PUSH1 0x1 DUP7 SWAP1 SHL OR DUP4 SSTORE PUSH2 0x1137 JUMP JUMPDEST PUSH0 DUP4 DUP2 MSTORE PUSH1 0x20 DUP2 KECCAK256 PUSH1 0x1F NOT DUP8 AND SWAP2 JUMPDEST DUP3 DUP2 LT ISZERO PUSH2 0x1BE5 JUMPI DUP7 DUP6 ADD CALLDATALOAD DUP3 SSTORE PUSH1 0x20 SWAP5 DUP6 ADD SWAP5 PUSH1 0x1 SWAP1 SWAP3 ADD SWAP2 ADD PUSH2 0x1BC5 JUMP JUMPDEST POP DUP7 DUP3 LT ISZERO PUSH2 0x1C01 JUMPI PUSH0 NOT PUSH1 0xF8 DUP9 PUSH1 0x3 SHL AND SHR NOT DUP5 DUP8 ADD CALLDATALOAD AND DUP2 SSTORE JUMPDEST POP POP PUSH1 0x1 DUP6 PUSH1 0x1 SHL ADD DUP4 SSTORE POP POP POP POP POP JUMP JUMPDEST PUSH1 0x20 DUP2 MSTORE DUP2 PUSH1 0x20 DUP3 ADD MSTORE DUP2 DUP4 PUSH1 0x40 DUP4 ADD CALLDATACOPY PUSH0 DUP2 DUP4 ADD PUSH1 0x40 SWAP1 DUP2 ADD SWAP2 SWAP1 SWAP2 MSTORE PUSH1 0x1F SWAP1 SWAP3 ADD PUSH1 0x1F NOT AND ADD ADD SWAP2 SWAP1 POP JUMP JUMPDEST PUSH1 0x20 DUP2 ADD PUSH2 0x47A DUP3 DUP5 PUSH2 0x17A0 JUMP JUMPDEST PUSH0 PUSH1 0x1 DUP3 ADD PUSH2 0x1C6C JUMPI PUSH4 0x4E487B71 PUSH1 0xE0 SHL PUSH0 MSTORE PUSH1 0x11 PUSH1 0x4 MSTORE PUSH1 0x24 PUSH0 REVERT JUMPDEST POP PUSH1 0x1 ADD SWAP1 JUMP JUMPDEST DUP2 MLOAD PUSH8 0xFFFFFFFFFFFFFFFF DUP2 GT ISZERO PUSH2 0x1C8D JUMPI PUSH2 0x1C8D PUSH2 0x199A JUMP JUMPDEST PUSH2 0x1CA1 DUP2 PUSH2 0x1C9B DUP5 SLOAD PUSH2 0x1ADD JUMP JUMPDEST DUP5 PUSH2 0x1B15 JUMP JUMPDEST PUSH1 0x20 PUSH1 0x1F DUP3 GT PUSH1 0x1 DUP2 EQ PUSH2 0x1CD3 JUMPI PUSH0 DUP4 ISZERO PUSH2 0x1CBC JUMPI POP DUP5 DUP3 ADD MLOAD JUMPDEST PUSH0 NOT PUSH1 0x3 DUP6 SWAP1 SHL SHR NOT AND PUSH1 0x1 DUP5 SWAP1 SHL OR DUP5 SSTORE PUSH2 0x1137 JUMP JUMPDEST PUSH0 DUP5 DUP2 MSTORE PUSH1 0x20 DUP2 KECCAK256 PUSH1 0x1F NOT DUP6 AND SWAP2 JUMPDEST DUP3 DUP2 LT ISZERO PUSH2 0x1D02 JUMPI DUP8 DUP6 ADD MLOAD DUP3 SSTORE PUSH1 0x20 SWAP5 DUP6 ADD SWAP5 PUSH1 0x1 SWAP1 SWAP3 ADD SWAP2 ADD PUSH2 0x1CE2 JUMP JUMPDEST POP DUP5 DUP3 LT ISZERO PUSH2 0x1D1F JUMPI DUP7 DUP5 ADD MLOAD PUSH0 NOT PUSH1 0x3 DUP8 SWAP1 SHL PUSH1 0xF8 AND SHR NOT AND DUP2 SSTORE JUMPDEST POP POP POP POP PUSH1 0x1 SWAP1 DUP2 SHL ADD SWAP1 SSTORE POP JUMP JUMPDEST PUSH0 DUP2 MLOAD DUP1 PUSH1 0x20 DUP5 ADD DUP6 MCOPY PUSH0 SWAP4 ADD SWAP3 DUP4 MSTORE POP SWAP1 SWAP2 SWAP1 POP JUMP JUMPDEST PUSH0 PUSH2 0x1680 PUSH2 0x1D53 DUP4 DUP7 PUSH2 0x1D2E JUMP JUMPDEST DUP5 PUSH2 0x1D2E JUMP JUMPDEST PUSH1 0x1 PUSH1 0x1 PUSH1 0xA0 SHL SUB DUP6 DUP2 AND DUP3 MSTORE DUP5 AND PUSH1 0x20 DUP3 ADD MSTORE PUSH1 0x40 DUP2 ADD DUP4 SWAP1 MSTORE PUSH1 0x80 PUSH1 0x60 DUP3 ADD DUP2 SWAP1 MSTORE PUSH0 SWAP1 PUSH2 0x1D8B SWAP1 DUP4 ADD DUP5 PUSH2 0x16B8 JUMP JUMPDEST SWAP7 SWAP6 POP POP POP POP POP POP JUMP JUMPDEST PUSH0 PUSH1 0x20 DUP3 DUP5 SUB SLT ISZERO PUSH2 0x1DA5 JUMPI PUSH0 DUP1 REVERT JUMPDEST DUP2 MLOAD PUSH2 0xC98 DUP2 PUSH2 0x1688 JUMP INVALID LOG2 PUSH5 0x6970667358 0x22 SLT KECCAK256 0xED CODECOPY SSTORE SELFDESTRUCT RETURNDATACOPY MUL 0xC7 JUMP PC MSTORE GAS 0x2F 0x2B DUP15 BYTE NOT TLOAD SWAP14 CREATE2 PUSH17 0x3ECE43889B8AA4CC0827D0C164736F6C63 NUMBER STOP ADDMOD BYTE STOP CALLER "},"methodIdentifiers":{"approve(address,uint256)":"095ea7b3","balanceOf(address)":"70a08231","exists(bytes32)":"38a699a4","getApproved(uint256)":"081812fc","getMachine(bytes32)":"2abe120e","getMachineIdByToken(uint256)":"9cf1f5ca","getTokenIdByMachine(bytes32)":"9dc8cad0","isApprovedForAll(address,address)":"e985e9c5","name()":"06fdde03","nextTokenId()":"75794a3c","operator()":"570ca735","owner()":"8da5cb5b","ownerOf(uint256)":"6352211e","registerMachine(bytes32,uint8,bytes32,string)":"9cbec42d","registrationNonce(address)":"7c360a1d","renounceOwnership()":"715018a6","safeTransferFrom(address,address,uint256)":"42842e0e","safeTransferFrom(address,address,uint256,bytes)":"b88d4fde","setApprovalForAll(address,bool)":"a22cb465","setOperator(address)":"b3ab15fb","supportsInterface(bytes4)":"01ffc9a7","symbol()":"95d89b41","tokenURI(uint256)":"c87b56dd","transferFrom(address,address,uint256)":"23b872dd","transferMachineRoot(bytes32,address)":"ca418ffd","transferOwnership(address)":"f2fde38b","updateMachineMetadata(bytes32,string)":"43fe547a","updateMachineStatus(bytes32,uint8)":"98b206f3"}}}}}