{"contracts/NodeStaySettlement.sol":{"NodeStaySettlement":{"abi":[{"inputs":[{"internalType":"address","name":"token_","type":"address"},{"internalType":"address","name":"platformTreasury_","type":"address"}],"stateMutability":"nonpayable","type":"constructor"},{"inputs":[],"name":"AlreadyHeld","type":"error"},{"inputs":[],"name":"InsufficientHeld","type":"error"},{"inputs":[],"name":"InvalidFeeParams","type":"error"},{"inputs":[],"name":"NotOperator","type":"error"},{"inputs":[{"internalType":"address","name":"owner","type":"address"}],"name":"OwnableInvalidOwner","type":"error"},{"inputs":[{"internalType":"address","name":"account","type":"address"}],"name":"OwnableUnauthorizedAccount","type":"error"},{"inputs":[],"name":"ReentrancyGuardReentrantCall","type":"error"},{"inputs":[],"name":"TransferFailed","type":"error"},{"inputs":[],"name":"ZeroAddress","type":"error"},{"anonymous":false,"inputs":[{"indexed":true,"internalType":"bytes32","name":"jobId","type":"bytes32"},{"indexed":false,"internalType":"uint256","name":"gross","type":"uint256"},{"indexed":false,"internalType":"uint256","name":"venueShare","type":"uint256"},{"indexed":false,"internalType":"uint256","name":"platformShare","type":"uint256"},{"indexed":false,"internalType":"uint256","name":"revenueShare","type":"uint256"}],"name":"ComputeSettled","type":"event"},{"anonymous":false,"inputs":[{"indexed":true,"internalType":"bytes32","name":"referenceId","type":"bytes32"},{"indexed":false,"internalType":"uint256","name":"amount","type":"uint256"}],"name":"DepositCaptured","type":"event"},{"anonymous":false,"inputs":[{"indexed":true,"internalType":"bytes32","name":"referenceId","type":"bytes32"},{"indexed":true,"internalType":"address","name":"payer","type":"address"},{"indexed":false,"internalType":"uint256","name":"amount","type":"uint256"}],"name":"DepositHeld","type":"event"},{"anonymous":false,"inputs":[{"indexed":true,"internalType":"bytes32","name":"referenceId","type":"bytes32"},{"indexed":false,"internalType":"uint256","name":"amount","type":"uint256"}],"name":"DepositReleased","type":"event"},{"anonymous":false,"inputs":[{"indexed":true,"internalType":"address","name":"previousOwner","type":"address"},{"indexed":true,"internalType":"address","name":"newOwner","type":"address"}],"name":"OwnershipTransferred","type":"event"},{"anonymous":false,"inputs":[{"indexed":true,"internalType":"bytes32","name":"sessionId","type":"bytes32"},{"indexed":false,"internalType":"uint256","name":"gross","type":"uint256"},{"indexed":false,"internalType":"uint256","name":"venueShare","type":"uint256"},{"indexed":false,"internalType":"uint256","name":"platformShare","type":"uint256"},{"indexed":false,"internalType":"uint256","name":"revenueShare","type":"uint256"}],"name":"UsageSettled","type":"event"},{"inputs":[],"name":"FEE_DENOMINATOR","outputs":[{"internalType":"uint16","name":"","type":"uint16"}],"stateMutability":"view","type":"function"},{"inputs":[{"internalType":"bytes32","name":"referenceId","type":"bytes32"},{"internalType":"uint256","name":"amount","type":"uint256"}],"name":"captureDeposit","outputs":[],"stateMutability":"nonpayable","type":"function"},{"inputs":[{"internalType":"bytes32","name":"","type":"bytes32"}],"name":"depositPayer","outputs":[{"internalType":"address","name":"","type":"address"}],"stateMutability":"view","type":"function"},{"inputs":[{"internalType":"bytes32","name":"","type":"bytes32"}],"name":"heldAmount","outputs":[{"internalType":"uint256","name":"","type":"uint256"}],"stateMutability":"view","type":"function"},{"inputs":[{"internalType":"bytes32","name":"referenceId","type":"bytes32"},{"internalType":"address","name":"payer","type":"address"},{"internalType":"uint256","name":"amount","type":"uint256"}],"name":"holdDeposit","outputs":[],"stateMutability":"nonpayable","type":"function"},{"inputs":[],"name":"operator","outputs":[{"internalType":"address","name":"","type":"address"}],"stateMutability":"view","type":"function"},{"inputs":[],"name":"owner","outputs":[{"internalType":"address","name":"","type":"address"}],"stateMutability":"view","type":"function"},{"inputs":[],"name":"paymentToken","outputs":[{"internalType":"address","name":"","type":"address"}],"stateMutability":"view","type":"function"},{"inputs":[],"name":"platformTreasury","outputs":[{"internalType":"address","name":"","type":"address"}],"stateMutability":"view","type":"function"},{"inputs":[{"internalType":"bytes32","name":"referenceId","type":"bytes32"},{"internalType":"uint256","name":"amount","type":"uint256"}],"name":"releaseDeposit","outputs":[],"stateMutability":"nonpayable","type":"function"},{"inputs":[],"name":"renounceOwnership","outputs":[],"stateMutability":"nonpayable","type":"function"},{"inputs":[{"internalType":"address","name":"operator_","type":"address"}],"name":"setOperator","outputs":[],"stateMutability":"nonpayable","type":"function"},{"inputs":[{"internalType":"address","name":"treasury_","type":"address"}],"name":"setPlatformTreasury","outputs":[],"stateMutability":"nonpayable","type":"function"},{"inputs":[{"internalType":"bytes32","name":"jobId","type":"bytes32"},{"internalType":"bytes32","name":"machineId","type":"bytes32"},{"internalType":"address","name":"payer","type":"address"},{"internalType":"address","name":"venueTreasury","type":"address"},{"internalType":"uint256","name":"grossAmount","type":"uint256"},{"internalType":"uint16","name":"platformFeeBps","type":"uint16"},{"internalType":"uint16","name":"revenueFeeBps","type":"uint16"}],"name":"settleCompute","outputs":[],"stateMutability":"nonpayable","type":"function"},{"inputs":[{"internalType":"bytes32","name":"sessionId","type":"bytes32"},{"internalType":"bytes32","name":"machineId","type":"bytes32"},{"internalType":"address","name":"payer","type":"address"},{"internalType":"address","name":"venueTreasury","type":"address"},{"internalType":"uint256","name":"grossAmount","type":"uint256"},{"internalType":"uint16","name":"platformFeeBps","type":"uint16"},{"internalType":"uint16","name":"revenueFeeBps","type":"uint16"}],"name":"settleUsage","outputs":[],"stateMutability":"nonpayable","type":"function"},{"inputs":[],"name":"token","outputs":[{"internalType":"contract IERC20","name":"","type":"address"}],"stateMutability":"view","type":"function"},{"inputs":[{"internalType":"address","name":"newOwner","type":"address"}],"name":"transferOwnership","outputs":[],"stateMutability":"nonpayable","type":"function"}],"evm":{"bytecode":{"linkReferences":{},"object":"60a060405234801561000f575f80fd5b506040516111be3803806111be83398101604081905261002e91610161565b338061005357604051631e4fbdf760e01b81525f600482015260240160405180910390fd5b61005c816100f7565b5060017f9b779b17422d0df92223018b32b4d1fa46e071723d6817e2486d003becc55f00556001600160a01b0382166100a85760405163d92e233d60e01b815260040160405180910390fd5b6001600160a01b0381166100cf5760405163d92e233d60e01b815260040160405180910390fd5b6001600160a01b03918216608052600280546001600160a01b03191691909216179055610192565b5f80546001600160a01b038381166001600160a01b0319831681178455604051919092169283917f8be0079c531659141344cd1fd0a4f28419497f9722a3daafe3b4186f6b6457e09190a35050565b80516001600160a01b038116811461015c575f80fd5b919050565b5f8060408385031215610172575f80fd5b61017b83610146565b915061018960208401610146565b90509250929050565b608051610fe36101db5f395f818161012101528181610297015281816103fa015281816106310152818161081101528181610a2e01528181610b3a0152610bf30152610fe35ff3fe608060405234801561000f575f80fd5b5060043610610106575f3560e01c80637eadc8431161009e578063caf2ff6f1161006e578063caf2ff6f1461023d578063d73792a914610250578063e138818c1461026c578063f2fde38b1461027f578063fc0c546a14610292575f80fd5b80637eadc843146101f45780638da5cb5b1461020757806399efb06714610217578063b3ab15fb1461022a575f80fd5b806360b2e6d9116100d957806360b2e6d914610199578063618815d6146101ac578063715018a6146101d95780637cd86d60146101e1575f80fd5b80632fceccb21461010a5780633013ce291461011f57806336353e0d1461015e578063570ca73514610186575b5f80fd5b61011d610118366004610e02565b6102b9565b005b7f00000000000000000000000000000000000000000000000000000000000000005b6040516001600160a01b0390911681526020015b60405180910390f35b61014161016c366004610e6e565b60046020525f90815260409020546001600160a01b031681565b600154610141906001600160a01b031681565b61011d6101a7366004610e85565b61031a565b6101cb6101ba366004610e6e565b60036020525f908152604090205481565b604051908152602001610155565b61011d6104dc565b61011d6101ef366004610ea5565b6104ef565b61011d610202366004610e02565b610540565b5f546001600160a01b0316610141565b61011d610225366004610e85565b610583565b61011d610238366004610ea5565b61070c565b61011d61024b366004610ec5565b61075d565b61025961271081565b60405161ffff9091168152602001610155565b600254610141906001600160a01b031681565b61011d61028d366004610ea5565b610922565b6101417f000000000000000000000000000000000000000000000000000000000000000081565b6001546001600160a01b031633146102e457604051631f0853c160e21b815260040160405180910390fd5b6102ec610964565b6102fb8786868686865f61097f565b61031160015f80516020610f8e83398151915255565b50505050505050565b6001546001600160a01b0316331461034557604051631f0853c160e21b815260040160405180910390fd5b61034d610964565b5f8281526003602052604090205481111561037b57604051638e875ab160e01b815260040160405180910390fd5b5f828152600460205260409020546001600160a01b0316806103b05760405163d92e233d60e01b815260040160405180910390fd5b5f83815260036020526040812080548492906103cd908490610f0c565b909155505060405163a9059cbb60e01b81526001600160a01b038281166004830152602482018490525f917f00000000000000000000000000000000000000000000000000000000000000009091169063a9059cbb906044016020604051808303815f875af1158015610442573d5f803e3d5ffd5b505050506040513d601f19601f820116820180604052508101906104669190610f25565b905080610486576040516312171d8360e31b815260040160405180910390fd5b837f1f27a7467c6bfa6f1e20104eba66fe0a222e69f23dd0ae30d5c24168e5e334e9846040516104b891815260200190565b60405180910390a250506104d860015f80516020610f8e83398151915255565b5050565b6104e4610d2c565b6104ed5f610d58565b565b6104f7610d2c565b6001600160a01b03811661051e5760405163d92e233d60e01b815260040160405180910390fd5b600280546001600160a01b0319166001600160a01b0392909216919091179055565b6001546001600160a01b0316331461056b57604051631f0853c160e21b815260040160405180910390fd5b610573610964565b6102fb878686868686600161097f565b6001546001600160a01b031633146105ae57604051631f0853c160e21b815260040160405180910390fd5b6105b6610964565b5f828152600360205260409020548111156105e457604051638e875ab160e01b815260040160405180910390fd5b5f8281526003602052604081208054839290610601908490610f0c565b909155505060025460405163a9059cbb60e01b81526001600160a01b039182166004820152602481018390525f917f0000000000000000000000000000000000000000000000000000000000000000169063a9059cbb906044016020604051808303815f875af1158015610677573d5f803e3d5ffd5b505050506040513d601f19601f8201168201806040525081019061069b9190610f25565b9050806106bb576040516312171d8360e31b815260040160405180910390fd5b827fb9f005f49e12577d268572c05bbcab6874dfbc9e53012e288f7d8828716d0d67836040516106ed91815260200190565b60405180910390a2506104d860015f80516020610f8e83398151915255565b610714610d2c565b6001600160a01b03811661073b5760405163d92e233d60e01b815260040160405180910390fd5b600180546001600160a01b0319166001600160a01b0392909216919091179055565b6001546001600160a01b0316331461078857604051631f0853c160e21b815260040160405180910390fd5b610790610964565b6001600160a01b0382166107b75760405163d92e233d60e01b815260040160405180910390fd5b5f83815260036020526040902054156107e35760405163cfe7b42560e01b815260040160405180910390fd5b6040516323b872dd60e01b81526001600160a01b038381166004830152306024830152604482018390525f917f0000000000000000000000000000000000000000000000000000000000000000909116906323b872dd906064016020604051808303815f875af1158015610859573d5f803e3d5ffd5b505050506040513d601f19601f8201168201806040525081019061087d9190610f25565b90508061089d576040516312171d8360e31b815260040160405180910390fd5b5f848152600360209081526040808320859055600482529182902080546001600160a01b0319166001600160a01b038716908117909155915184815286917f4f556a805476ead75322a2b36e63d096ed3dfae11b2dae2b3a5280786b6f44be910160405180910390a35061091d60015f80516020610f8e83398151915255565b505050565b61092a610d2c565b6001600160a01b03811661095857604051631e4fbdf760e01b81525f60048201526024015b60405180910390fd5b61096181610d58565b50565b61096c610da7565b60025f80516020610f8e83398151915255565b6001600160a01b0385166109a65760405163d92e233d60e01b815260040160405180910390fd5b6001600160a01b0386166109cd5760405163d92e233d60e01b815260040160405180910390fd5b6127106109e161ffff848116908616610f44565b1115610a005760405163ca25349360e01b815260040160405180910390fd5b6040516323b872dd60e01b81526001600160a01b038781166004830152306024830152604482018690525f917f0000000000000000000000000000000000000000000000000000000000000000909116906323b872dd906064016020604051808303815f875af1158015610a76573d5f803e3d5ffd5b505050506040513d601f19601f82011682018060405250810190610a9a9190610f25565b905080610aba576040516312171d8360e31b815260040160405180910390fd5b5f612710610acc61ffff871688610f57565b610ad69190610f6e565b90505f612710610aea61ffff871689610f57565b610af49190610f6e565b90505f81610b02848a610f0c565b610b0c9190610f0c565b90508015610bc45760405163a9059cbb60e01b81526001600160a01b038a81166004830152602482018390527f0000000000000000000000000000000000000000000000000000000000000000169063a9059cbb906044016020604051808303815f875af1158015610b80573d5f803e3d5ffd5b505050506040513d601f19601f82011682018060405250810190610ba49190610f25565b935083610bc4576040516312171d8360e31b815260040160405180910390fd5b8215610c7f5760025460405163a9059cbb60e01b81526001600160a01b039182166004820152602481018590527f00000000000000000000000000000000000000000000000000000000000000009091169063a9059cbb906044016020604051808303815f875af1158015610c3b573d5f803e3d5ffd5b505050506040513d601f19601f82011682018060405250810190610c5f9190610f25565b935083610c7f576040516312171d8360e31b815260040160405180910390fd5b8415610cd4576040805189815260208101839052908101849052606081018390528b907fb05fa9a925ce4ad8854b62fe935ecd827b85fa0f37d61399f74eb59894ef145b9060800160405180910390a2610d1f565b6040805189815260208101839052908101849052606081018390528b907f0c68022cf9dcae042bf8aa399a2f033f5ee2f535702277d2d5e68c799573be859060800160405180910390a25b5050505050505050505050565b5f546001600160a01b031633146104ed5760405163118cdaa760e01b815233600482015260240161094f565b5f80546001600160a01b038381166001600160a01b0319831681178455604051919092169283917f8be0079c531659141344cd1fd0a4f28419497f9722a3daafe3b4186f6b6457e09190a35050565b5f80516020610f8e833981519152546002036104ed57604051633ee5aeb560e01b815260040160405180910390fd5b80356001600160a01b0381168114610dec575f80fd5b919050565b803561ffff81168114610dec575f80fd5b5f805f805f805f60e0888a031215610e18575f80fd5b8735965060208801359550610e2f60408901610dd6565b9450610e3d60608901610dd6565b935060808801359250610e5260a08901610df1565b9150610e6060c08901610df1565b905092959891949750929550565b5f60208284031215610e7e575f80fd5b5035919050565b5f8060408385031215610e96575f80fd5b50508035926020909101359150565b5f60208284031215610eb5575f80fd5b610ebe82610dd6565b9392505050565b5f805f60608486031215610ed7575f80fd5b83359250610ee760208501610dd6565b929592945050506040919091013590565b634e487b7160e01b5f52601160045260245ffd5b81810381811115610f1f57610f1f610ef8565b92915050565b5f60208284031215610f35575f80fd5b81518015158114610ebe575f80fd5b80820180821115610f1f57610f1f610ef8565b8082028115828204841417610f1f57610f1f610ef8565b5f82610f8857634e487b7160e01b5f52601260045260245ffd5b50049056fe9b779b17422d0df92223018b32b4d1fa46e071723d6817e2486d003becc55f00a264697066735822122089a2564ffb800487adb1fa6cf7e5cec83349012f34d5e8a8dd113458ca09b75664736f6c634300081a0033","opcodes":"PUSH1 0xA0 PUSH1 0x40 MSTORE CALLVALUE DUP1 ISZERO PUSH2 0xF JUMPI PUSH0 DUP1 REVERT JUMPDEST POP PUSH1 0x40 MLOAD PUSH2 0x11BE CODESIZE SUB DUP1 PUSH2 0x11BE DUP4 CODECOPY DUP2 ADD PUSH1 0x40 DUP2 SWAP1 MSTORE PUSH2 0x2E SWAP2 PUSH2 0x161 JUMP JUMPDEST CALLER DUP1 PUSH2 0x53 JUMPI PUSH1 0x40 MLOAD PUSH4 0x1E4FBDF7 PUSH1 0xE0 SHL DUP2 MSTORE PUSH0 PUSH1 0x4 DUP3 ADD MSTORE PUSH1 0x24 ADD PUSH1 0x40 MLOAD DUP1 SWAP2 SUB SWAP1 REVERT JUMPDEST PUSH2 0x5C DUP2 PUSH2 0xF7 JUMP JUMPDEST POP PUSH1 0x1 PUSH32 0x9B779B17422D0DF92223018B32B4D1FA46E071723D6817E2486D003BECC55F00 SSTORE PUSH1 0x1 PUSH1 0x1 PUSH1 0xA0 SHL SUB DUP3 AND PUSH2 0xA8 JUMPI PUSH1 0x40 MLOAD PUSH4 0xD92E233D PUSH1 0xE0 SHL DUP2 MSTORE PUSH1 0x4 ADD PUSH1 0x40 MLOAD DUP1 SWAP2 SUB SWAP1 REVERT JUMPDEST PUSH1 0x1 PUSH1 0x1 PUSH1 0xA0 SHL SUB DUP2 AND PUSH2 0xCF JUMPI PUSH1 0x40 MLOAD PUSH4 0xD92E233D PUSH1 0xE0 SHL DUP2 MSTORE PUSH1 0x4 ADD PUSH1 0x40 MLOAD DUP1 SWAP2 SUB SWAP1 REVERT JUMPDEST PUSH1 0x1 PUSH1 0x1 PUSH1 0xA0 SHL SUB SWAP2 DUP3 AND PUSH1 0x80 MSTORE PUSH1 0x2 DUP1 SLOAD PUSH1 0x1 PUSH1 0x1 PUSH1 0xA0 SHL SUB NOT AND SWAP2 SWAP1 SWAP3 AND OR SWAP1 SSTORE PUSH2 0x192 JUMP JUMPDEST PUSH0 DUP1 SLOAD PUSH1 0x1 PUSH1 0x1 PUSH1 0xA0 SHL SUB DUP4 DUP2 AND PUSH1 0x1 PUSH1 0x1 PUSH1 0xA0 SHL SUB NOT DUP4 AND DUP2 OR DUP5 SSTORE PUSH1 0x40 MLOAD SWAP2 SWAP1 SWAP3 AND SWAP3 DUP4 SWAP2 PUSH32 0x8BE0079C531659141344CD1FD0A4F28419497F9722A3DAAFE3B4186F6B6457E0 SWAP2 SWAP1 LOG3 POP POP JUMP JUMPDEST DUP1 MLOAD PUSH1 0x1 PUSH1 0x1 PUSH1 0xA0 SHL SUB DUP2 AND DUP2 EQ PUSH2 0x15C JUMPI PUSH0 DUP1 REVERT JUMPDEST SWAP2 SWAP1 POP JUMP JUMPDEST PUSH0 DUP1 PUSH1 0x40 DUP4 DUP6 SUB SLT ISZERO PUSH2 0x172 JUMPI PUSH0 DUP1 REVERT JUMPDEST PUSH2 0x17B DUP4 PUSH2 0x146 JUMP JUMPDEST SWAP2 POP PUSH2 0x189 PUSH1 0x20 DUP5 ADD PUSH2 0x146 JUMP JUMPDEST SWAP1 POP SWAP3 POP SWAP3 SWAP1 POP JUMP JUMPDEST PUSH1 0x80 MLOAD PUSH2 0xFE3 PUSH2 0x1DB PUSH0 CODECOPY PUSH0 DUP2 DUP2 PUSH2 0x121 ADD MSTORE DUP2 DUP2 PUSH2 0x297 ADD MSTORE DUP2 DUP2 PUSH2 0x3FA ADD MSTORE DUP2 DUP2 PUSH2 0x631 ADD MSTORE DUP2 DUP2 PUSH2 0x811 ADD MSTORE DUP2 DUP2 PUSH2 0xA2E ADD MSTORE DUP2 DUP2 PUSH2 0xB3A ADD MSTORE PUSH2 0xBF3 ADD MSTORE PUSH2 0xFE3 PUSH0 RETURN INVALID PUSH1 0x80 PUSH1 0x40 MSTORE CALLVALUE DUP1 ISZERO PUSH2 0xF JUMPI PUSH0 DUP1 REVERT JUMPDEST POP PUSH1 0x4 CALLDATASIZE LT PUSH2 0x106 JUMPI PUSH0 CALLDATALOAD PUSH1 0xE0 SHR DUP1 PUSH4 0x7EADC843 GT PUSH2 0x9E JUMPI DUP1 PUSH4 0xCAF2FF6F GT PUSH2 0x6E JUMPI DUP1 PUSH4 0xCAF2FF6F EQ PUSH2 0x23D JUMPI DUP1 PUSH4 0xD73792A9 EQ PUSH2 0x250 JUMPI DUP1 PUSH4 0xE138818C EQ PUSH2 0x26C JUMPI DUP1 PUSH4 0xF2FDE38B EQ PUSH2 0x27F JUMPI DUP1 PUSH4 0xFC0C546A EQ PUSH2 0x292 JUMPI PUSH0 DUP1 REVERT JUMPDEST DUP1 PUSH4 0x7EADC843 EQ PUSH2 0x1F4 JUMPI DUP1 PUSH4 0x8DA5CB5B EQ PUSH2 0x207 JUMPI DUP1 PUSH4 0x99EFB067 EQ PUSH2 0x217 JUMPI DUP1 PUSH4 0xB3AB15FB EQ PUSH2 0x22A JUMPI PUSH0 DUP1 REVERT JUMPDEST DUP1 PUSH4 0x60B2E6D9 GT PUSH2 0xD9 JUMPI DUP1 PUSH4 0x60B2E6D9 EQ PUSH2 0x199 JUMPI DUP1 PUSH4 0x618815D6 EQ PUSH2 0x1AC JUMPI DUP1 PUSH4 0x715018A6 EQ PUSH2 0x1D9 JUMPI DUP1 PUSH4 0x7CD86D60 EQ PUSH2 0x1E1 JUMPI PUSH0 DUP1 REVERT JUMPDEST DUP1 PUSH4 0x2FCECCB2 EQ PUSH2 0x10A JUMPI DUP1 PUSH4 0x3013CE29 EQ PUSH2 0x11F JUMPI DUP1 PUSH4 0x36353E0D EQ PUSH2 0x15E JUMPI DUP1 PUSH4 0x570CA735 EQ PUSH2 0x186 JUMPI JUMPDEST PUSH0 DUP1 REVERT JUMPDEST PUSH2 0x11D PUSH2 0x118 CALLDATASIZE PUSH1 0x4 PUSH2 0xE02 JUMP JUMPDEST PUSH2 0x2B9 JUMP JUMPDEST STOP JUMPDEST PUSH32 0x0 JUMPDEST PUSH1 0x40 MLOAD PUSH1 0x1 PUSH1 0x1 PUSH1 0xA0 SHL SUB SWAP1 SWAP2 AND DUP2 MSTORE PUSH1 0x20 ADD JUMPDEST PUSH1 0x40 MLOAD DUP1 SWAP2 SUB SWAP1 RETURN JUMPDEST PUSH2 0x141 PUSH2 0x16C CALLDATASIZE PUSH1 0x4 PUSH2 0xE6E JUMP JUMPDEST PUSH1 0x4 PUSH1 0x20 MSTORE PUSH0 SWAP1 DUP2 MSTORE PUSH1 0x40 SWAP1 KECCAK256 SLOAD PUSH1 0x1 PUSH1 0x1 PUSH1 0xA0 SHL SUB AND DUP2 JUMP JUMPDEST PUSH1 0x1 SLOAD PUSH2 0x141 SWAP1 PUSH1 0x1 PUSH1 0x1 PUSH1 0xA0 SHL SUB AND DUP2 JUMP JUMPDEST PUSH2 0x11D PUSH2 0x1A7 CALLDATASIZE PUSH1 0x4 PUSH2 0xE85 JUMP JUMPDEST PUSH2 0x31A JUMP JUMPDEST PUSH2 0x1CB PUSH2 0x1BA CALLDATASIZE PUSH1 0x4 PUSH2 0xE6E JUMP JUMPDEST PUSH1 0x3 PUSH1 0x20 MSTORE PUSH0 SWAP1 DUP2 MSTORE PUSH1 0x40 SWAP1 KECCAK256 SLOAD DUP2 JUMP JUMPDEST PUSH1 0x40 MLOAD SWAP1 DUP2 MSTORE PUSH1 0x20 ADD PUSH2 0x155 JUMP JUMPDEST PUSH2 0x11D PUSH2 0x4DC JUMP JUMPDEST PUSH2 0x11D PUSH2 0x1EF CALLDATASIZE PUSH1 0x4 PUSH2 0xEA5 JUMP JUMPDEST PUSH2 0x4EF JUMP JUMPDEST PUSH2 0x11D PUSH2 0x202 CALLDATASIZE PUSH1 0x4 PUSH2 0xE02 JUMP JUMPDEST PUSH2 0x540 JUMP JUMPDEST PUSH0 SLOAD PUSH1 0x1 PUSH1 0x1 PUSH1 0xA0 SHL SUB AND PUSH2 0x141 JUMP JUMPDEST PUSH2 0x11D PUSH2 0x225 CALLDATASIZE PUSH1 0x4 PUSH2 0xE85 JUMP JUMPDEST PUSH2 0x583 JUMP JUMPDEST PUSH2 0x11D PUSH2 0x238 CALLDATASIZE PUSH1 0x4 PUSH2 0xEA5 JUMP JUMPDEST PUSH2 0x70C JUMP JUMPDEST PUSH2 0x11D PUSH2 0x24B CALLDATASIZE PUSH1 0x4 PUSH2 0xEC5 JUMP JUMPDEST PUSH2 0x75D JUMP JUMPDEST PUSH2 0x259 PUSH2 0x2710 DUP2 JUMP JUMPDEST PUSH1 0x40 MLOAD PUSH2 0xFFFF SWAP1 SWAP2 AND DUP2 MSTORE PUSH1 0x20 ADD PUSH2 0x155 JUMP JUMPDEST PUSH1 0x2 SLOAD PUSH2 0x141 SWAP1 PUSH1 0x1 PUSH1 0x1 PUSH1 0xA0 SHL SUB AND DUP2 JUMP JUMPDEST PUSH2 0x11D PUSH2 0x28D CALLDATASIZE PUSH1 0x4 PUSH2 0xEA5 JUMP JUMPDEST PUSH2 0x922 JUMP JUMPDEST PUSH2 0x141 PUSH32 0x0 DUP2 JUMP JUMPDEST PUSH1 0x1 SLOAD PUSH1 0x1 PUSH1 0x1 PUSH1 0xA0 SHL SUB AND CALLER EQ PUSH2 0x2E4 JUMPI PUSH1 0x40 MLOAD PUSH4 0x1F0853C1 PUSH1 0xE2 SHL DUP2 MSTORE PUSH1 0x4 ADD PUSH1 0x40 MLOAD DUP1 SWAP2 SUB SWAP1 REVERT JUMPDEST PUSH2 0x2EC PUSH2 0x964 JUMP JUMPDEST PUSH2 0x2FB DUP8 DUP7 DUP7 DUP7 DUP7 DUP7 PUSH0 PUSH2 0x97F JUMP JUMPDEST PUSH2 0x311 PUSH1 0x1 PUSH0 DUP1 MLOAD PUSH1 0x20 PUSH2 0xF8E DUP4 CODECOPY DUP2 MLOAD SWAP2 MSTORE SSTORE JUMP JUMPDEST POP POP POP POP POP POP POP JUMP JUMPDEST PUSH1 0x1 SLOAD PUSH1 0x1 PUSH1 0x1 PUSH1 0xA0 SHL SUB AND CALLER EQ PUSH2 0x345 JUMPI PUSH1 0x40 MLOAD PUSH4 0x1F0853C1 PUSH1 0xE2 SHL DUP2 MSTORE PUSH1 0x4 ADD PUSH1 0x40 MLOAD DUP1 SWAP2 SUB SWAP1 REVERT JUMPDEST PUSH2 0x34D PUSH2 0x964 JUMP JUMPDEST PUSH0 DUP3 DUP2 MSTORE PUSH1 0x3 PUSH1 0x20 MSTORE PUSH1 0x40 SWAP1 KECCAK256 SLOAD DUP2 GT ISZERO PUSH2 0x37B JUMPI PUSH1 0x40 MLOAD PUSH4 0x8E875AB1 PUSH1 0xE0 SHL DUP2 MSTORE PUSH1 0x4 ADD PUSH1 0x40 MLOAD DUP1 SWAP2 SUB SWAP1 REVERT JUMPDEST PUSH0 DUP3 DUP2 MSTORE PUSH1 0x4 PUSH1 0x20 MSTORE PUSH1 0x40 SWAP1 KECCAK256 SLOAD PUSH1 0x1 PUSH1 0x1 PUSH1 0xA0 SHL SUB AND DUP1 PUSH2 0x3B0 JUMPI PUSH1 0x40 MLOAD PUSH4 0xD92E233D PUSH1 0xE0 SHL DUP2 MSTORE PUSH1 0x4 ADD PUSH1 0x40 MLOAD DUP1 SWAP2 SUB SWAP1 REVERT JUMPDEST PUSH0 DUP4 DUP2 MSTORE PUSH1 0x3 PUSH1 0x20 MSTORE PUSH1 0x40 DUP2 KECCAK256 DUP1 SLOAD DUP5 SWAP3 SWAP1 PUSH2 0x3CD SWAP1 DUP5 SWAP1 PUSH2 0xF0C JUMP JUMPDEST SWAP1 SWAP2 SSTORE POP POP PUSH1 0x40 MLOAD PUSH4 0xA9059CBB PUSH1 0xE0 SHL DUP2 MSTORE PUSH1 0x1 PUSH1 0x1 PUSH1 0xA0 SHL SUB DUP3 DUP2 AND PUSH1 0x4 DUP4 ADD MSTORE PUSH1 0x24 DUP3 ADD DUP5 SWAP1 MSTORE PUSH0 SWAP2 PUSH32 0x0 SWAP1 SWAP2 AND SWAP1 PUSH4 0xA9059CBB SWAP1 PUSH1 0x44 ADD PUSH1 0x20 PUSH1 0x40 MLOAD DUP1 DUP4 SUB DUP2 PUSH0 DUP8 GAS CALL ISZERO DUP1 ISZERO PUSH2 0x442 JUMPI RETURNDATASIZE PUSH0 DUP1 RETURNDATACOPY RETURNDATASIZE PUSH0 REVERT JUMPDEST POP POP POP POP PUSH1 0x40 MLOAD RETURNDATASIZE PUSH1 0x1F NOT PUSH1 0x1F DUP3 ADD AND DUP3 ADD DUP1 PUSH1 0x40 MSTORE POP DUP2 ADD SWAP1 PUSH2 0x466 SWAP2 SWAP1 PUSH2 0xF25 JUMP JUMPDEST SWAP1 POP DUP1 PUSH2 0x486 JUMPI PUSH1 0x40 MLOAD PUSH4 0x12171D83 PUSH1 0xE3 SHL DUP2 MSTORE PUSH1 0x4 ADD PUSH1 0x40 MLOAD DUP1 SWAP2 SUB SWAP1 REVERT JUMPDEST DUP4 PUSH32 0x1F27A7467C6BFA6F1E20104EBA66FE0A222E69F23DD0AE30D5C24168E5E334E9 DUP5 PUSH1 0x40 MLOAD PUSH2 0x4B8 SWAP2 DUP2 MSTORE PUSH1 0x20 ADD SWAP1 JUMP JUMPDEST PUSH1 0x40 MLOAD DUP1 SWAP2 SUB SWAP1 LOG2 POP POP PUSH2 0x4D8 PUSH1 0x1 PUSH0 DUP1 MLOAD PUSH1 0x20 PUSH2 0xF8E DUP4 CODECOPY DUP2 MLOAD SWAP2 MSTORE SSTORE JUMP JUMPDEST POP POP JUMP JUMPDEST PUSH2 0x4E4 PUSH2 0xD2C JUMP JUMPDEST PUSH2 0x4ED PUSH0 PUSH2 0xD58 JUMP JUMPDEST JUMP JUMPDEST PUSH2 0x4F7 PUSH2 0xD2C JUMP JUMPDEST PUSH1 0x1 PUSH1 0x1 PUSH1 0xA0 SHL SUB DUP2 AND PUSH2 0x51E JUMPI PUSH1 0x40 MLOAD PUSH4 0xD92E233D PUSH1 0xE0 SHL DUP2 MSTORE PUSH1 0x4 ADD PUSH1 0x40 MLOAD DUP1 SWAP2 SUB SWAP1 REVERT JUMPDEST PUSH1 0x2 DUP1 SLOAD PUSH1 0x1 PUSH1 0x1 PUSH1 0xA0 SHL SUB NOT AND PUSH1 0x1 PUSH1 0x1 PUSH1 0xA0 SHL SUB SWAP3 SWAP1 SWAP3 AND SWAP2 SWAP1 SWAP2 OR SWAP1 SSTORE JUMP JUMPDEST PUSH1 0x1 SLOAD PUSH1 0x1 PUSH1 0x1 PUSH1 0xA0 SHL SUB AND CALLER EQ PUSH2 0x56B JUMPI PUSH1 0x40 MLOAD PUSH4 0x1F0853C1 PUSH1 0xE2 SHL DUP2 MSTORE PUSH1 0x4 ADD PUSH1 0x40 MLOAD DUP1 SWAP2 SUB SWAP1 REVERT JUMPDEST PUSH2 0x573 PUSH2 0x964 JUMP JUMPDEST PUSH2 0x2FB DUP8 DUP7 DUP7 DUP7 DUP7 DUP7 PUSH1 0x1 PUSH2 0x97F JUMP JUMPDEST PUSH1 0x1 SLOAD PUSH1 0x1 PUSH1 0x1 PUSH1 0xA0 SHL SUB AND CALLER EQ PUSH2 0x5AE JUMPI PUSH1 0x40 MLOAD PUSH4 0x1F0853C1 PUSH1 0xE2 SHL DUP2 MSTORE PUSH1 0x4 ADD PUSH1 0x40 MLOAD DUP1 SWAP2 SUB SWAP1 REVERT JUMPDEST PUSH2 0x5B6 PUSH2 0x964 JUMP JUMPDEST PUSH0 DUP3 DUP2 MSTORE PUSH1 0x3 PUSH1 0x20 MSTORE PUSH1 0x40 SWAP1 KECCAK256 SLOAD DUP2 GT ISZERO PUSH2 0x5E4 JUMPI PUSH1 0x40 MLOAD PUSH4 0x8E875AB1 PUSH1 0xE0 SHL DUP2 MSTORE PUSH1 0x4 ADD PUSH1 0x40 MLOAD DUP1 SWAP2 SUB SWAP1 REVERT JUMPDEST PUSH0 DUP3 DUP2 MSTORE PUSH1 0x3 PUSH1 0x20 MSTORE PUSH1 0x40 DUP2 KECCAK256 DUP1 SLOAD DUP4 SWAP3 SWAP1 PUSH2 0x601 SWAP1 DUP5 SWAP1 PUSH2 0xF0C JUMP JUMPDEST SWAP1 SWAP2 SSTORE POP POP PUSH1 0x2 SLOAD PUSH1 0x40 MLOAD PUSH4 0xA9059CBB PUSH1 0xE0 SHL DUP2 MSTORE PUSH1 0x1 PUSH1 0x1 PUSH1 0xA0 SHL SUB SWAP2 DUP3 AND PUSH1 0x4 DUP3 ADD MSTORE PUSH1 0x24 DUP2 ADD DUP4 SWAP1 MSTORE PUSH0 SWAP2 PUSH32 0x0 AND SWAP1 PUSH4 0xA9059CBB SWAP1 PUSH1 0x44 ADD PUSH1 0x20 PUSH1 0x40 MLOAD DUP1 DUP4 SUB DUP2 PUSH0 DUP8 GAS CALL ISZERO DUP1 ISZERO PUSH2 0x677 JUMPI RETURNDATASIZE PUSH0 DUP1 RETURNDATACOPY RETURNDATASIZE PUSH0 REVERT JUMPDEST POP POP POP POP PUSH1 0x40 MLOAD RETURNDATASIZE PUSH1 0x1F NOT PUSH1 0x1F DUP3 ADD AND DUP3 ADD DUP1 PUSH1 0x40 MSTORE POP DUP2 ADD SWAP1 PUSH2 0x69B SWAP2 SWAP1 PUSH2 0xF25 JUMP JUMPDEST SWAP1 POP DUP1 PUSH2 0x6BB JUMPI PUSH1 0x40 MLOAD PUSH4 0x12171D83 PUSH1 0xE3 SHL DUP2 MSTORE PUSH1 0x4 ADD PUSH1 0x40 MLOAD DUP1 SWAP2 SUB SWAP1 REVERT JUMPDEST DUP3 PUSH32 0xB9F005F49E12577D268572C05BBCAB6874DFBC9E53012E288F7D8828716D0D67 DUP4 PUSH1 0x40 MLOAD PUSH2 0x6ED SWAP2 DUP2 MSTORE PUSH1 0x20 ADD SWAP1 JUMP JUMPDEST PUSH1 0x40 MLOAD DUP1 SWAP2 SUB SWAP1 LOG2 POP PUSH2 0x4D8 PUSH1 0x1 PUSH0 DUP1 MLOAD PUSH1 0x20 PUSH2 0xF8E DUP4 CODECOPY DUP2 MLOAD SWAP2 MSTORE SSTORE JUMP JUMPDEST PUSH2 0x714 PUSH2 0xD2C JUMP JUMPDEST PUSH1 0x1 PUSH1 0x1 PUSH1 0xA0 SHL SUB DUP2 AND PUSH2 0x73B JUMPI PUSH1 0x40 MLOAD PUSH4 0xD92E233D PUSH1 0xE0 SHL DUP2 MSTORE PUSH1 0x4 ADD PUSH1 0x40 MLOAD DUP1 SWAP2 SUB SWAP1 REVERT JUMPDEST PUSH1 0x1 DUP1 SLOAD PUSH1 0x1 PUSH1 0x1 PUSH1 0xA0 SHL SUB NOT AND PUSH1 0x1 PUSH1 0x1 PUSH1 0xA0 SHL SUB SWAP3 SWAP1 SWAP3 AND SWAP2 SWAP1 SWAP2 OR SWAP1 SSTORE JUMP JUMPDEST PUSH1 0x1 SLOAD PUSH1 0x1 PUSH1 0x1 PUSH1 0xA0 SHL SUB AND CALLER EQ PUSH2 0x788 JUMPI PUSH1 0x40 MLOAD PUSH4 0x1F0853C1 PUSH1 0xE2 SHL DUP2 MSTORE PUSH1 0x4 ADD PUSH1 0x40 MLOAD DUP1 SWAP2 SUB SWAP1 REVERT JUMPDEST PUSH2 0x790 PUSH2 0x964 JUMP JUMPDEST PUSH1 0x1 PUSH1 0x1 PUSH1 0xA0 SHL SUB DUP3 AND PUSH2 0x7B7 JUMPI PUSH1 0x40 MLOAD PUSH4 0xD92E233D PUSH1 0xE0 SHL DUP2 MSTORE PUSH1 0x4 ADD PUSH1 0x40 MLOAD DUP1 SWAP2 SUB SWAP1 REVERT JUMPDEST PUSH0 DUP4 DUP2 MSTORE PUSH1 0x3 PUSH1 0x20 MSTORE PUSH1 0x40 SWAP1 KECCAK256 SLOAD ISZERO PUSH2 0x7E3 JUMPI PUSH1 0x40 MLOAD PUSH4 0xCFE7B425 PUSH1 0xE0 SHL DUP2 MSTORE PUSH1 0x4 ADD PUSH1 0x40 MLOAD DUP1 SWAP2 SUB SWAP1 REVERT JUMPDEST PUSH1 0x40 MLOAD PUSH4 0x23B872DD PUSH1 0xE0 SHL DUP2 MSTORE PUSH1 0x1 PUSH1 0x1 PUSH1 0xA0 SHL SUB DUP4 DUP2 AND PUSH1 0x4 DUP4 ADD MSTORE ADDRESS PUSH1 0x24 DUP4 ADD MSTORE PUSH1 0x44 DUP3 ADD DUP4 SWAP1 MSTORE PUSH0 SWAP2 PUSH32 0x0 SWAP1 SWAP2 AND SWAP1 PUSH4 0x23B872DD SWAP1 PUSH1 0x64 ADD PUSH1 0x20 PUSH1 0x40 MLOAD DUP1 DUP4 SUB DUP2 PUSH0 DUP8 GAS CALL ISZERO DUP1 ISZERO PUSH2 0x859 JUMPI RETURNDATASIZE PUSH0 DUP1 RETURNDATACOPY RETURNDATASIZE PUSH0 REVERT JUMPDEST POP POP POP POP PUSH1 0x40 MLOAD RETURNDATASIZE PUSH1 0x1F NOT PUSH1 0x1F DUP3 ADD AND DUP3 ADD DUP1 PUSH1 0x40 MSTORE POP DUP2 ADD SWAP1 PUSH2 0x87D SWAP2 SWAP1 PUSH2 0xF25 JUMP JUMPDEST SWAP1 POP DUP1 PUSH2 0x89D JUMPI PUSH1 0x40 MLOAD PUSH4 0x12171D83 PUSH1 0xE3 SHL DUP2 MSTORE PUSH1 0x4 ADD PUSH1 0x40 MLOAD DUP1 SWAP2 SUB SWAP1 REVERT JUMPDEST PUSH0 DUP5 DUP2 MSTORE PUSH1 0x3 PUSH1 0x20 SWAP1 DUP2 MSTORE PUSH1 0x40 DUP1 DUP4 KECCAK256 DUP6 SWAP1 SSTORE PUSH1 0x4 DUP3 MSTORE SWAP2 DUP3 SWAP1 KECCAK256 DUP1 SLOAD PUSH1 0x1 PUSH1 0x1 PUSH1 0xA0 SHL SUB NOT AND PUSH1 0x1 PUSH1 0x1 PUSH1 0xA0 SHL SUB DUP8 AND SWAP1 DUP2 OR SWAP1 SWAP2 SSTORE SWAP2 MLOAD DUP5 DUP2 MSTORE DUP7 SWAP2 PUSH32 0x4F556A805476EAD75322A2B36E63D096ED3DFAE11B2DAE2B3A5280786B6F44BE SWAP2 ADD PUSH1 0x40 MLOAD DUP1 SWAP2 SUB SWAP1 LOG3 POP PUSH2 0x91D PUSH1 0x1 PUSH0 DUP1 MLOAD PUSH1 0x20 PUSH2 0xF8E DUP4 CODECOPY DUP2 MLOAD SWAP2 MSTORE SSTORE JUMP JUMPDEST POP POP POP JUMP JUMPDEST PUSH2 0x92A PUSH2 0xD2C JUMP JUMPDEST PUSH1 0x1 PUSH1 0x1 PUSH1 0xA0 SHL SUB DUP2 AND PUSH2 0x958 JUMPI PUSH1 0x40 MLOAD PUSH4 0x1E4FBDF7 PUSH1 0xE0 SHL DUP2 MSTORE PUSH0 PUSH1 0x4 DUP3 ADD MSTORE PUSH1 0x24 ADD JUMPDEST PUSH1 0x40 MLOAD DUP1 SWAP2 SUB SWAP1 REVERT JUMPDEST PUSH2 0x961 DUP2 PUSH2 0xD58 JUMP JUMPDEST POP JUMP JUMPDEST PUSH2 0x96C PUSH2 0xDA7 JUMP JUMPDEST PUSH1 0x2 PUSH0 DUP1 MLOAD PUSH1 0x20 PUSH2 0xF8E DUP4 CODECOPY DUP2 MLOAD SWAP2 MSTORE SSTORE JUMP JUMPDEST PUSH1 0x1 PUSH1 0x1 PUSH1 0xA0 SHL SUB DUP6 AND PUSH2 0x9A6 JUMPI PUSH1 0x40 MLOAD PUSH4 0xD92E233D PUSH1 0xE0 SHL DUP2 MSTORE PUSH1 0x4 ADD PUSH1 0x40 MLOAD DUP1 SWAP2 SUB SWAP1 REVERT JUMPDEST PUSH1 0x1 PUSH1 0x1 PUSH1 0xA0 SHL SUB DUP7 AND PUSH2 0x9CD JUMPI PUSH1 0x40 MLOAD PUSH4 0xD92E233D PUSH1 0xE0 SHL DUP2 MSTORE PUSH1 0x4 ADD PUSH1 0x40 MLOAD DUP1 SWAP2 SUB SWAP1 REVERT JUMPDEST PUSH2 0x2710 PUSH2 0x9E1 PUSH2 0xFFFF DUP5 DUP2 AND SWAP1 DUP7 AND PUSH2 0xF44 JUMP JUMPDEST GT ISZERO PUSH2 0xA00 JUMPI PUSH1 0x40 MLOAD PUSH4 0xCA253493 PUSH1 0xE0 SHL DUP2 MSTORE PUSH1 0x4 ADD PUSH1 0x40 MLOAD DUP1 SWAP2 SUB SWAP1 REVERT JUMPDEST PUSH1 0x40 MLOAD PUSH4 0x23B872DD PUSH1 0xE0 SHL DUP2 MSTORE PUSH1 0x1 PUSH1 0x1 PUSH1 0xA0 SHL SUB DUP8 DUP2 AND PUSH1 0x4 DUP4 ADD MSTORE ADDRESS PUSH1 0x24 DUP4 ADD MSTORE PUSH1 0x44 DUP3 ADD DUP7 SWAP1 MSTORE PUSH0 SWAP2 PUSH32 0x0 SWAP1 SWAP2 AND SWAP1 PUSH4 0x23B872DD SWAP1 PUSH1 0x64 ADD PUSH1 0x20 PUSH1 0x40 MLOAD DUP1 DUP4 SUB DUP2 PUSH0 DUP8 GAS CALL ISZERO DUP1 ISZERO PUSH2 0xA76 JUMPI RETURNDATASIZE PUSH0 DUP1 RETURNDATACOPY RETURNDATASIZE PUSH0 REVERT JUMPDEST POP POP POP POP PUSH1 0x40 MLOAD RETURNDATASIZE PUSH1 0x1F NOT PUSH1 0x1F DUP3 ADD AND DUP3 ADD DUP1 PUSH1 0x40 MSTORE POP DUP2 ADD SWAP1 PUSH2 0xA9A SWAP2 SWAP1 PUSH2 0xF25 JUMP JUMPDEST SWAP1 POP DUP1 PUSH2 0xABA JUMPI PUSH1 0x40 MLOAD PUSH4 0x12171D83 PUSH1 0xE3 SHL DUP2 MSTORE PUSH1 0x4 ADD PUSH1 0x40 MLOAD DUP1 SWAP2 SUB SWAP1 REVERT JUMPDEST PUSH0 PUSH2 0x2710 PUSH2 0xACC PUSH2 0xFFFF DUP8 AND DUP9 PUSH2 0xF57 JUMP JUMPDEST PUSH2 0xAD6 SWAP2 SWAP1 PUSH2 0xF6E JUMP JUMPDEST SWAP1 POP PUSH0 PUSH2 0x2710 PUSH2 0xAEA PUSH2 0xFFFF DUP8 AND DUP10 PUSH2 0xF57 JUMP JUMPDEST PUSH2 0xAF4 SWAP2 SWAP1 PUSH2 0xF6E JUMP JUMPDEST SWAP1 POP PUSH0 DUP2 PUSH2 0xB02 DUP5 DUP11 PUSH2 0xF0C JUMP JUMPDEST PUSH2 0xB0C SWAP2 SWAP1 PUSH2 0xF0C JUMP JUMPDEST SWAP1 POP DUP1 ISZERO PUSH2 0xBC4 JUMPI PUSH1 0x40 MLOAD PUSH4 0xA9059CBB PUSH1 0xE0 SHL DUP2 MSTORE PUSH1 0x1 PUSH1 0x1 PUSH1 0xA0 SHL SUB DUP11 DUP2 AND PUSH1 0x4 DUP4 ADD MSTORE PUSH1 0x24 DUP3 ADD DUP4 SWAP1 MSTORE PUSH32 0x0 AND SWAP1 PUSH4 0xA9059CBB SWAP1 PUSH1 0x44 ADD PUSH1 0x20 PUSH1 0x40 MLOAD DUP1 DUP4 SUB DUP2 PUSH0 DUP8 GAS CALL ISZERO DUP1 ISZERO PUSH2 0xB80 JUMPI RETURNDATASIZE PUSH0 DUP1 RETURNDATACOPY RETURNDATASIZE PUSH0 REVERT JUMPDEST POP POP POP POP PUSH1 0x40 MLOAD RETURNDATASIZE PUSH1 0x1F NOT PUSH1 0x1F DUP3 ADD AND DUP3 ADD DUP1 PUSH1 0x40 MSTORE POP DUP2 ADD SWAP1 PUSH2 0xBA4 SWAP2 SWAP1 PUSH2 0xF25 JUMP JUMPDEST SWAP4 POP DUP4 PUSH2 0xBC4 JUMPI PUSH1 0x40 MLOAD PUSH4 0x12171D83 PUSH1 0xE3 SHL DUP2 MSTORE PUSH1 0x4 ADD PUSH1 0x40 MLOAD DUP1 SWAP2 SUB SWAP1 REVERT JUMPDEST DUP3 ISZERO PUSH2 0xC7F JUMPI PUSH1 0x2 SLOAD PUSH1 0x40 MLOAD PUSH4 0xA9059CBB PUSH1 0xE0 SHL DUP2 MSTORE PUSH1 0x1 PUSH1 0x1 PUSH1 0xA0 SHL SUB SWAP2 DUP3 AND PUSH1 0x4 DUP3 ADD MSTORE PUSH1 0x24 DUP2 ADD DUP6 SWAP1 MSTORE PUSH32 0x0 SWAP1 SWAP2 AND SWAP1 PUSH4 0xA9059CBB SWAP1 PUSH1 0x44 ADD PUSH1 0x20 PUSH1 0x40 MLOAD DUP1 DUP4 SUB DUP2 PUSH0 DUP8 GAS CALL ISZERO DUP1 ISZERO PUSH2 0xC3B JUMPI RETURNDATASIZE PUSH0 DUP1 RETURNDATACOPY RETURNDATASIZE PUSH0 REVERT JUMPDEST POP POP POP POP PUSH1 0x40 MLOAD RETURNDATASIZE PUSH1 0x1F NOT PUSH1 0x1F DUP3 ADD AND DUP3 ADD DUP1 PUSH1 0x40 MSTORE POP DUP2 ADD SWAP1 PUSH2 0xC5F SWAP2 SWAP1 PUSH2 0xF25 JUMP JUMPDEST SWAP4 POP DUP4 PUSH2 0xC7F JUMPI PUSH1 0x40 MLOAD PUSH4 0x12171D83 PUSH1 0xE3 SHL DUP2 MSTORE PUSH1 0x4 ADD PUSH1 0x40 MLOAD DUP1 SWAP2 SUB SWAP1 REVERT JUMPDEST DUP5 ISZERO PUSH2 0xCD4 JUMPI PUSH1 0x40 DUP1 MLOAD DUP10 DUP2 MSTORE PUSH1 0x20 DUP2 ADD DUP4 SWAP1 MSTORE SWAP1 DUP2 ADD DUP5 SWAP1 MSTORE PUSH1 0x60 DUP2 ADD DUP4 SWAP1 MSTORE DUP12 SWAP1 PUSH32 0xB05FA9A925CE4AD8854B62FE935ECD827B85FA0F37D61399F74EB59894EF145B SWAP1 PUSH1 0x80 ADD PUSH1 0x40 MLOAD DUP1 SWAP2 SUB SWAP1 LOG2 PUSH2 0xD1F JUMP JUMPDEST PUSH1 0x40 DUP1 MLOAD DUP10 DUP2 MSTORE PUSH1 0x20 DUP2 ADD DUP4 SWAP1 MSTORE SWAP1 DUP2 ADD DUP5 SWAP1 MSTORE PUSH1 0x60 DUP2 ADD DUP4 SWAP1 MSTORE DUP12 SWAP1 PUSH32 0xC68022CF9DCAE042BF8AA399A2F033F5EE2F535702277D2D5E68C799573BE85 SWAP1 PUSH1 0x80 ADD PUSH1 0x40 MLOAD DUP1 SWAP2 SUB SWAP1 LOG2 JUMPDEST POP POP POP POP POP POP POP POP POP POP POP JUMP JUMPDEST PUSH0 SLOAD PUSH1 0x1 PUSH1 0x1 PUSH1 0xA0 SHL SUB AND CALLER EQ PUSH2 0x4ED JUMPI PUSH1 0x40 MLOAD PUSH4 0x118CDAA7 PUSH1 0xE0 SHL DUP2 MSTORE CALLER PUSH1 0x4 DUP3 ADD MSTORE PUSH1 0x24 ADD PUSH2 0x94F JUMP JUMPDEST PUSH0 DUP1 SLOAD PUSH1 0x1 PUSH1 0x1 PUSH1 0xA0 SHL SUB DUP4 DUP2 AND PUSH1 0x1 PUSH1 0x1 PUSH1 0xA0 SHL SUB NOT DUP4 AND DUP2 OR DUP5 SSTORE PUSH1 0x40 MLOAD SWAP2 SWAP1 SWAP3 AND SWAP3 DUP4 SWAP2 PUSH32 0x8BE0079C531659141344CD1FD0A4F28419497F9722A3DAAFE3B4186F6B6457E0 SWAP2 SWAP1 LOG3 POP POP JUMP JUMPDEST PUSH0 DUP1 MLOAD PUSH1 0x20 PUSH2 0xF8E DUP4 CODECOPY DUP2 MLOAD SWAP2 MSTORE SLOAD PUSH1 0x2 SUB PUSH2 0x4ED JUMPI PUSH1 0x40 MLOAD PUSH4 0x3EE5AEB5 PUSH1 0xE0 SHL DUP2 MSTORE PUSH1 0x4 ADD PUSH1 0x40 MLOAD DUP1 SWAP2 SUB SWAP1 REVERT JUMPDEST DUP1 CALLDATALOAD PUSH1 0x1 PUSH1 0x1 PUSH1 0xA0 SHL SUB DUP2 AND DUP2 EQ PUSH2 0xDEC JUMPI PUSH0 DUP1 REVERT JUMPDEST SWAP2 SWAP1 POP JUMP JUMPDEST DUP1 CALLDATALOAD PUSH2 0xFFFF DUP2 AND DUP2 EQ PUSH2 0xDEC JUMPI PUSH0 DUP1 REVERT JUMPDEST PUSH0 DUP1 PUSH0 DUP1 PUSH0 DUP1 PUSH0 PUSH1 0xE0 DUP9 DUP11 SUB SLT ISZERO PUSH2 0xE18 JUMPI PUSH0 DUP1 REVERT JUMPDEST DUP8 CALLDATALOAD SWAP7 POP PUSH1 0x20 DUP9 ADD CALLDATALOAD SWAP6 POP PUSH2 0xE2F PUSH1 0x40 DUP10 ADD PUSH2 0xDD6 JUMP JUMPDEST SWAP5 POP PUSH2 0xE3D PUSH1 0x60 DUP10 ADD PUSH2 0xDD6 JUMP JUMPDEST SWAP4 POP PUSH1 0x80 DUP9 ADD CALLDATALOAD SWAP3 POP PUSH2 0xE52 PUSH1 0xA0 DUP10 ADD PUSH2 0xDF1 JUMP JUMPDEST SWAP2 POP PUSH2 0xE60 PUSH1 0xC0 DUP10 ADD PUSH2 0xDF1 JUMP JUMPDEST SWAP1 POP SWAP3 SWAP6 SWAP9 SWAP2 SWAP5 SWAP8 POP SWAP3 SWAP6 POP JUMP JUMPDEST PUSH0 PUSH1 0x20 DUP3 DUP5 SUB SLT ISZERO PUSH2 0xE7E JUMPI PUSH0 DUP1 REVERT JUMPDEST POP CALLDATALOAD SWAP2 SWAP1 POP JUMP JUMPDEST PUSH0 DUP1 PUSH1 0x40 DUP4 DUP6 SUB SLT ISZERO PUSH2 0xE96 JUMPI PUSH0 DUP1 REVERT JUMPDEST POP POP DUP1 CALLDATALOAD SWAP3 PUSH1 0x20 SWAP1 SWAP2 ADD CALLDATALOAD SWAP2 POP JUMP JUMPDEST PUSH0 PUSH1 0x20 DUP3 DUP5 SUB SLT ISZERO PUSH2 0xEB5 JUMPI PUSH0 DUP1 REVERT JUMPDEST PUSH2 0xEBE DUP3 PUSH2 0xDD6 JUMP JUMPDEST SWAP4 SWAP3 POP POP POP JUMP JUMPDEST PUSH0 DUP1 PUSH0 PUSH1 0x60 DUP5 DUP7 SUB SLT ISZERO PUSH2 0xED7 JUMPI PUSH0 DUP1 REVERT JUMPDEST DUP4 CALLDATALOAD SWAP3 POP PUSH2 0xEE7 PUSH1 0x20 DUP6 ADD PUSH2 0xDD6 JUMP JUMPDEST SWAP3 SWAP6 SWAP3 SWAP5 POP POP POP PUSH1 0x40 SWAP2 SWAP1 SWAP2 ADD CALLDATALOAD SWAP1 JUMP JUMPDEST PUSH4 0x4E487B71 PUSH1 0xE0 SHL PUSH0 MSTORE PUSH1 0x11 PUSH1 0x4 MSTORE PUSH1 0x24 PUSH0 REVERT JUMPDEST DUP2 DUP2 SUB DUP2 DUP2 GT ISZERO PUSH2 0xF1F JUMPI PUSH2 0xF1F PUSH2 0xEF8 JUMP JUMPDEST SWAP3 SWAP2 POP POP JUMP JUMPDEST PUSH0 PUSH1 0x20 DUP3 DUP5 SUB SLT ISZERO PUSH2 0xF35 JUMPI PUSH0 DUP1 REVERT JUMPDEST DUP2 MLOAD DUP1 ISZERO ISZERO DUP2 EQ PUSH2 0xEBE JUMPI PUSH0 DUP1 REVERT JUMPDEST DUP1 DUP3 ADD DUP1 DUP3 GT ISZERO PUSH2 0xF1F JUMPI PUSH2 0xF1F PUSH2 0xEF8 JUMP JUMPDEST DUP1 DUP3 MUL DUP2 ISZERO DUP3 DUP3 DIV DUP5 EQ OR PUSH2 0xF1F JUMPI PUSH2 0xF1F PUSH2 0xEF8 JUMP JUMPDEST PUSH0 DUP3 PUSH2 0xF88 JUMPI PUSH4 0x4E487B71 PUSH1 0xE0 SHL PUSH0 MSTORE PUSH1 0x12 PUSH1 0x4 MSTORE PUSH1 0x24 PUSH0 REVERT JUMPDEST POP DIV SWAP1 JUMP INVALID SWAP12 PUSH24 0x9B17422D0DF92223018B32B4D1FA46E071723D6817E2486D STOP EXTCODESIZE 0xEC 0xC5 PUSH0 STOP LOG2 PUSH5 0x6970667358 0x22 SLT KECCAK256 DUP10 LOG2 JUMP 0x4F 0xFB DUP1 DIV DUP8 0xAD 0xB1 STATICCALL PUSH13 0xF7E5CEC83349012F34D5E8A8DD GT CALLVALUE PC 0xCA MULMOD 0xB7 JUMP PUSH5 0x736F6C6343 STOP ADDMOD BYTE STOP CALLER "},"methodIdentifiers":{"FEE_DENOMINATOR()":"d73792a9","captureDeposit(bytes32,uint256)":"99efb067","depositPayer(bytes32)":"36353e0d","heldAmount(bytes32)":"618815d6","holdDeposit(bytes32,address,uint256)":"caf2ff6f","operator()":"570ca735","owner()":"8da5cb5b","paymentToken()":"3013ce29","platformTreasury()":"e138818c","releaseDeposit(bytes32,uint256)":"60b2e6d9","renounceOwnership()":"715018a6","setOperator(address)":"b3ab15fb","setPlatformTreasury(address)":"7cd86d60","settleCompute(bytes32,bytes32,address,address,uint256,uint16,uint16)":"2fceccb2","settleUsage(bytes32,bytes32,address,address,uint256,uint16,uint16)":"7eadc843","token()":"fc0c546a","transferOwnership(address)":"f2fde38b"}}}}}