{
  "_format": "hh-sol-artifact-1",
  "contractName": "MockERC721",
  "sourceName": "contracts/MockERC721.sol",
  "abi": [
    {
      "inputs": [],
      "stateMutability": "nonpayable",
      "type": "constructor"
    },
    {
      "inputs": [
        {
          "internalType": "address",
          "name": "sender",
          "type": "address"
        },
        {
          "internalType": "uint256",
          "name": "tokenId",
          "type": "uint256"
        },
        {
          "internalType": "address",
          "name": "owner",
          "type": "address"
        }
      ],
      "name": "ERC721IncorrectOwner",
      "type": "error"
    },
    {
      "inputs": [
        {
          "internalType": "address",
          "name": "operator",
          "type": "address"
        },
        {
          "internalType": "uint256",
          "name": "tokenId",
          "type": "uint256"
        }
      ],
      "name": "ERC721InsufficientApproval",
      "type": "error"
    },
    {
      "inputs": [
        {
          "internalType": "address",
          "name": "approver",
          "type": "address"
        }
      ],
      "name": "ERC721InvalidApprover",
      "type": "error"
    },
    {
      "inputs": [
        {
          "internalType": "address",
          "name": "operator",
          "type": "address"
        }
      ],
      "name": "ERC721InvalidOperator",
      "type": "error"
    },
    {
      "inputs": [
        {
          "internalType": "address",
          "name": "owner",
          "type": "address"
        }
      ],
      "name": "ERC721InvalidOwner",
      "type": "error"
    },
    {
      "inputs": [
        {
          "internalType": "address",
          "name": "receiver",
          "type": "address"
        }
      ],
      "name": "ERC721InvalidReceiver",
      "type": "error"
    },
    {
      "inputs": [
        {
          "internalType": "address",
          "name": "sender",
          "type": "address"
        }
      ],
      "name": "ERC721InvalidSender",
      "type": "error"
    },
    {
      "inputs": [
        {
          "internalType": "uint256",
          "name": "tokenId",
          "type": "uint256"
        }
      ],
      "name": "ERC721NonexistentToken",
      "type": "error"
    },
    {
      "anonymous": false,
      "inputs": [
        {
          "indexed": true,
          "internalType": "address",
          "name": "owner",
          "type": "address"
        },
        {
          "indexed": true,
          "internalType": "address",
          "name": "approved",
          "type": "address"
        },
        {
          "indexed": true,
          "internalType": "uint256",
          "name": "tokenId",
          "type": "uint256"
        }
      ],
      "name": "Approval",
      "type": "event"
    },
    {
      "anonymous": false,
      "inputs": [
        {
          "indexed": true,
          "internalType": "address",
          "name": "owner",
          "type": "address"
        },
        {
          "indexed": true,
          "internalType": "address",
          "name": "operator",
          "type": "address"
        },
        {
          "indexed": false,
          "internalType": "bool",
          "name": "approved",
          "type": "bool"
        }
      ],
      "name": "ApprovalForAll",
      "type": "event"
    },
    {
      "anonymous": false,
      "inputs": [
        {
          "indexed": true,
          "internalType": "address",
          "name": "from",
          "type": "address"
        },
        {
          "indexed": true,
          "internalType": "address",
          "name": "to",
          "type": "address"
        },
        {
          "indexed": true,
          "internalType": "uint256",
          "name": "tokenId",
          "type": "uint256"
        }
      ],
      "name": "Transfer",
      "type": "event"
    },
    {
      "inputs": [
        {
          "internalType": "address",
          "name": "to",
          "type": "address"
        },
        {
          "internalType": "uint256",
          "name": "tokenId",
          "type": "uint256"
        }
      ],
      "name": "approve",
      "outputs": [],
      "stateMutability": "nonpayable",
      "type": "function"
    },
    {
      "inputs": [
        {
          "internalType": "address",
          "name": "owner",
          "type": "address"
        }
      ],
      "name": "balanceOf",
      "outputs": [
        {
          "internalType": "uint256",
          "name": "",
          "type": "uint256"
        }
      ],
      "stateMutability": "view",
      "type": "function"
    },
    {
      "inputs": [
        {
          "internalType": "uint256",
          "name": "tokenId",
          "type": "uint256"
        }
      ],
      "name": "getApproved",
      "outputs": [
        {
          "internalType": "address",
          "name": "",
          "type": "address"
        }
      ],
      "stateMutability": "view",
      "type": "function"
    },
    {
      "inputs": [
        {
          "internalType": "address",
          "name": "owner",
          "type": "address"
        },
        {
          "internalType": "address",
          "name": "operator",
          "type": "address"
        }
      ],
      "name": "isApprovedForAll",
      "outputs": [
        {
          "internalType": "bool",
          "name": "",
          "type": "bool"
        }
      ],
      "stateMutability": "view",
      "type": "function"
    },
    {
      "inputs": [
        {
          "internalType": "address",
          "name": "to",
          "type": "address"
        }
      ],
      "name": "mint",
      "outputs": [
        {
          "internalType": "uint256",
          "name": "tokenId",
          "type": "uint256"
        }
      ],
      "stateMutability": "nonpayable",
      "type": "function"
    },
    {
      "inputs": [],
      "name": "name",
      "outputs": [
        {
          "internalType": "string",
          "name": "",
          "type": "string"
        }
      ],
      "stateMutability": "view",
      "type": "function"
    },
    {
      "inputs": [],
      "name": "nextTokenId",
      "outputs": [
        {
          "internalType": "uint256",
          "name": "",
          "type": "uint256"
        }
      ],
      "stateMutability": "view",
      "type": "function"
    },
    {
      "inputs": [
        {
          "internalType": "uint256",
          "name": "tokenId",
          "type": "uint256"
        }
      ],
      "name": "ownerOf",
      "outputs": [
        {
          "internalType": "address",
          "name": "",
          "type": "address"
        }
      ],
      "stateMutability": "view",
      "type": "function"
    },
    {
      "inputs": [
        {
          "internalType": "address",
          "name": "from",
          "type": "address"
        },
        {
          "internalType": "address",
          "name": "to",
          "type": "address"
        },
        {
          "internalType": "uint256",
          "name": "tokenId",
          "type": "uint256"
        }
      ],
      "name": "safeTransferFrom",
      "outputs": [],
      "stateMutability": "nonpayable",
      "type": "function"
    },
    {
      "inputs": [
        {
          "internalType": "address",
          "name": "from",
          "type": "address"
        },
        {
          "internalType": "address",
          "name": "to",
          "type": "address"
        },
        {
          "internalType": "uint256",
          "name": "tokenId",
          "type": "uint256"
        },
        {
          "internalType": "bytes",
          "name": "data",
          "type": "bytes"
        }
      ],
      "name": "safeTransferFrom",
      "outputs": [],
      "stateMutability": "nonpayable",
      "type": "function"
    },
    {
      "inputs": [
        {
          "internalType": "address",
          "name": "operator",
          "type": "address"
        },
        {
          "internalType": "bool",
          "name": "approved",
          "type": "bool"
        }
      ],
      "name": "setApprovalForAll",
      "outputs": [],
      "stateMutability": "nonpayable",
      "type": "function"
    },
    {
      "inputs": [
        {
          "internalType": "bytes4",
          "name": "interfaceId",
          "type": "bytes4"
        }
      ],
      "name": "supportsInterface",
      "outputs": [
        {
          "internalType": "bool",
          "name": "",
          "type": "bool"
        }
      ],
      "stateMutability": "view",
      "type": "function"
    },
    {
      "inputs": [],
      "name": "symbol",
      "outputs": [
        {
          "internalType": "string",
          "name": "",
          "type": "string"
        }
      ],
      "stateMutability": "view",
      "type": "function"
    },
    {
      "inputs": [
        {
          "internalType": "uint256",
          "name": "tokenId",
          "type": "uint256"
        }
      ],
      "name": "tokenURI",
      "outputs": [
        {
          "internalType": "string",
          "name": "",
          "type": "string"
        }
      ],
      "stateMutability": "view",
      "type": "function"
    },
    {
      "inputs": [
        {
          "internalType": "address",
          "name": "from",
          "type": "address"
        },
        {
          "internalType": "address",
          "name": "to",
          "type": "address"
        },
        {
          "internalType": "uint256",
          "name": "tokenId",
          "type": "uint256"
        }
      ],
      "name": "transferFrom",
      "outputs": [],
      "stateMutability": "nonpayable",
      "type": "function"
    }
  ],
  "bytecode": "0x60806040526001600655348015610014575f80fd5b506040518060400160405280601081526020016f135bd8dac8155cd859d948149a59da1d60821b8152506040518060400160405280600581526020016436a729aaa960d91b815250815f908161006a9190610117565b5060016100778282610117565b5050506101d1565b634e487b7160e01b5f52604160045260245ffd5b600181811c908216806100a757607f821691505b6020821081036100c557634e487b7160e01b5f52602260045260245ffd5b50919050565b601f82111561011257805f5260205f20601f840160051c810160208510156100f05750805b601f840160051c820191505b8181101561010f575f81556001016100fc565b50505b505050565b81516001600160401b038111156101305761013061007f565b6101448161013e8454610093565b846100cb565b6020601f821160018114610176575f831561015f5750848201515b5f19600385901b1c1916600184901b17845561010f565b5f84815260208120601f198516915b828110156101a55787850151825560209485019460019092019101610185565b50848210156101c257868401515f19600387901b60f8161c191681555b50505050600190811b01905550565b610f86806101de5f395ff3fe608060405234801561000f575f80fd5b50600436106100f0575f3560e01c80636a62784211610093578063a22cb46511610063578063a22cb465146101ef578063b88d4fde14610202578063c87b56dd14610215578063e985e9c514610228575f80fd5b80636a627842146101aa57806370a08231146101cb57806375794a3c146101de57806395d89b41146101e7575f80fd5b8063095ea7b3116100ce578063095ea7b31461015c57806323b872dd1461017157806342842e0e146101845780636352211e14610197575f80fd5b806301ffc9a7146100f457806306fdde031461011c578063081812fc14610131575b5f80fd5b610107610102366004610c14565b61023b565b60405190151581526020015b60405180910390f35b61012461028c565b6040516101139190610c5d565b61014461013f366004610c6f565b61031b565b6040516001600160a01b039091168152602001610113565b61016f61016a366004610c9c565b610342565b005b61016f61017f366004610cc4565b610351565b61016f610192366004610cc4565b6103df565b6101446101a5366004610c6f565b6103fe565b6101bd6101b8366004610cfe565b610408565b604051908152602001610113565b6101bd6101d9366004610cfe565b61042d565b6101bd60065481565b610124610472565b61016f6101fd366004610d17565b610481565b61016f610210366004610d64565b61048c565b610124610223366004610c6f565b6104a4565b610107610236366004610e41565b610515565b5f6001600160e01b031982166380ac58cd60e01b148061026b57506001600160e01b03198216635b5e139f60e01b145b8061028657506301ffc9a760e01b6001600160e01b03198316145b92915050565b60605f805461029a90610e72565b80601f01602080910402602001604051908101604052809291908181526020018280546102c690610e72565b80156103115780601f106102e857610100808354040283529160200191610311565b820191905f5260205f20905b8154815290600101906020018083116102f457829003601f168201915b5050505050905090565b5f61032582610542565b505f828152600460205260409020546001600160a01b0316610286565b61034d82823361057a565b5050565b6001600160a01b03821661037f57604051633250574960e11b81525f60048201526024015b60405180910390fd5b5f61038b838333610587565b9050836001600160a01b0316816001600160a01b0316146103d9576040516364283d7b60e01b81526001600160a01b0380861660048301526024820184905282166044820152606401610376565b50505050565b6103f983838360405180602001604052805f81525061048c565b505050565b5f61028682610542565b600680545f918261041883610eaa565b9190505590506104288282610679565b919050565b5f6001600160a01b038216610457576040516322718ad960e21b81525f6004820152602401610376565b506001600160a01b03165f9081526003602052604090205490565b60606001805461029a90610e72565b61034d3383836106da565b610497848484610351565b6103d933858585856107a1565b60606104af82610542565b505f6104c560408051602081019091525f815290565b90505f8151116104e35760405180602001604052805f81525061050e565b806104ed846108c9565b6040516020016104fe929190610ee5565b6040516020818303038152906040525b9392505050565b6001600160a01b039182165f90815260056020908152604080832093909416825291909152205460ff1690565b5f818152600260205260408120546001600160a01b03168061028657604051637e27328960e01b815260048101849052602401610376565b6103f98383836001610959565b5f828152600260205260408120546001600160a01b03908116908316156105b3576105b3818486610a5d565b6001600160a01b038116156105ed576105ce5f855f80610959565b6001600160a01b0381165f90815260036020526040902080545f190190555b6001600160a01b0385161561061b576001600160a01b0385165f908152600360205260409020805460010190555b5f8481526002602052604080822080546001600160a01b0319166001600160a01b0389811691821790925591518793918516917fddf252ad1be2c89b69c2b068fc378daa952ba7f163c4a11628f55a4df523b3ef91a4949350505050565b6001600160a01b0382166106a257604051633250574960e11b81525f6004820152602401610376565b5f6106ae83835f610587565b90506001600160a01b038116156103f9576040516339e3563760e11b81525f6004820152602401610376565b6001600160a01b0383166107035760405163a9fbf51f60e01b81525f6004820152602401610376565b6001600160a01b03821661073557604051630b61174360e31b81526001600160a01b0383166004820152602401610376565b6001600160a01b038381165f81815260056020908152604080832094871680845294825291829020805460ff191686151590811790915591519182527f17307eab39ab6107e8899845ad3d59bd9653f200f220920489ca2b5937696c31910160405180910390a3505050565b6001600160a01b0383163b156108c257604051630a85bd0160e11b81526001600160a01b0384169063150b7a02906107e3908890889087908790600401610ef9565b6020604051808303815f875af192505050801561081d575060408051601f3d908101601f1916820190925261081a91810190610f35565b60015b610884573d80801561084a576040519150601f19603f3d011682016040523d82523d5f602084013e61084f565b606091505b5080515f0361087c57604051633250574960e11b81526001600160a01b0385166004820152602401610376565b805160208201fd5b6001600160e01b03198116630a85bd0160e11b146108c057604051633250574960e11b81526001600160a01b0385166004820152602401610376565b505b5050505050565b60605f6108d583610ac1565b60010190505f8167ffffffffffffffff8111156108f4576108f4610d50565b6040519080825280601f01601f19166020018201604052801561091e576020820181803683370190505b5090508181016020015b5f19016f181899199a1a9b1b9c1cb0b131b232b360811b600a86061a8153600a850494508461092857509392505050565b808061096d57506001600160a01b03821615155b15610a2e575f61097c84610542565b90506001600160a01b038316158015906109a85750826001600160a01b0316816001600160a01b031614155b80156109bb57506109b98184610515565b155b156109e45760405163a9fbf51f60e01b81526001600160a01b0384166004820152602401610376565b8115610a2c5783856001600160a01b0316826001600160a01b03167f8c5be1e5ebec7d5bd14f71427d1e84f3dd0314c0f7b2291e5b200ac8c7c3b92560405160405180910390a45b505b50505f90815260046020526040902080546001600160a01b0319166001600160a01b0392909216919091179055565b610a68838383610b98565b6103f9576001600160a01b038316610a9657604051637e27328960e01b815260048101829052602401610376565b60405163177e802f60e01b81526001600160a01b038316600482015260248101829052604401610376565b5f8072184f03e93ff9f4daa797ed6e38ed64bf6a1f0160401b8310610aff5772184f03e93ff9f4daa797ed6e38ed64bf6a1f0160401b830492506040015b6d04ee2d6d415b85acef81000000008310610b2b576d04ee2d6d415b85acef8100000000830492506020015b662386f26fc100008310610b4957662386f26fc10000830492506010015b6305f5e1008310610b61576305f5e100830492506008015b6127108310610b7557612710830492506004015b60648310610b87576064830492506002015b600a83106102865760010192915050565b5f6001600160a01b03831615801590610bf45750826001600160a01b0316846001600160a01b03161480610bd15750610bd18484610515565b80610bf457505f828152600460205260409020546001600160a01b038481169116145b949350505050565b6001600160e01b031981168114610c11575f80fd5b50565b5f60208284031215610c24575f80fd5b813561050e81610bfc565b5f81518084528060208401602086015e5f602082860101526020601f19601f83011685010191505092915050565b602081525f61050e6020830184610c2f565b5f60208284031215610c7f575f80fd5b5035919050565b80356001600160a01b0381168114610428575f80fd5b5f8060408385031215610cad575f80fd5b610cb683610c86565b946020939093013593505050565b5f805f60608486031215610cd6575f80fd5b610cdf84610c86565b9250610ced60208501610c86565b929592945050506040919091013590565b5f60208284031215610d0e575f80fd5b61050e82610c86565b5f8060408385031215610d28575f80fd5b610d3183610c86565b915060208301358015158114610d45575f80fd5b809150509250929050565b634e487b7160e01b5f52604160045260245ffd5b5f805f8060808587031215610d77575f80fd5b610d8085610c86565b9350610d8e60208601610c86565b925060408501359150606085013567ffffffffffffffff811115610db0575f80fd5b8501601f81018713610dc0575f80fd5b803567ffffffffffffffff811115610dda57610dda610d50565b604051601f8201601f19908116603f0116810167ffffffffffffffff81118282101715610e0957610e09610d50565b604052818152828201602001891015610e20575f80fd5b816020840160208301375f6020838301015280935050505092959194509250565b5f8060408385031215610e52575f80fd5b610e5b83610c86565b9150610e6960208401610c86565b90509250929050565b600181811c90821680610e8657607f821691505b602082108103610ea457634e487b7160e01b5f52602260045260245ffd5b50919050565b5f60018201610ec757634e487b7160e01b5f52601160045260245ffd5b5060010190565b5f81518060208401855e5f93019283525090919050565b5f610bf4610ef38386610ece565b84610ece565b6001600160a01b03858116825284166020820152604081018390526080606082018190525f90610f2b90830184610c2f565b9695505050505050565b5f60208284031215610f45575f80fd5b815161050e81610bfc56fea2646970667358221220d0fe1df97e3a7dc142ed0f7c755692e993bb45c0e1ba3c18e361f9fa26abd24c64736f6c634300081a0033",
  "linkReferences": {},
  "deployedLinkReferences": {}
}