{
  "_format": "hh-sol-artifact-1",
  "contractName": "AccessPassNFT",
  "sourceName": "contracts/AccessPassNFT.sol",
  "abi": [
    {
      "inputs": [
        {
          "internalType": "string",
          "name": "name_",
          "type": "string"
        },
        {
          "internalType": "string",
          "name": "symbol_",
          "type": "string"
        }
      ],
      "stateMutability": "nonpayable",
      "type": "constructor"
    },
    {
      "inputs": [
        {
          "internalType": "uint256",
          "name": "availableAt",
          "type": "uint256"
        }
      ],
      "name": "CooldownActive",
      "type": "error"
    },
    {
      "inputs": [
        {
          "internalType": "address",
          "name": "sender",
          "type": "address"
        },
        {
          "internalType": "uint256",
          "name": "tokenId",
          "type": "uint256"
        },
        {
          "internalType": "address",
          "name": "owner",
          "type": "address"
        }
      ],
      "name": "ERC721IncorrectOwner",
      "type": "error"
    },
    {
      "inputs": [
        {
          "internalType": "address",
          "name": "operator",
          "type": "address"
        },
        {
          "internalType": "uint256",
          "name": "tokenId",
          "type": "uint256"
        }
      ],
      "name": "ERC721InsufficientApproval",
      "type": "error"
    },
    {
      "inputs": [
        {
          "internalType": "address",
          "name": "approver",
          "type": "address"
        }
      ],
      "name": "ERC721InvalidApprover",
      "type": "error"
    },
    {
      "inputs": [
        {
          "internalType": "address",
          "name": "operator",
          "type": "address"
        }
      ],
      "name": "ERC721InvalidOperator",
      "type": "error"
    },
    {
      "inputs": [
        {
          "internalType": "address",
          "name": "owner",
          "type": "address"
        }
      ],
      "name": "ERC721InvalidOwner",
      "type": "error"
    },
    {
      "inputs": [
        {
          "internalType": "address",
          "name": "receiver",
          "type": "address"
        }
      ],
      "name": "ERC721InvalidReceiver",
      "type": "error"
    },
    {
      "inputs": [
        {
          "internalType": "address",
          "name": "sender",
          "type": "address"
        }
      ],
      "name": "ERC721InvalidSender",
      "type": "error"
    },
    {
      "inputs": [
        {
          "internalType": "uint256",
          "name": "tokenId",
          "type": "uint256"
        }
      ],
      "name": "ERC721NonexistentToken",
      "type": "error"
    },
    {
      "inputs": [],
      "name": "InsufficientRemainingMinutes",
      "type": "error"
    },
    {
      "inputs": [],
      "name": "InvalidDuration",
      "type": "error"
    },
    {
      "inputs": [],
      "name": "NotOperator",
      "type": "error"
    },
    {
      "inputs": [],
      "name": "NotTransferable",
      "type": "error"
    },
    {
      "inputs": [
        {
          "internalType": "address",
          "name": "owner",
          "type": "address"
        }
      ],
      "name": "OwnableInvalidOwner",
      "type": "error"
    },
    {
      "inputs": [
        {
          "internalType": "address",
          "name": "account",
          "type": "address"
        }
      ],
      "name": "OwnableUnauthorizedAccount",
      "type": "error"
    },
    {
      "inputs": [],
      "name": "PassExpired",
      "type": "error"
    },
    {
      "inputs": [],
      "name": "PassInactive",
      "type": "error"
    },
    {
      "inputs": [],
      "name": "ZeroAddress",
      "type": "error"
    },
    {
      "anonymous": false,
      "inputs": [
        {
          "indexed": true,
          "internalType": "address",
          "name": "owner",
          "type": "address"
        },
        {
          "indexed": true,
          "internalType": "address",
          "name": "approved",
          "type": "address"
        },
        {
          "indexed": true,
          "internalType": "uint256",
          "name": "tokenId",
          "type": "uint256"
        }
      ],
      "name": "Approval",
      "type": "event"
    },
    {
      "anonymous": false,
      "inputs": [
        {
          "indexed": true,
          "internalType": "address",
          "name": "owner",
          "type": "address"
        },
        {
          "indexed": true,
          "internalType": "address",
          "name": "operator",
          "type": "address"
        },
        {
          "indexed": false,
          "internalType": "bool",
          "name": "approved",
          "type": "bool"
        }
      ],
      "name": "ApprovalForAll",
      "type": "event"
    },
    {
      "anonymous": false,
      "inputs": [
        {
          "indexed": true,
          "internalType": "address",
          "name": "operator",
          "type": "address"
        }
      ],
      "name": "OperatorUpdated",
      "type": "event"
    },
    {
      "anonymous": false,
      "inputs": [
        {
          "indexed": true,
          "internalType": "address",
          "name": "previousOwner",
          "type": "address"
        },
        {
          "indexed": true,
          "internalType": "address",
          "name": "newOwner",
          "type": "address"
        }
      ],
      "name": "OwnershipTransferred",
      "type": "event"
    },
    {
      "anonymous": false,
      "inputs": [
        {
          "indexed": true,
          "internalType": "uint256",
          "name": "tokenId",
          "type": "uint256"
        },
        {
          "indexed": false,
          "internalType": "uint256",
          "name": "usedMinutes",
          "type": "uint256"
        },
        {
          "indexed": false,
          "internalType": "uint256",
          "name": "remainingMinutes",
          "type": "uint256"
        }
      ],
      "name": "PassConsumed",
      "type": "event"
    },
    {
      "anonymous": false,
      "inputs": [
        {
          "indexed": true,
          "internalType": "uint256",
          "name": "tokenId",
          "type": "uint256"
        },
        {
          "indexed": true,
          "internalType": "address",
          "name": "to",
          "type": "address"
        },
        {
          "indexed": false,
          "internalType": "uint256",
          "name": "planId",
          "type": "uint256"
        },
        {
          "indexed": false,
          "internalType": "uint256",
          "name": "venueId",
          "type": "uint256"
        },
        {
          "indexed": false,
          "internalType": "uint256",
          "name": "durationMinutes",
          "type": "uint256"
        },
        {
          "indexed": false,
          "internalType": "uint256",
          "name": "expiresAt",
          "type": "uint256"
        },
        {
          "indexed": false,
          "internalType": "bool",
          "name": "transferable",
          "type": "bool"
        }
      ],
      "name": "PassMinted",
      "type": "event"
    },
    {
      "anonymous": false,
      "inputs": [
        {
          "indexed": true,
          "internalType": "uint256",
          "name": "tokenId",
          "type": "uint256"
        }
      ],
      "name": "PassReactivated",
      "type": "event"
    },
    {
      "anonymous": false,
      "inputs": [
        {
          "indexed": true,
          "internalType": "uint256",
          "name": "tokenId",
          "type": "uint256"
        }
      ],
      "name": "PassSuspended",
      "type": "event"
    },
    {
      "anonymous": false,
      "inputs": [
        {
          "indexed": true,
          "internalType": "address",
          "name": "from",
          "type": "address"
        },
        {
          "indexed": true,
          "internalType": "address",
          "name": "to",
          "type": "address"
        },
        {
          "indexed": true,
          "internalType": "uint256",
          "name": "tokenId",
          "type": "uint256"
        }
      ],
      "name": "Transfer",
      "type": "event"
    },
    {
      "inputs": [],
      "name": "TRANSFER_COOLDOWN",
      "outputs": [
        {
          "internalType": "uint256",
          "name": "",
          "type": "uint256"
        }
      ],
      "stateMutability": "view",
      "type": "function"
    },
    {
      "inputs": [
        {
          "internalType": "address",
          "name": "to",
          "type": "address"
        },
        {
          "internalType": "uint256",
          "name": "tokenId",
          "type": "uint256"
        }
      ],
      "name": "approve",
      "outputs": [],
      "stateMutability": "nonpayable",
      "type": "function"
    },
    {
      "inputs": [
        {
          "internalType": "address",
          "name": "owner",
          "type": "address"
        }
      ],
      "name": "balanceOf",
      "outputs": [
        {
          "internalType": "uint256",
          "name": "",
          "type": "uint256"
        }
      ],
      "stateMutability": "view",
      "type": "function"
    },
    {
      "inputs": [
        {
          "internalType": "uint256",
          "name": "tokenId",
          "type": "uint256"
        },
        {
          "internalType": "uint256",
          "name": "usedMinutes",
          "type": "uint256"
        }
      ],
      "name": "consumePass",
      "outputs": [],
      "stateMutability": "nonpayable",
      "type": "function"
    },
    {
      "inputs": [
        {
          "internalType": "uint256",
          "name": "tokenId",
          "type": "uint256"
        }
      ],
      "name": "getApproved",
      "outputs": [
        {
          "internalType": "address",
          "name": "",
          "type": "address"
        }
      ],
      "stateMutability": "view",
      "type": "function"
    },
    {
      "inputs": [
        {
          "internalType": "uint256",
          "name": "tokenId",
          "type": "uint256"
        }
      ],
      "name": "getPass",
      "outputs": [
        {
          "components": [
            {
              "internalType": "uint256",
              "name": "planId",
              "type": "uint256"
            },
            {
              "internalType": "uint256",
              "name": "venueId",
              "type": "uint256"
            },
            {
              "internalType": "uint256",
              "name": "remainingMinutes",
              "type": "uint256"
            },
            {
              "internalType": "uint256",
              "name": "expiresAt",
              "type": "uint256"
            },
            {
              "internalType": "bool",
              "name": "isActive",
              "type": "bool"
            },
            {
              "internalType": "bool",
              "name": "transferable",
              "type": "bool"
            }
          ],
          "internalType": "struct AccessPassNFT.PassData",
          "name": "",
          "type": "tuple"
        }
      ],
      "stateMutability": "view",
      "type": "function"
    },
    {
      "inputs": [
        {
          "internalType": "address",
          "name": "owner",
          "type": "address"
        },
        {
          "internalType": "address",
          "name": "operator",
          "type": "address"
        }
      ],
      "name": "isApprovedForAll",
      "outputs": [
        {
          "internalType": "bool",
          "name": "",
          "type": "bool"
        }
      ],
      "stateMutability": "view",
      "type": "function"
    },
    {
      "inputs": [
        {
          "internalType": "uint256",
          "name": "tokenId",
          "type": "uint256"
        }
      ],
      "name": "isPassValid",
      "outputs": [
        {
          "internalType": "bool",
          "name": "",
          "type": "bool"
        }
      ],
      "stateMutability": "view",
      "type": "function"
    },
    {
      "inputs": [
        {
          "internalType": "uint256",
          "name": "",
          "type": "uint256"
        }
      ],
      "name": "lastTransferTime",
      "outputs": [
        {
          "internalType": "uint256",
          "name": "",
          "type": "uint256"
        }
      ],
      "stateMutability": "view",
      "type": "function"
    },
    {
      "inputs": [
        {
          "internalType": "address",
          "name": "to",
          "type": "address"
        },
        {
          "internalType": "uint256",
          "name": "planId",
          "type": "uint256"
        },
        {
          "internalType": "uint256",
          "name": "venueId",
          "type": "uint256"
        },
        {
          "internalType": "uint256",
          "name": "durationMinutes",
          "type": "uint256"
        },
        {
          "internalType": "uint256",
          "name": "expiresAt",
          "type": "uint256"
        },
        {
          "internalType": "bool",
          "name": "transferable_",
          "type": "bool"
        }
      ],
      "name": "mint",
      "outputs": [
        {
          "internalType": "uint256",
          "name": "tokenId",
          "type": "uint256"
        }
      ],
      "stateMutability": "nonpayable",
      "type": "function"
    },
    {
      "inputs": [],
      "name": "name",
      "outputs": [
        {
          "internalType": "string",
          "name": "",
          "type": "string"
        }
      ],
      "stateMutability": "view",
      "type": "function"
    },
    {
      "inputs": [],
      "name": "nextTokenId",
      "outputs": [
        {
          "internalType": "uint256",
          "name": "",
          "type": "uint256"
        }
      ],
      "stateMutability": "view",
      "type": "function"
    },
    {
      "inputs": [],
      "name": "operator",
      "outputs": [
        {
          "internalType": "address",
          "name": "",
          "type": "address"
        }
      ],
      "stateMutability": "view",
      "type": "function"
    },
    {
      "inputs": [],
      "name": "owner",
      "outputs": [
        {
          "internalType": "address",
          "name": "",
          "type": "address"
        }
      ],
      "stateMutability": "view",
      "type": "function"
    },
    {
      "inputs": [
        {
          "internalType": "uint256",
          "name": "tokenId",
          "type": "uint256"
        }
      ],
      "name": "ownerOf",
      "outputs": [
        {
          "internalType": "address",
          "name": "",
          "type": "address"
        }
      ],
      "stateMutability": "view",
      "type": "function"
    },
    {
      "inputs": [
        {
          "internalType": "uint256",
          "name": "",
          "type": "uint256"
        }
      ],
      "name": "passes",
      "outputs": [
        {
          "internalType": "uint256",
          "name": "planId",
          "type": "uint256"
        },
        {
          "internalType": "uint256",
          "name": "venueId",
          "type": "uint256"
        },
        {
          "internalType": "uint256",
          "name": "remainingMinutes",
          "type": "uint256"
        },
        {
          "internalType": "uint256",
          "name": "expiresAt",
          "type": "uint256"
        },
        {
          "internalType": "bool",
          "name": "isActive",
          "type": "bool"
        },
        {
          "internalType": "bool",
          "name": "transferable",
          "type": "bool"
        }
      ],
      "stateMutability": "view",
      "type": "function"
    },
    {
      "inputs": [
        {
          "internalType": "uint256",
          "name": "tokenId",
          "type": "uint256"
        }
      ],
      "name": "reactivatePass",
      "outputs": [],
      "stateMutability": "nonpayable",
      "type": "function"
    },
    {
      "inputs": [],
      "name": "renounceOwnership",
      "outputs": [],
      "stateMutability": "nonpayable",
      "type": "function"
    },
    {
      "inputs": [
        {
          "internalType": "address",
          "name": "from",
          "type": "address"
        },
        {
          "internalType": "address",
          "name": "to",
          "type": "address"
        },
        {
          "internalType": "uint256",
          "name": "tokenId",
          "type": "uint256"
        }
      ],
      "name": "safeTransferFrom",
      "outputs": [],
      "stateMutability": "nonpayable",
      "type": "function"
    },
    {
      "inputs": [
        {
          "internalType": "address",
          "name": "from",
          "type": "address"
        },
        {
          "internalType": "address",
          "name": "to",
          "type": "address"
        },
        {
          "internalType": "uint256",
          "name": "tokenId",
          "type": "uint256"
        },
        {
          "internalType": "bytes",
          "name": "data",
          "type": "bytes"
        }
      ],
      "name": "safeTransferFrom",
      "outputs": [],
      "stateMutability": "nonpayable",
      "type": "function"
    },
    {
      "inputs": [
        {
          "internalType": "address",
          "name": "operator",
          "type": "address"
        },
        {
          "internalType": "bool",
          "name": "approved",
          "type": "bool"
        }
      ],
      "name": "setApprovalForAll",
      "outputs": [],
      "stateMutability": "nonpayable",
      "type": "function"
    },
    {
      "inputs": [
        {
          "internalType": "address",
          "name": "operator_",
          "type": "address"
        }
      ],
      "name": "setOperator",
      "outputs": [],
      "stateMutability": "nonpayable",
      "type": "function"
    },
    {
      "inputs": [
        {
          "internalType": "bytes4",
          "name": "interfaceId",
          "type": "bytes4"
        }
      ],
      "name": "supportsInterface",
      "outputs": [
        {
          "internalType": "bool",
          "name": "",
          "type": "bool"
        }
      ],
      "stateMutability": "view",
      "type": "function"
    },
    {
      "inputs": [
        {
          "internalType": "uint256",
          "name": "tokenId",
          "type": "uint256"
        }
      ],
      "name": "suspendPass",
      "outputs": [],
      "stateMutability": "nonpayable",
      "type": "function"
    },
    {
      "inputs": [],
      "name": "symbol",
      "outputs": [
        {
          "internalType": "string",
          "name": "",
          "type": "string"
        }
      ],
      "stateMutability": "view",
      "type": "function"
    },
    {
      "inputs": [
        {
          "internalType": "uint256",
          "name": "tokenId",
          "type": "uint256"
        }
      ],
      "name": "tokenURI",
      "outputs": [
        {
          "internalType": "string",
          "name": "",
          "type": "string"
        }
      ],
      "stateMutability": "view",
      "type": "function"
    },
    {
      "inputs": [
        {
          "internalType": "address",
          "name": "from",
          "type": "address"
        },
        {
          "internalType": "address",
          "name": "to",
          "type": "address"
        },
        {
          "internalType": "uint256",
          "name": "tokenId",
          "type": "uint256"
        }
      ],
      "name": "transferFrom",
      "outputs": [],
      "stateMutability": "nonpayable",
      "type": "function"
    },
    {
      "inputs": [
        {
          "internalType": "address",
          "name": "newOwner",
          "type": "address"
        }
      ],
      "name": "transferOwnership",
      "outputs": [],
      "stateMutability": "nonpayable",
      "type": "function"
    }
  ],
  "bytecode": "0x60806040526001600855348015610014575f80fd5b50604051611c1b380380611c1b8339810160408190526100339161017d565b3382825f6100418382610266565b50600161004e8282610266565b5050506001600160a01b03811661007e57604051631e4fbdf760e01b81525f600482015260240160405180910390fd5b6100878161008f565b505050610320565b600680546001600160a01b038381166001600160a01b0319831681179093556040519116919082907f8be0079c531659141344cd1fd0a4f28419497f9722a3daafe3b4186f6b6457e0905f90a35050565b634e487b7160e01b5f52604160045260245ffd5b5f82601f830112610103575f80fd5b81516001600160401b0381111561011c5761011c6100e0565b604051601f8201601f19908116603f011681016001600160401b038111828210171561014a5761014a6100e0565b604052818152838201602001851015610161575f80fd5b8160208501602083015e5f918101602001919091529392505050565b5f806040838503121561018e575f80fd5b82516001600160401b038111156101a3575f80fd5b6101af858286016100f4565b602085015190935090506001600160401b038111156101cc575f80fd5b6101d8858286016100f4565b9150509250929050565b600181811c908216806101f657607f821691505b60208210810361021457634e487b7160e01b5f52602260045260245ffd5b50919050565b601f82111561026157805f5260205f20601f840160051c8101602085101561023f5750805b601f840160051c820191505b8181101561025e575f815560010161024b565b50505b505050565b81516001600160401b0381111561027f5761027f6100e0565b6102938161028d84546101e2565b8461021a565b6020601f8211600181146102c5575f83156102ae5750848201515b5f19600385901b1c1916600184901b17845561025e565b5f84815260208120601f198516915b828110156102f457878501518255602094850194600190920191016102d4565b508482101561031157868401515f19600387901b60f8161c191681555b50505050600190811b01905550565b6118ee8061032d5f395ff3fe608060405234801561000f575f80fd5b50600436106101bb575f3560e01c8063715018a6116100f3578063aa9346e911610093578063b88d4fde1161006e578063b88d4fde1461045c578063c87b56dd1461046f578063e985e9c514610482578063f2fde38b14610495575f80fd5b8063aa9346e914610423578063ae259aa814610436578063b3ab15fb14610449575f80fd5b8063830a1048116100ce578063830a1048146103d85780638da5cb5b146103f757806395d89b4114610408578063a22cb46514610410575f80fd5b8063715018a6146103bd57806375794a3c146103c55780637a4a3412146103ce575f80fd5b806348c6195d1161015e578063570ca73511610139578063570ca735146102fd5780636352211e146103105780636e321ce41461032357806370a082311461039c575f80fd5b806348c6195d146102755780634c96b9151461028857806355a6f86f1461029b575f80fd5b8063095ea7b311610199578063095ea7b3146102275780631b7e69801461023c57806323b872dd1461024f57806342842e0e14610262575f80fd5b806301ffc9a7146101bf57806306fdde03146101e7578063081812fc146101fc575b5f80fd5b6101d26101cd3660046114ea565b6104a8565b60405190151581526020015b60405180910390f35b6101ef6104f9565b6040516101de9190611533565b61020f61020a366004611545565b610588565b6040516001600160a01b0390911681526020016101de565b61023a610235366004611577565b6105af565b005b61023a61024a366004611545565b6105be565b61023a61025d36600461159f565b61062b565b61023a61027036600461159f565b6106b9565b6101d2610283366004611545565b6106d8565b61023a610296366004611545565b610712565b6102ae6102a9366004611545565b610782565b6040516101de91905f60c0820190508251825260208301516020830152604083015160408301526060830151606083015260808301511515608083015260a0830151151560a083015292915050565b60075461020f906001600160a01b031681565b61020f61031e366004611545565b61081c565b61036b610331366004611545565b60096020525f9081526040902080546001820154600283015460038401546004909401549293919290919060ff8082169161010090041686565b60408051968752602087019590955293850192909252606084015215156080830152151560a082015260c0016101de565b6103af6103aa3660046115d9565b610826565b6040519081526020016101de565b61023a61086b565b6103af60085481565b6103af6201518081565b6103af6103e6366004611545565b600a6020525f908152604090205481565b6006546001600160a01b031661020f565b6101ef61087e565b61023a61041e366004611601565b61088d565b61023a610431366004611632565b610898565b6103af610444366004611652565b6109a9565b61023a6104573660046115d9565b610b46565b61023a61046a3660046116ba565b610bbe565b6101ef61047d366004611545565b610bd6565b6101d2610490366004611797565b610c46565b61023a6104a33660046115d9565b610c73565b5f6001600160e01b031982166380ac58cd60e01b14806104d857506001600160e01b03198216635b5e139f60e01b145b806104f357506301ffc9a760e01b6001600160e01b03198316145b92915050565b60605f8054610507906117bf565b80601f0160208091040260200160405190810160405280929190818152602001828054610533906117bf565b801561057e5780601f106105555761010080835404028352916020019161057e565b820191905f5260205f20905b81548152906001019060200180831161056157829003601f168201915b5050505050905090565b5f61059282610cb0565b505f828152600460205260409020546001600160a01b03166104f3565b6105ba828233610ce8565b5050565b6007546001600160a01b031633146105e957604051631f0853c160e21b815260040160405180910390fd5b5f81815260096020526040808220600401805460ff191690555182917f2e5c80b143d7e9553f780cd08611398d7da22f1af729c1bbfa58834c52f2d31191a250565b6001600160a01b03821661065957604051633250574960e11b81525f60048201526024015b60405180910390fd5b5f610665838333610cf5565b9050836001600160a01b0316816001600160a01b0316146106b3576040516364283d7b60e01b81526001600160a01b0380861660048301526024820184905282166044820152606401610650565b50505050565b6106d383838360405180602001604052805f815250610bbe565b505050565b5f818152600960205260408120600481015460ff1680156106fc5750806003015442105b801561070b57505f8160020154115b9392505050565b6007546001600160a01b0316331461073d57604051631f0853c160e21b815260040160405180910390fd5b5f81815260096020526040808220600401805460ff191660011790555182917f552a4cc328e7c520a3d95b238f9c89631d4fc91d214b89ea671d2234d92bddb891a250565b6107b96040518060c001604052805f81526020015f81526020015f81526020015f81526020015f151581526020015f151581525090565b505f90815260096020908152604091829020825160c081018452815481526001820154928101929092526002810154928201929092526003820154606082015260049091015460ff8082161515608084015261010090910416151560a082015290565b5f6104f382610cb0565b5f6001600160a01b038216610850576040516322718ad960e21b81525f6004820152602401610650565b506001600160a01b03165f9081526003602052604090205490565b610873610db2565b61087c5f610ddf565b565b606060018054610507906117bf565b6105ba338383610e30565b6007546001600160a01b031633146108c357604051631f0853c160e21b815260040160405180910390fd5b5f828152600960205260409020600481015460ff166108f5576040516304cbe6d560e11b815260040160405180910390fd5b806003015442106109185760405162cf3fb760e81b815260040160405180910390fd5b806002015482111561093d5760405163f104585d60e01b815260040160405180910390fd5b600281018054839003908190555f0361095d5760048101805460ff191690555b827f5dce4199d23f539ca8104f04707b0c61282a81582244f4e1b708f3f6720411e883836002015460405161099c929190918252602082015260400190565b60405180910390a2505050565b6007545f906001600160a01b031633146109d657604051631f0853c160e21b815260040160405180910390fd5b6001600160a01b0387166109fd5760405163d92e233d60e01b815260040160405180910390fd5b835f03610a1d57604051637616640160e01b815260040160405180910390fd5b428311610a3c5760405162cf3fb760e81b815260040160405180910390fd5b60088054905f610a4b8361180b565b919050559050610a5b8782610ef7565b6040805160c08101825287815260208082018881528284018881526060808501898152600160808088018281528b151560a0808b018281525f8e815260098c528d90209b518c559851948b0194909455955160028a015592516003890155915160049097018054955115156101000261ff00199815159890981661ffff19909616959095179690961790935585518c81529384018b90529483018990529382018790528101929092526001600160a01b0389169183917fa33f0802970d0cea5aa45e7f2c97ec189c88e6d0012c8e1c5de3a34be7765ae4910160405180910390a39695505050505050565b610b4e610db2565b6001600160a01b038116610b755760405163d92e233d60e01b815260040160405180910390fd5b600780546001600160a01b0319166001600160a01b0383169081179091556040517fb3b3f5f64ab192e4b5fefde1f51ce9733bbdcf831951543b325aebd49cc27ec4905f90a250565b610bc984848461062b565b6106b33385858585610f10565b6060610be182610cb0565b505f610bf760408051602081019091525f815290565b90505f815111610c155760405180602001604052805f81525061070b565b80610c1f84611038565b604051602001610c3092919061183a565b6040516020818303038152906040529392505050565b6001600160a01b039182165f90815260056020908152604080832093909416825291909152205460ff1690565b610c7b610db2565b6001600160a01b038116610ca457604051631e4fbdf760e01b81525f6004820152602401610650565b610cad81610ddf565b50565b5f818152600260205260408120546001600160a01b0316806104f357604051637e27328960e01b815260048101849052602401610650565b6106d383838360016110c8565b5f828152600260205260408120546001600160a01b03168015610d9e575f8481526009602052604090206004810154610100900460ff16610d495760405163dc8d8db760e01b815260040160405180910390fd5b5f858152600a6020526040812054610d6590620151809061184e565b905080421015610d8b5760405163c1ab61a160e01b815260048101829052602401610650565b50505f848152600a602052604090204290555b610da98585856111cc565b95945050505050565b6006546001600160a01b0316331461087c5760405163118cdaa760e01b8152336004820152602401610650565b600680546001600160a01b038381166001600160a01b0319831681179093556040519116919082907f8be0079c531659141344cd1fd0a4f28419497f9722a3daafe3b4186f6b6457e0905f90a35050565b6001600160a01b038316610e595760405163a9fbf51f60e01b81525f6004820152602401610650565b6001600160a01b038216610e8b57604051630b61174360e31b81526001600160a01b0383166004820152602401610650565b6001600160a01b038381165f81815260056020908152604080832094871680845294825291829020805460ff191686151590811790915591519182527f17307eab39ab6107e8899845ad3d59bd9653f200f220920489ca2b5937696c31910160405180910390a3505050565b6105ba828260405180602001604052805f8152506112be565b6001600160a01b0383163b1561103157604051630a85bd0160e11b81526001600160a01b0384169063150b7a0290610f52908890889087908790600401611861565b6020604051808303815f875af1925050508015610f8c575060408051601f3d908101601f19168201909252610f899181019061189d565b60015b610ff3573d808015610fb9576040519150601f19603f3d011682016040523d82523d5f602084013e610fbe565b606091505b5080515f03610feb57604051633250574960e11b81526001600160a01b0385166004820152602401610650565b805160208201fd5b6001600160e01b03198116630a85bd0160e11b1461102f57604051633250574960e11b81526001600160a01b0385166004820152602401610650565b505b5050505050565b60605f611044836112d5565b60010190505f8167ffffffffffffffff811115611063576110636116a6565b6040519080825280601f01601f19166020018201604052801561108d576020820181803683370190505b5090508181016020015b5f19016f181899199a1a9b1b9c1cb0b131b232b360811b600a86061a8153600a850494508461109757509392505050565b80806110dc57506001600160a01b03821615155b1561119d575f6110eb84610cb0565b90506001600160a01b038316158015906111175750826001600160a01b0316816001600160a01b031614155b801561112a57506111288184610c46565b155b156111535760405163a9fbf51f60e01b81526001600160a01b0384166004820152602401610650565b811561119b5783856001600160a01b0316826001600160a01b03167f8c5be1e5ebec7d5bd14f71427d1e84f3dd0314c0f7b2291e5b200ac8c7c3b92560405160405180910390a45b505b50505f90815260046020526040902080546001600160a01b0319166001600160a01b0392909216919091179055565b5f828152600260205260408120546001600160a01b03908116908316156111f8576111f88184866113ac565b6001600160a01b03811615611232576112135f855f806110c8565b6001600160a01b0381165f90815260036020526040902080545f190190555b6001600160a01b03851615611260576001600160a01b0385165f908152600360205260409020805460010190555b5f8481526002602052604080822080546001600160a01b0319166001600160a01b0389811691821790925591518793918516917fddf252ad1be2c89b69c2b068fc378daa952ba7f163c4a11628f55a4df523b3ef91a4949350505050565b6112c88383611410565b6106d3335f858585610f10565b5f8072184f03e93ff9f4daa797ed6e38ed64bf6a1f0160401b83106113135772184f03e93ff9f4daa797ed6e38ed64bf6a1f0160401b830492506040015b6d04ee2d6d415b85acef8100000000831061133f576d04ee2d6d415b85acef8100000000830492506020015b662386f26fc10000831061135d57662386f26fc10000830492506010015b6305f5e1008310611375576305f5e100830492506008015b612710831061138957612710830492506004015b6064831061139b576064830492506002015b600a83106104f35760010192915050565b6113b7838383611471565b6106d3576001600160a01b0383166113e557604051637e27328960e01b815260048101829052602401610650565b60405163177e802f60e01b81526001600160a01b038316600482015260248101829052604401610650565b6001600160a01b03821661143957604051633250574960e11b81525f6004820152602401610650565b5f61144583835f610cf5565b90506001600160a01b038116156106d3576040516339e3563760e11b81525f6004820152602401610650565b5f6001600160a01b038316158015906114cd5750826001600160a01b0316846001600160a01b031614806114aa57506114aa8484610c46565b806114cd57505f828152600460205260409020546001600160a01b038481169116145b949350505050565b6001600160e01b031981168114610cad575f80fd5b5f602082840312156114fa575f80fd5b813561070b816114d5565b5f81518084528060208401602086015e5f602082860101526020601f19601f83011685010191505092915050565b602081525f61070b6020830184611505565b5f60208284031215611555575f80fd5b5035919050565b80356001600160a01b0381168114611572575f80fd5b919050565b5f8060408385031215611588575f80fd5b6115918361155c565b946020939093013593505050565b5f805f606084860312156115b1575f80fd5b6115ba8461155c565b92506115c86020850161155c565b929592945050506040919091013590565b5f602082840312156115e9575f80fd5b61070b8261155c565b80358015158114611572575f80fd5b5f8060408385031215611612575f80fd5b61161b8361155c565b9150611629602084016115f2565b90509250929050565b5f8060408385031215611643575f80fd5b50508035926020909101359150565b5f805f805f8060c08789031215611667575f80fd5b6116708761155c565b95506020870135945060408701359350606087013592506080870135915061169a60a088016115f2565b90509295509295509295565b634e487b7160e01b5f52604160045260245ffd5b5f805f80608085870312156116cd575f80fd5b6116d68561155c565b93506116e46020860161155c565b925060408501359150606085013567ffffffffffffffff811115611706575f80fd5b8501601f81018713611716575f80fd5b803567ffffffffffffffff811115611730576117306116a6565b604051601f8201601f19908116603f0116810167ffffffffffffffff8111828210171561175f5761175f6116a6565b604052818152828201602001891015611776575f80fd5b816020840160208301375f6020838301015280935050505092959194509250565b5f80604083850312156117a8575f80fd5b6117b18361155c565b91506116296020840161155c565b600181811c908216806117d357607f821691505b6020821081036117f157634e487b7160e01b5f52602260045260245ffd5b50919050565b634e487b7160e01b5f52601160045260245ffd5b5f6001820161181c5761181c6117f7565b5060010190565b5f81518060208401855e5f93019283525090919050565b5f6114cd6118488386611823565b84611823565b808201808211156104f3576104f36117f7565b6001600160a01b03858116825284166020820152604081018390526080606082018190525f9061189390830184611505565b9695505050505050565b5f602082840312156118ad575f80fd5b815161070b816114d556fea26469706673582212200a2dce5d04603e42c49369b06c31389c90c93359a620d1085ad9900d8cd9345d64736f6c634300081a0033",
  "linkReferences": {},
  "deployedLinkReferences": {}
}