{
  "_format": "hh-sol-artifact-1",
  "contractName": "DepositVault",
  "sourceName": "contracts/DepositVault.sol",
  "abi": [
    {
      "inputs": [
        {
          "internalType": "address",
          "name": "token_",
          "type": "address"
        }
      ],
      "stateMutability": "nonpayable",
      "type": "constructor"
    },
    {
      "inputs": [],
      "name": "InsufficientHeld",
      "type": "error"
    },
    {
      "inputs": [],
      "name": "NotOperator",
      "type": "error"
    },
    {
      "inputs": [
        {
          "internalType": "address",
          "name": "owner",
          "type": "address"
        }
      ],
      "name": "OwnableInvalidOwner",
      "type": "error"
    },
    {
      "inputs": [
        {
          "internalType": "address",
          "name": "account",
          "type": "address"
        }
      ],
      "name": "OwnableUnauthorizedAccount",
      "type": "error"
    },
    {
      "inputs": [],
      "name": "ZeroAddress",
      "type": "error"
    },
    {
      "anonymous": false,
      "inputs": [
        {
          "indexed": true,
          "internalType": "address",
          "name": "payer",
          "type": "address"
        },
        {
          "indexed": true,
          "internalType": "address",
          "name": "to",
          "type": "address"
        },
        {
          "indexed": false,
          "internalType": "uint256",
          "name": "amount",
          "type": "uint256"
        }
      ],
      "name": "DepositCaptured",
      "type": "event"
    },
    {
      "anonymous": false,
      "inputs": [
        {
          "indexed": true,
          "internalType": "address",
          "name": "payer",
          "type": "address"
        },
        {
          "indexed": false,
          "internalType": "uint256",
          "name": "amount",
          "type": "uint256"
        }
      ],
      "name": "DepositHeld",
      "type": "event"
    },
    {
      "anonymous": false,
      "inputs": [
        {
          "indexed": true,
          "internalType": "address",
          "name": "payer",
          "type": "address"
        },
        {
          "indexed": false,
          "internalType": "uint256",
          "name": "amount",
          "type": "uint256"
        }
      ],
      "name": "DepositReleased",
      "type": "event"
    },
    {
      "anonymous": false,
      "inputs": [
        {
          "indexed": true,
          "internalType": "address",
          "name": "operator",
          "type": "address"
        }
      ],
      "name": "OperatorUpdated",
      "type": "event"
    },
    {
      "anonymous": false,
      "inputs": [
        {
          "indexed": true,
          "internalType": "address",
          "name": "previousOwner",
          "type": "address"
        },
        {
          "indexed": true,
          "internalType": "address",
          "name": "newOwner",
          "type": "address"
        }
      ],
      "name": "OwnershipTransferred",
      "type": "event"
    },
    {
      "inputs": [
        {
          "internalType": "address",
          "name": "payer",
          "type": "address"
        },
        {
          "internalType": "address",
          "name": "to",
          "type": "address"
        },
        {
          "internalType": "uint256",
          "name": "amount",
          "type": "uint256"
        }
      ],
      "name": "captureDeposit",
      "outputs": [],
      "stateMutability": "nonpayable",
      "type": "function"
    },
    {
      "inputs": [
        {
          "internalType": "address",
          "name": "",
          "type": "address"
        }
      ],
      "name": "heldBalance",
      "outputs": [
        {
          "internalType": "uint256",
          "name": "",
          "type": "uint256"
        }
      ],
      "stateMutability": "view",
      "type": "function"
    },
    {
      "inputs": [
        {
          "internalType": "uint256",
          "name": "amount",
          "type": "uint256"
        }
      ],
      "name": "holdDeposit",
      "outputs": [],
      "stateMutability": "nonpayable",
      "type": "function"
    },
    {
      "inputs": [],
      "name": "operator",
      "outputs": [
        {
          "internalType": "address",
          "name": "",
          "type": "address"
        }
      ],
      "stateMutability": "view",
      "type": "function"
    },
    {
      "inputs": [],
      "name": "owner",
      "outputs": [
        {
          "internalType": "address",
          "name": "",
          "type": "address"
        }
      ],
      "stateMutability": "view",
      "type": "function"
    },
    {
      "inputs": [
        {
          "internalType": "address",
          "name": "payer",
          "type": "address"
        },
        {
          "internalType": "uint256",
          "name": "amount",
          "type": "uint256"
        }
      ],
      "name": "releaseDeposit",
      "outputs": [],
      "stateMutability": "nonpayable",
      "type": "function"
    },
    {
      "inputs": [],
      "name": "renounceOwnership",
      "outputs": [],
      "stateMutability": "nonpayable",
      "type": "function"
    },
    {
      "inputs": [
        {
          "internalType": "address",
          "name": "operator_",
          "type": "address"
        }
      ],
      "name": "setOperator",
      "outputs": [],
      "stateMutability": "nonpayable",
      "type": "function"
    },
    {
      "inputs": [],
      "name": "token",
      "outputs": [
        {
          "internalType": "contract IERC20",
          "name": "",
          "type": "address"
        }
      ],
      "stateMutability": "view",
      "type": "function"
    },
    {
      "inputs": [
        {
          "internalType": "address",
          "name": "newOwner",
          "type": "address"
        }
      ],
      "name": "transferOwnership",
      "outputs": [],
      "stateMutability": "nonpayable",
      "type": "function"
    }
  ],
  "bytecode": "0x60a060405234801561000f575f80fd5b50604051610a66380380610a6683398101604081905261002e916100e4565b338061005357604051631e4fbdf760e01b81525f600482015260240160405180910390fd5b61005c81610095565b506001600160a01b0381166100845760405163d92e233d60e01b815260040160405180910390fd5b6001600160a01b0316608052610111565b5f80546001600160a01b038381166001600160a01b0319831681178455604051919092169283917f8be0079c531659141344cd1fd0a4f28419497f9722a3daafe3b4186f6b6457e09190a35050565b5f602082840312156100f4575f80fd5b81516001600160a01b038116811461010a575f80fd5b9392505050565b60805161092861013e5f395f818161017a0152818161027a01528181610436015261061401526109285ff3fe608060405234801561000f575f80fd5b506004361061009b575f3560e01c8063b3ab15fb11610063578063b3ab15fb1461010f578063c100ca5c14610122578063f10c974f14610135578063f2fde38b14610162578063fc0c546a14610175575f80fd5b806341b008071461009f578063524dd059146100b4578063570ca735146100c7578063715018a6146100f75780638da5cb5b146100ff575b5f80fd5b6100b26100ad3660046107fa565b61019c565b005b6100b26100c2366004610834565b61037f565b6001546100da906001600160a01b031681565b6040516001600160a01b0390911681526020015b60405180910390f35b6100b261052b565b5f546001600160a01b03166100da565b6100b261011d36600461085c565b61053e565b6100b261013036600461087c565b6105b6565b61015461014336600461085c565b60026020525f908152604090205481565b6040519081526020016100ee565b6100b261017036600461085c565b610727565b6100da7f000000000000000000000000000000000000000000000000000000000000000081565b6001546001600160a01b031633146101c757604051631f0853c160e21b815260040160405180910390fd5b6001600160a01b0382166101ee5760405163d92e233d60e01b815260040160405180910390fd5b6001600160a01b0383165f9081526002602052604090205481111561022657604051638e875ab160e01b815260040160405180910390fd5b6001600160a01b0383165f908152600260205260408120805483929061024d9084906108a7565b909155505060405163a9059cbb60e01b81526001600160a01b038381166004830152602482018390525f917f00000000000000000000000000000000000000000000000000000000000000009091169063a9059cbb906044016020604051808303815f875af11580156102c2573d5f803e3d5ffd5b505050506040513d601f19601f820116820180604052508101906102e691906108c0565b90508061032c5760405162461bcd60e51b815260206004820152600f60248201526e1d1c985b9cd9995c8819985a5b1959608a1b60448201526064015b60405180910390fd5b826001600160a01b0316846001600160a01b03167ffdc1ec2a5977552caf88c64b5ea5cc47cd4329ee5720f653939da9dfd888d4f08460405161037191815260200190565b60405180910390a350505050565b6001546001600160a01b031633146103aa57604051631f0853c160e21b815260040160405180910390fd5b6001600160a01b0382165f908152600260205260409020548111156103e257604051638e875ab160e01b815260040160405180910390fd5b6001600160a01b0382165f90815260026020526040812080548392906104099084906108a7565b909155505060405163a9059cbb60e01b81526001600160a01b038381166004830152602482018390525f917f00000000000000000000000000000000000000000000000000000000000000009091169063a9059cbb906044016020604051808303815f875af115801561047e573d5f803e3d5ffd5b505050506040513d601f19601f820116820180604052508101906104a291906108c0565b9050806104e35760405162461bcd60e51b815260206004820152600f60248201526e1d1c985b9cd9995c8819985a5b1959608a1b6044820152606401610323565b826001600160a01b03167f5b035be76c6224ae570d8d05097177ed728aab6364d39f1ec803b4126fd25fce8360405161051e91815260200190565b60405180910390a2505050565b610533610764565b61053c5f610790565b565b610546610764565b6001600160a01b03811661056d5760405163d92e233d60e01b815260040160405180910390fd5b600180546001600160a01b0319166001600160a01b0383169081179091556040517fb3b3f5f64ab192e4b5fefde1f51ce9733bbdcf831951543b325aebd49cc27ec4905f90a250565b5f81116105f05760405162461bcd60e51b81526020600482015260086024820152670616d6f756e743d360c41b6044820152606401610323565b6040516323b872dd60e01b8152336004820152306024820152604481018290525f907f00000000000000000000000000000000000000000000000000000000000000006001600160a01b0316906323b872dd906064016020604051808303815f875af1158015610662573d5f803e3d5ffd5b505050506040513d601f19601f8201168201806040525081019061068691906108c0565b9050806106cb5760405162461bcd60e51b81526020600482015260136024820152721d1c985b9cd9995c919c9bdb4819985a5b1959606a1b6044820152606401610323565b335f90815260026020526040812080548492906106e99084906108df565b909155505060405182815233907fb32b4347bbdc9ba4a012d47d705293e27129616282349eddf6807e1d4a40e4649060200160405180910390a25050565b61072f610764565b6001600160a01b03811661075857604051631e4fbdf760e01b81525f6004820152602401610323565b61076181610790565b50565b5f546001600160a01b0316331461053c5760405163118cdaa760e01b8152336004820152602401610323565b5f80546001600160a01b038381166001600160a01b0319831681178455604051919092169283917f8be0079c531659141344cd1fd0a4f28419497f9722a3daafe3b4186f6b6457e09190a35050565b80356001600160a01b03811681146107f5575f80fd5b919050565b5f805f6060848603121561080c575f80fd5b610815846107df565b9250610823602085016107df565b929592945050506040919091013590565b5f8060408385031215610845575f80fd5b61084e836107df565b946020939093013593505050565b5f6020828403121561086c575f80fd5b610875826107df565b9392505050565b5f6020828403121561088c575f80fd5b5035919050565b634e487b7160e01b5f52601160045260245ffd5b818103818111156108ba576108ba610893565b92915050565b5f602082840312156108d0575f80fd5b81518015158114610875575f80fd5b808201808211156108ba576108ba61089356fea2646970667358221220e9fb44c928410ebc5d16cf0eace126ba62b9704999131be502112575b52b325664736f6c634300081a0033",
  "linkReferences": {},
  "deployedLinkReferences": {}
}